:020000040800F2
:10000000A00B00205D120008390600083B0600081E
:100010003F060008430600084706000800000000ED
:100020000000000000000000000000004B06000877
:100030004D060008000000004F06000851060008A9
:10004000771200087712000877120008771200086C
:10005000771200087712000877120008771200085C
:10006000771200087712000877120008771200084C
:10007000771200087712000877120008771200083C
:10008000771200087712000877120008771200082C
:10009000771200087712000877120008771200081C
:1000A000771200087712000877120008771200080C
:1000B00077120008771200087712000877120008FC
:1000C00077120008771200087712000877120008EC
:1000D00077120008D1110008771200087712000883
:1000E00077120008771200087712000877120008CC
:1000F00077120008771200087712000877120008BC
:1001000077120008771200087712000877120008AB
:10011000771200087712000877120008771200089B
:10012000771200087712000877120008771200088B
:10013000771200087712000877120008771200087B
:10014000771200087712000877120008771200086B
:10015000771200087712000877120008771200085B
:10016000771200087712000877120008771200084B
:10017000771200087712000877120008771200083B
:10018000771200087712000800F002F800F05CF81F
:100190000AA090E8000C82448344AAF10107DA45E2
:1001A00001D100F051F8AFF2090EBAE80F0013F0D8
:1001B000010F18BFFB1A43F001031847801F00000E
:1001C000A01F00000A444FF0000C10F8013B13F090
:1001D000070408BF10F8014B1D1108BF10F8015BA0
:1001E000641E05D010F8016B641E01F8016BF9D193
:1001F00013F0080F1EBF10F8014BAD1C0C1B09D1EA
:100200006D1E58BF01F801CBFAD505E014F8016B5B
:1002100001F8016B6D1EF9D59142D6D370470000ED
:100220000023002400250026103A28BF78C1FBD8FF
:10023000520728BF30C148BF0B6070471FB501F09F
:1002400077FF1FBD10B510BD01F03FFF1146FFF74E
:10025000F5FF00F009F801F05DFF03B4FFF7F2FFCE
:1002600003BC00F055FF000000BFA82000F0CEFE48
:1002700000F0ACFE00F0F0FD002000F033FB0020A9
:1002800000F03EFB00BF00205F490860BBE05F4814
:1002900000F09FFB4FF4FA7000F01AFF5CA20021FF
:1002A000084600F061FC5FA20221002000F05CFC27
:1002B00061A20421002000F057FC64A20621002066
:1002C00000F052FC4FF4FA7000F002FF00F04AFB1D
:1002D00063A20021182000F047FC64A20221002044
:1002E00000F042FC66A20421002000F03DFC69A25F
:1002F0000621002000F038FC4FF4FA7000F0E8FE10
:1003000000F030FB68A20021084600F02DFC6BA233
:100310000221002000F028FC6DA20421002000F042
:1003200023FC70A20621002000F01EFC714A062169
:10033000612000F066FB704A0621712000F061FB2D
:100340004FF4FA7000F0C4FE00F00CFB6BA2002129
:10035000084600F009FC6EA20221002000F0C1FC5A
:1003600071A20321002000F0BCFC75A20421002032
:1003700000F0B7FC78A20521002000F0B2FC7CA2BE
:100380000621002000F0ADFC7EA20721002000F035
:10039000A8FC4FF4FA7000F09BFE00F0E3FA7EA296
:1003A0000021084600F0E0FB80A20221002000F0BE
:1003B000DBFB83A20421002000F0D6FB85A20621EE
:1003C000002000F0D1FB4FF4FA7000F081FE00F045
:1003D000C9FA85A20021084600F0C6FB87A20221C7
:1003E000002000F0C1FB8AA20421002000F0BCFB29
:1003F0008CA20621002000F0B7FB4FF4FA7000F049
:1004000067FE00F0AFFA42E7A482424200000020FB
:1004100031323836342CB4F8D6D0CEC4D7D6BFE279
:10042000000000003136583136BCF2CCE5BABAD7FC
:10043000D6BFE22C00000000BBF238583136B5E3DD
:10044000D5F341534349492C00000000BBF2355815
:1004500037B5E3D5F34153434949C2EB00000000EF
:10046000D6D0BEB0D4B0B5E7D7D30000D6F7D2AA65
:10047000C9FAB2FA4F4C4544C4A3BFE900000000DA
:10048000B9CBBFCDD6C1C9CFD5E6B3CFB7FECEF17C
:1004900000000000B3CFD0C5D3EBD6CAC1BFB5DAD8
:1004A000D2BBA3A100000000474232333132BCF27C
:1004B000CCE5D7D6BFE2BCB000000000D3D0CDBCA5
:1004C000D0CDB9A6C4DCA3ACBFC9D7D4000000000E
:1004D000B1E0B4F3D7D6BBF2CDBCCFF1BBF2C9FAD1
:1004E00000000000C6A7D7D6A3ACC0FDC8E7A3BADA
:1004F0000000000000040020200400203C214023D4
:1005000024255E262A28295F2D2B5D2F0000000060
:100510003C21402324255E262A28295F2D2B5D2F90
:100520003B2E2C3F5B000000585920656C656374BE
:10053000726F6E69637320436F2E2C2000000000E1
:100540004C74642E2065737461626C6973686564B1
:100550002061742020000000796561722032303102
:10056000302E466F637573204F4C454420000000C9
:100570004D6F62696C653A3133323635353835390D
:100580003735000054656C3A303735352D33323904
:100590003130373135000000B0A1B0A2B0A3B0A413
:1005A000B0A5B0A6B0A7B0A800000000B0A9B0AA3E
:1005B000B0ABB0ACB0ADB0AEB0AFB0B0000000000A
:1005C000B0B1B0B2B0B3B0B4B0B5B0B6B0B7B0B807
:1005D00000000000B0B9B0BAB0BBB0BCB0BDB0BE96
:1005E000B0BFB0C000000000F7DFF7E0F7E1F7E2CE
:1005F000F7E3F7E4F7E5F7E600000000F7E7F7E8D0
:10060000F7E9F7EAF7EBF7ECF7EDF7EE000000009B
:10061000F7EFF7F0F7F1F7F2F7F3F7F4F7F5F7F68E
:1006200000000000F7FEF7F8F7FAF7FBF7FCF7FD1C
:10063000F7F7F7F900000000704700BFFEE700BFC2
:10064000FEE700BFFEE700BFFEE770477047704758
:10065000704700000CB500200190009076480068BB
:1006600040F480307449086000BF7348006800F4AB
:10067000003000900198401C0190009818B9019832
:10068000B0F5A04FF1D16C48006800F4003010B113
:100690000120009001E0002000900098012846D140
:1006A00065484030006840F0805063494031086040
:1006B0006248006840F44040604908605E48083085
:1006C00000685D49083108600846006840F4004051
:1006D00008600846006840F4A05008605848091FA8
:1006E0000860081F006840F08070091F086000BFA4
:1006F0005148006800F000700028F9D040F2057001
:10070000504908604C480830006820F003004A490E
:10071000083108600846006840F00200086000BF29
:1007200045480830006800F00C000828F8D10CBDDE
:1007300010B54548006840F47000434908603E48E1
:10074000006840F001003C49086000203A49083147
:100750000860394800683D490840374908603C480E
:10076000091D0860081F006820F48020091F086028
:10077000002031490C310860FFF76CFF4FF000603A
:1007800031498039086010BD70B500200022022375
:1007900000240221284D08352D6805F00C0020B1F9
:1007A000042806D0082834D107E02A4D2A4E3560A7
:1007B00033E02A4D284E35602FE01F4D2D1D2D684A
:1007C000C5F380541C4D2D1D2D6805F03F0154B11B
:1007D000224DB5FBF1F5184E361D3668C6F3881666
:1007E00005FB06F209E01B4DB5FBF1F5124E361D77
:1007F0003668C6F3881605FB06F20F4D2D1D2D68D1
:10080000C5F301456D1C6B00B2FBF3F5124E35606C
:1008100003E0104D104E356000BF00BF064D083597
:100820002D68C5F303150E4E705D0B4D2D68C54048
:10083000094E356070BD0000003802400070004075
:1008400008544007003C024088ED00E0FFFFF6FE40
:10085000103000240024F4004004002000127A002C
:1008600044040020032000BF011EA0F10102D0B209
:10087000FAD1704770B504460E4626B10421F948F6
:1008800000F07EFE03E00421F64800F07BFE082124
:10089000F44800F077FE002519E00121F14800F04E
:1008A00071FE04F0800020B10221EE4800F068FEE5
:1008B00003E00221EB4800F065FE0121E94800F069
:1008C0005FFEFFF7CFFF6006040E681CC5B2082D5F
:1008D000E3DB0821E34800F053FE0421E14800F087
:1008E0004FFE70BD10B504461CB90021A620FFF7CD
:1008F000C1FF012C03D10021A720FFF7BBFF10BDD2
:1009000010B504463CB90021C820FFF7B3FF002111
:10091000A120FFF7AFFF012C07D10021C020FFF776
:10092000A9FF0021A020FFF7A5FF10BD10B50021F1
:100930008D20FFF79FFF00211420FFF79BFF002170
:10094000AF20FFF797FF10BD10B500218D20FFF7F6
:1009500091FF00211020FFF78DFF0021AE20FFF74F
:1009600089FF10BD70B5002419E004F1B001C8B2D0
:100970000021FFF77FFF00211020FFF77BFF002100
:100980000220FFF777FF002505E001210020FFF797
:1009900071FF681CC5B2802DF7DB601CC4B2082C47
:1009A000E3DB70BD70B504460D46A01CC4B205F172
:1009B000B001C8B20021FFF75DFF102141EA141019
:1009C0000021FFF757FF04F00F000021FFF752FF4F
:1009D00070BD70B50446002510E029460020FFF7E1
:1009E000E1FF002606E020780121FFF743FF641CA9
:1009F000701CC6B2802EF6DB681CC5B2082DECDB7D
:100A000070BD2DE9F04180460D461446002712E0E6
:100A100029464046FFF7C6FF002606E02078012160
:100A2000FFF728FF641C701CC6B2102EF6DB681C92
:100A3000C5B2781CC7B2022FEADBBDE8F0812DE910
:100A4000F04180460D461446002712E029464046F4
:100A5000FFF7A8FF002606E020780121FFF70AFF34
:100A6000641C701CC6B2082EF6DB681CC5B2781C6C
:100A7000C7B2022FEADBBDE8F0812DE9F04106465E
:100A80000F46144639463046FFF78CFF002506E036
:100A900020780121FFF7EEFE641C681CC5B2062D0C
:100AA000F6DBBDE8F08170B50446002517E00121B2
:100AB0006C4800F067FD04F0800020B10221694815
:100AC00000F05EFD03E00221664800F05BFD600679
:100AD000040E0121634800F053FD681CC5B2082DC7
:100AE000E5DB70BD70B50024002512E001215D48F2
:100AF00000F048FD6006040E10215A4800F026FD63
:100B000008B1601CC4B20121564800F039FD681CD0
:100B1000C5B2082DEADB204670BD2DE9F0478046BE
:100B20000D4616461F46DDF8209020214D4800F066
:100B300029FD0320FFF7B7FF4046FFF7B4FF284623
:100B4000FFF7B1FF3046FFF7AEFF002404E0FFF7E8
:100B5000C9FF3855601CC4B24C45F8DB2021414820
:100B600000F00EFDBDE8F0872DE9F0478EB0064697
:100B70008A4615460024ADE0285DB02837DB285DA5
:100B8000F72834DC601C285CA12830DB285DB038F5
:100B90005E2110FB01F034490860601C285C00F203
:100BA000AD200968084430490860084600684001E3
:100BB000086008460068C0F3074708460088C0F38D
:100BC0000728084690F80090202006AB4A46414688
:100BD00000903846FFF7A1FF06AA51463046FFF7BE
:100BE00010FF06F11000C6B2A01CC4B272E0285D6E
:100BF000A1283BDB285DA32838DC601C285CA128E9
:100C000034DB285DA1385E2110FB01F01649086035
:100C1000601C285CA138096808441349086008462C
:100C200000684001086008460068C0F307470846AE
:100C30000088C0F30728084690F80090202006ABF3
:100C40004A46414600903846FFF767FF06AA5146DC
:100C50003046FFF7D6FE06F11000C6B2A01CC4B2A3
:100C600038E000000000024054040020285D2028E5
:100C70002EDB285D7E282BDC285D2038C3490860E8
:100C8000084600680001086008460068C04908443A
:100C9000BE49086008460068C0F307470846008858
:100CA000C0F30728084690F80090102002AB4A468F
:100CB000414600903846FFF730FF02AA51463046C1
:100CC000FFF7BDFE06F10800C6B2601CC4B201E029
:100CD000601CC4B2285D00283FF74EAF0EB0BDE8DF
:100CE000F0872DE9FE4F80468A461546002433E002
:100CF000285D20282EDB285D7E282BDC285D20380F
:100D0000A249086008460068C000086008460068FC
:100D1000A04908449D49086008460068C0F3074997
:100D200008460088C0F3072608460778082001AB6C
:100D30003A46314600904846FFF7EFFE01AA514679
:100D40004046FFF79AFE08F1060000F0FF08601C1D
:100D5000C4B201E0601CC4B2285D0028C8DCBDE854
:100D6000FE8F2DE9F0472DED028B04468946B0EE4B
:100D7000408A154604EBC5000830C4B29FED860AD0
:100D800028EE000ABCEEC00A10EE108AA4F1180189
:100D9000C8B282A24946FFF7E7FE002656E00A20C5
:100DA000B8FBF0F100FB1187B8FBF0F8A4F10800E4
:100DB000C4B2022E02D1A4F10800C4B20A2F42D25A
:100DC000DFE807F0050B11171D23292F353B74A20F
:100DD00049462046FFF7C8FE35E072A24946204644
:100DE000FFF7C2FE2FE070A249462046FFF7BCFE87
:100DF00029E06EA249462046FFF7B6FE23E06CA22A
:100E000049462046FFF7B0FE1DE06AA2494620464B
:100E1000FFF7AAFE17E068A249462046FFF7A4FEA6
:100E200011E066A249462046FFF79EFE0BE064A251
:100E300049462046FFF798FE05E062A24946204653
:100E4000FFF792FE00BF00BF701CC6B2AE42A6DB29
:100E5000BDEC028BBDE8F0871CB50121084600F00F
:100E6000B1FD2F20009001208DF8040000208DF8A6
:100E7000060003208DF8050001208DF80700694663
:100E8000514800F001FB1020009000208DF8040074
:100E90008DF8060003208DF8050001208DF807006D
:100EA0006946494800F0F0FA3F21474800F068FBE6
:100EB000C82000F00DF90021AE20FFF7DBFC002177
:100EC0000220FFF7D7FC00211020FFF7D3FC002100
:100ED0004020FFF7CFFC0021B020FFF7CBFC002122
:100EE0008120FFF7C7FC0021CF20FFF7C3FC0021C2
:100EF000A120FFF7BFFC0021A620FFF7BBFC0021CB
:100F0000A820FFF7B7FC00213F20FFF7B3FC00212A
:100F1000AD20FFF7AFFC00218B20FFF7ABFC0021D9
:100F20003320FFF7A7FC0021C820FFF7A3FC002116
:100F3000D320FFF79FFC00210846FFF79BFC002110
:100F4000D520FFF797FC00218020FFF793FC0021BC
:100F5000D920FFF78FFC00211F20FFF78BFC002119
:100F6000DA20FFF787FC00211220FFF783FC002125
:100F7000DB20FFF77FFC00214020FFF77BFCFFF721
:100F8000F1FC0021AF20FFF775FC1CBD54040020CC
:100F900080CF0300C0BF03000000C8422E00000045
:100FA000300000003100000032000000330000007B
:100FB000340000003500000036000000370000005B
:100FC0003800000039000000000002401CB501217B
:100FD000202000F0F7FC4FF4C060009001208DF855
:100FE000040000208DF8060003208DF80500012084
:100FF0008DF807006946044800F046FA4FF4C061D6
:10100000014800F0BDFA1CBD0014024010B50446B2
:101010006FF0040000F094F9E11704EB5171C1F393
:10102000C701394A11701046007800EB4001C1EB4E
:10103000C0104FF6FF7101EAC0003449088010BDAE
:101040000146314A12784A434FF0E0235A610022A8
:101050009A611A46126942F001021A6100BF4FF00C
:10106000E022106900F001021AB100F48032002A77
:10107000F5D04FF0E022126922F001024FF0E02398
:101080001A6100229A6170470146204A12884A4339
:101090004FF0E0235A6100229A611A46126942F029
:1010A00001021A6100BF4FF0E022106900F0010256
:1010B0001AB100F48032002AF5D04FF0E022126914
:1010C00022F001024FF0E0231A6100229A6170477A
:1010D00070B504464FF4077094FBF0F0C6B24FF4BD
:1010E000077094FBF0F100FB114085B205E04FF46E
:1010F0000770FFF7C9FF701EC6B2002EF7D115B1F9
:101100002846FFF7C1FF70BD580400205A04002094
:10111000014600BF704700BF4C4A128802F04002EF
:10112000002AF9D0C2B2494B9A80704710B588B0F6
:1011300004460121084600F045FC0121102000F082
:101140009BFC07220921424800F029FA07220A21C4
:101150003F4800F024FA4FF4C060069002208DF85A
:101160001C008DF81D0000208DF81E0001208DF858
:101170001F0006A9364800F087F902940020ADF858
:101180000C00ADF80E00ADF81000ADF814000C2006
:10119000ADF8120002A92D4800F0CFFD01212B4827
:1011A00000F053FE012240F22551284800F003FFD1
:1011B00025208DF8040003208DF805008DF8060029
:1011C00001208DF8070001A800F06DF808B010BDEF
:1011D00010B540F225511D4800F028FF10B31B4800
:1011E00000F062FEC4B21B48008800F40040C8B999
:1011F0001848008800F4804060B10A2C03D0002019
:101200001449088020E01348008840F40040114948
:10121000088019E00D2C06D10E48008840F480406B
:101220000C49088010E00B480088C0F30D000A4903
:101230000C5408480088401C06490880084600886D
:10124000C72801DD0020088010BD0000001001400B
:101250000000024060040020740400200948804718
:1012600009480047FEE7FEE7FEE7FEE7FEE7FEE788
:10127000FEE7FEE7FEE7FEE704480549054A064BA0
:10128000704700003107000889010008A005002010
:10129000A00B0020A0070020A00700203249014336
:1012A000324A1160704770B5002100230F22C478C4
:1012B0001CB32E4C246804F4E064C4F5E064C4F369
:1012C0000721C1F10404E3B20A4144789C40E1B231
:1012D0008478144021430C07210E254C0578615574
:1012E000047804F01F050124AC4005786D11AD00B1
:1012F00005F1E025C5F8004109E0047804F01F0578
:101300000124AC401B4D0678761145F8264070BD8F
:10131000194A0A400243154B1B1F1A60704739B126
:10132000124A121D12680243104B1B1D1A6006E080
:101330000E4A121D126882430C4B1B1D1A60704727
:10134000042808D14FF0E021096941F004014FF071
:10135000E022116107E04FF0E021096921F004016A
:101360004FF0E022116170470000FA050CED00E03B
:1013700000E400E080E100E080FFFF1F10B50446BC
:101380009848844208D10121084600F086FB0021DC
:10139000012000F082FB76E09348844208D10121CD
:1013A000022000F07AFB0021022000F076FB6AE0C8
:1013B0008E48844208D10121042000F06EFB0021F8
:1013C000042000F06AFB5EE08948844208D10121D4
:1013D000082000F062FB0021082000F05EFB52E0D4
:1013E0008448844208D10121102000F056FB0021DE
:1013F000102000F052FB46E07F48844208D10121D2
:10140000202000F04AFB0021202000F046FB3AE0BB
:101410007A48844208D10121402000F03EFB00219F
:10142000402000F03AFB2EE07548844208D10121AB
:10143000802000F032FB0021802000F02EFB22E013
:101440007048844208D10121801500F026FB00215C
:10145000A01500F022FB16E06B48844208D1012160
:10146000401500F01AFB0021601500F016FB0AE0A1
:101470006648844207D10121001500F00EFB0021CF
:10148000201500F00AFB10BDF0B50A46002100232C
:10149000002400BF3DE0012505FA01F3156805EAC7
:1014A00003049C4234D105684F000326BE40B54377
:1014B000056015794E00B54006683543056015791D
:1014C000012D02D01579022D16D185684F00032613
:1014D000BE40B543856055794E00B54086683543BA
:1014E0008560456801268E40B5434560456896791C
:1014F0008E40B6B235434560C5684F000326BE40F6
:10150000B543C560D5794E00B540C6683543C56062
:10151000491C1029BFD3F0BD4FF6FF7101600021B7
:10152000017141718171C171704708B54FF480320A
:101530000092009A0A430092009AC261C161009A27
:10154000C261C2690092C269009208BD02460020D1
:1015500013690B400BB1012000E0002070470146E9
:10156000086980B270470246002053690B400BB1F6
:10157000012000E0002070470146486980B27047B2
:1015800001837047418370470AB1018300E04183C2
:1015900070474161704742694A4042617047F0B507
:1015A000002300244D07ED0E02FA05F3CE1000F1E2
:1015B000200555F826504E07F70E0F26BE40B543BE
:1015C000CF1000F1200646F82750CE1000F120057C
:1015D00055F8265045EA0304CE1000F1200545F8E1
:1015E0002640F0BD00000240000402400008024016
:1015F000000C02400010024000140240001802409B
:10160000001C02400020024000240240002802404A
:10161000F948006840F00100F74908600020F649E9
:1016200008310860F4480068F4490840F24908604D
:10163000F348091D0860F348EF4984310860F04819
:101640001038091D0860EC48006820F48020EA4941
:1016500008600020E8490C310860E7498C310860D7
:1016600070470021E44A921C1170114608707047BF
:1016700010B501460022002300204A11012A02D1A0
:10168000DD4C236808E0022A03D1DB4C7034236868
:1016900002E0D94C7434236801F01F020124944005
:1016A0001C400CB1012000E0002010BD38B5002026
:1016B00000900024002500BF3120FFF7D9FF054628
:1016C0000098401C00900098B0F5A04F01D0002D6C
:1016D000F2D03120FFF7CCFF08B1012400E0002454
:1016E000204638BD01460020C34A106820F0F800AB
:1016F00040EAC10010607047C3490860704700218C
:10170000BD4A703211701170012802D004280AD12C
:1017100004E00121B84A7032117005E00521B64A93
:101720007032117000E000BF00BF7047B749086019
:10173000704770B5049C41EA82150126C6EB53063A
:1017400045EA0645054345EA0465AB4E361D35605E
:1017500070BDAD4908667047820142EA0172A64B2E
:1017600084331A607047A8498866704710B58301B2
:1017700043EA016343EA02739F4C8834236010BD3F
:10178000A14908677047A049C86470470246002015
:10179000994B0833186820F0EC6042EA01031843C3
:1017A000954B08331860704702460020924B08336F
:1017B000186820F0784042EA010318438E4B083342
:1017C00018607047014600208B4A0832106820F0EC
:1017D000030008431060704787480830006800F035
:1017E0000C00704701460020834A0832106820F040
:1017F000F000084310607047014600207E4A08321E
:10180000106820F4E0500843106070470146002043
:10181000794A0832106820F4604040EAC100106044
:101820007047F0B500210022002402250026022383
:10183000714F08373F6807F00C0121B1042905D02A
:10184000082937D105E0724F076036E0714F076015
:1018500033E0694F3F1D3F68C7F38056664F3F1D19
:101860003F6807F03F036EB16A4FB7FBF3F7DFF84D
:1018700088C10CF1040CDCF800C0CCF3881C07FB19
:101880000CF40CE0624FB7FBF3F7DFF86CC10CF11E
:10189000040CDCF800C0CCF3881C07FB0CF4564F9A
:1018A0003F1D3F68C7F301477F1C7D00B4FBF5F780
:1018B000076002E0564F076000BF00BF4E4F083779
:1018C0003F6807F0F0010909534F7A5C0768D74079
:1018D0004760494F08373F6807F4E051890A4E4F87
:1018E0007A5C4768D7408760434F08373F6807F402
:1018F0006041490B484F7A5C4768D740C760F0BDEC
:10190000002100F44072B2F5407F0AD13A4A083211
:10191000116821F4F811414A02401143364A083255
:101920001160354A70321268C0F30B031A43324B10
:1019300070331A607047354944390860704733493D
:1019400040390860704736490860704701460020FA
:10195000294A8C32106820F01F004A1E1043264A84
:101960008C321060704701460020234A8C32106888
:1019700020F4F8504A1E40EA02201F4A8C321060C0
:101980007047014600201C4A8C32106820F4401039
:1019900008431060704701460020174A8C321068D7
:1019A00020F4400008431060704701460020124AAE
:1019B0008C32106820F44030084310607047194999
:1019C0000860704739B10C4A3032126802430A4B42
:1019D00030331A6006E0084A303212688243064B00
:1019E00030331A607047F9B1034A34321268024347
:1019F000014B34331A601CE000380240FFFFF6EA66
:101A0000103000240030002000004742800E474282
:101A10000024F40000127A0062040020FFFCFF0F93
:101A20005C014742E01147428F4A126882438E4B65
:101A30001A60704739B18C4A121D126802438A4BF2
:101A40001B1D1A6006E0884A121D12688243864BED
:101A50001B1D1A60704739B1834A0C321268024369
:101A6000814B0C331A6006E07F4A0C3212688243C5
:101A70007D4B0C331A60704739B17B4A10321268C3
:101A80000243794B10331A6006E0774A103212682D
:101A90008243754B10331A60704739B1724A243A49
:101AA00012680243704B243B1A6006E06E4A243AE7
:101AB000126882436C4B243B1A60704739B16A4A02
:101AC000203A12680243684B203B1A6006E0664ADF
:101AD000203A12688243644B203B1A60704739B148
:101AE000614A1C3A126802435F4B1C3B1A6006E0D5
:101AF0005D4A1C3A126882435B4B1C3B1A6070477C
:101B000039B1594A143A12680243574B143B1A60D0
:101B100006E0554A143A12688243534B143B1A604C
:101B2000704739B1504A103A126802434E4B103B8D
:101B30001A6006E04C4A103A126882434A4B103B46
:101B40001A60704739B1484A1C3212680243464B4A
:101B50001C331A6006E0444A1C3212688243424B2E
:101B60001C331A60704739B13F4A20321268024371
:101B70003D4B20331A6006E03B4A20321268824314
:101B8000394B20331A60704739B1374A2432126812
:101B90000243354B24331A6006E0334A243212687C
:101BA0008243314B24331A60704739B12E4A2C32AC
:101BB000126802432C4B2C331A6006E02A4A2C325E
:101BC00012688243284B2C331A60704739B1264A79
:101BD000303212680243244B30331A6006E0224A46
:101BE000303212688243204B30331A60704701282C
:101BF00008D11D493C31096841F008011A4A3C32BC
:101C0000116007E018493C31096821F00801164AC3
:101C10003C321160704739B1134A273A12780243B7
:101C2000114B273B1A7006E00F4A273A127882437D
:101C30000D4B273B1A7070470B484030006840F04E
:101C40008070094940310860704701460020064A0B
:101C5000283A12680A400AB1012000E000207047CB
:101C600001492639087070473438024010B50446DF
:101C7000FA48844208D101211020FFF752FF0021C9
:101C80001020FFF74EFF57E0F548844209D10121AB
:101C90004804FFF735FF00214FF40030FFF730FF15
:101CA0004AE0F048844209D101218804FFF728FF67
:101CB00000214FF48020FFF723FF3DE0EA488442F3
:101CC00009D10121C804FFF71BFF00214FF40020B8
:101CD000FFF716FF30E0E548844209D101210805ED
:101CE000FFF70EFF00214FF48010FFF709FF23E0FC
:101CF000DF48844208D101212020FFF712FF002194
:101D00002020FFF70EFF17E0DA48844209D10121B5
:101D10008807FFF7F5FE00214FF08040FFF7F0FE47
:101D20000AE0D548844207D101214005FFF7E8FECB
:101D300000216005FFF7E4FE10BD2DE9FF470546D1
:101D40000E460024A14600BFA046B08900B100BFE6
:101D50002C8A24F44054F08804432C82AC8941F24C
:101D60000C608443B0883189084371890843044377
:101D7000AC81AC8A24F44074B0890443AC826846D8
:101D8000FFF74FFDB548854202D0B948854202D1E0
:101D9000DDF80C9001E0DDF80890A88900F400401F
:101DA00040B109EBC90000EB091031684900B0FBF4
:101DB000F1F707E009EBC90000EB09103168890071
:101DC000B0FBF1F76420B7FBF0F0040120096421B7
:101DD00001FB1078A88900F4004040B1322000EBEC
:101DE000C800B0FBF1F000F00700044308E0322027
:101DF00000EB08106421B0FBF1F000F00F00044389
:101E00002C81BDE8FF874FF41651016000218180CD
:101E1000C18001810C21418100218181704710B571
:101E200002460020108A20F470600B884C882343FF
:101E30008C882343CC8823431843108210BD002193
:101E4000018041808180C180704721B1828942F444
:101E50000052828104E082894DF6FF731A4082812C
:101E60007047028B02F47F420283028B0A43028393
:101E7000704721B1828942F40042828103E0828965
:101E8000C2F30E028281704721B1828A42F400625D
:101E9000828204E0828A4FF2FF731A408282704786
:101EA000C1F308028280704701468888C0F30800A9
:101EB0007047028A4FF6F0731A400282028A0A4380
:101EC0000282704721B1828942F00202828104E0DD
:101ED00082894FF6FD731A408281704782894FF2E2
:101EE000FF731A40828182890A4382817047028A85
:101EF0004FF6DF731A400282028A0A430282704759
:101F000021B1028A42F48042028204E0028A4BF646
:101F1000FF731A4002827047818941F0010181817B
:101F2000704721B1828A42F00802828204E0828AEC
:101F30004FF6F7731A4082827047028BD2B2028347
:101F4000028B42EA01220283704721B1828A42F069
:101F50002002828204E0828A4FF6DF731A40828276
:101F6000704721B1828A42F01002828204E0828AA4
:101F70004FF6EF731A4082827047828A4FF6FB73E6
:101F80001A408282828A0A438282704721B1828A01
:101F900042F00202828204E0828A4FF6FD731A4008
:101FA000828270471AB1838A0B43838202E0838A5C
:101FB0008B4383827047F0B503460024002600253A
:101FC000002040F66A17B94200D100BF1846C1F39D
:101FD000421401F01F06012707FA06F5012C01D172
:101FE0000C3004E0022C01D1103000E014301AB1A2
:101FF00007682F43076002E00768AF430760F0BD42
:1020000002460020B1F5007F00D100BF13880B40CD
:102010000BB1012000E00020704701F40072B2F51E
:10202000007F00D100BFCA430280704770B50246EE
:10203000002400230025002040F66A16B14200D19A
:1020400000BFC1F3421501F01F03012606FA03F396
:10205000012D13D19689334017E000000010014094
:102060000044004000480040004C00400050004048
:102070000014014000780040007C0040022D02D195
:10208000168A334001E0968A33400C12012606FA84
:1020900004F41688344013B10CB1012000E0002094
:1020A00070BD10B50022002340F66A14A14200D191
:1020B00000BF0A1201249440A3B2DC43048010BD87
:1020C00070477047704770477047754600F02CF8AE
:1020D000AE4605006946534620F00700854618B015
:1020E00020B5FFF7C9F8BDE820404FF000064FF0DB
:1020F00000074FF000084FF0000B21F00701AC463D
:10210000ACE8C009ACE8C009ACE8C009ACE8C0095B
:102110008D46704710B50446AFF300802046BDE8F9
:102120001040FEF79AB80000004870473C050020B8
:102130004FF04070E1EE100A704700005C2100088B
:102140000000002074040000C40100087822000888
:10215000740400202C070000200200081116060A53
:10216000FE0AC612E012F062F84EFE7DBBC7EF0118
:10217000053EC7BB7DFE300D080CFEFE0C0820603E
:10218000FEFE60208F7848FE82BABA0309135EAA69
:102190000101017E6CFEFF0301CBFFFF0F39BBEC99
:1021A000C0C0C0271918F92701392975990B6CFF90
:1021B000FF0C01491A0C22E1E1E12701396C0F1FE4
:1021C0001801FB1F0F0F092E27013925E2928A867D
:1021D000167C8282827C12FE258292AAC65BC0C0D7
:1021E0001111AD020202FE10190D012B300A24A4B8
:1021F0002E24E4242EA424000A56F84A4C48F84819
:102200004C4AF81CC0201001AB20C00A11300A1241
:102210000A07027F02070A121E0B0A0A0A7F04023B
:10222000560B980A1F2040404050205F800A113012
:102230000EFE8242A29E8A82868AB26202FE1C7FC3
:1022400040400319012909211809808080BFA5A5F4
:10225000A53F041ABF0C1178087F24243F24247F53
:102260000811847A030A0009120102030406070810
:0822700009291A891E00000073
:040000050800018965
:00000001FF
