:020000040800F2
:10000000881F00200501000845070008DD020008E0
:1000100041070008C1010008891000080000000025
:100020000000000000000000000000005909000866
:10003000C501000800000000CD0700085D090008A8
:100040001F0100081F0100081F0100081F01000810
:100050001F0100081F0100081F0100081F01000800
:100060001F0100081F0100081F0100081F010008F0
:100070001F0100081F0100081F0100081F010008E0
:100080001F0100081F0100081F0100081F010008D0
:100090001F0100081F0100081F0100081F010008C0
:1000A0001F0100081F0100081F0100081F010008B0
:1000B0001F0100081F0100081F0100081F010008A0
:1000C0001F0100081F0100081F0100081F01000890
:1000D0001F010008A90A0008E90C0008CD0D00085E
:1000E0001F0100081F0100081F010008DFF810D0E1
:1000F00000F054F800480047491B0008AFF30080A7
:10010000881F00200648804706480047FEE7FEE7B4
:10011000FEE7FEE7FEE7FEE7FEE7FEE7FEE7FEE7B7
:1001200075090008ED00000840EA01039B0703D0B1
:1001300009E008C9121F08C0042AFAD203E011F826
:10014000013B00F8013B521EF9D27047D2B201E0E8
:1001500000F8012B491EFBD270470022F6E710B5CC
:1001600013460A4604461946FFF7F0FF204610BD25
:1001700030B50B46014600202022012409E021FA77
:1001800002F59D4205D303FA02F5491B04FA02F574
:100190002844151EA2F10102F1DC30BD064C074DCA
:1001A00006E0E06840F0010394E807009847103447
:1001B000AC42F6D3FFF79EFFF86D0008186E0008FA
:1001C00000BFFEE770472DE9F041024600250026FA
:1001D000002000230024002791F803C00CF00F0535
:1001E00091F803C00CF0100CBCF1000F03D091F893
:1001F00002C04CEA050591F800C0BCF1000F31D0F7
:10020000146800202BE04FF0010C0CFA00F3B1F859
:1002100000C00CEA03069E4220D183004FF00F0C71
:100220000CFA03F7BC4305FA03FC4CEA040491F80A
:1002300003C0BCF1280F06D14FF0010C0CFA00FCF2
:10024000C2F814C00AE091F803C0BCF1480F05D110
:100250004FF0010C0CFA00FCC2F810C0401C08283A
:10026000D1D31460B1F800C0BCF1FF0F34DD546885
:1002700000202EE000F1080C4FF0010808FA0CF302
:10028000B1F800C00CEA03069E4221D183004FF072
:100290000F0C0CFA03F7BC4305FA03FC4CEA040408
:1002A00091F803C0BCF1280F05D100F1080C08FA41
:1002B0000CF8C2F8148091F803C0BCF1480F07D1C4
:1002C00000F1080C4FF0010808FA0CF8C2F8108091
:1002D000401C0828CED35460BDE8F08100BFFEE783
:1002E0002DE9F05F80460D461646994601F06EFEF8
:1002F0001A4800EB461A00242BE02819103083B26C
:1003000008F1100082B2281981B2404601F034FE93
:100310004FF0000B18E000270EE09AF800000121D2
:10032000B940084018B1484601F012FE02E00A98B0
:1003300001F00EFE781CC7B2082FEEDB0AF1010AAD
:100340000BF1010000F0FF0BBBF1020FE3DB601CBF
:10035000C4B2102CD1DBBDE8F09F0000942100084E
:100360002DE9F04704460D4616461F46DDF820806D
:1003700001F02CFE301B401C791B491C00FB01F9CD
:100380003B4632462946204601F0F6FD02E0404653
:1003900001F0DEFDB9F10000A9F10109F7D1BDE8D6
:1003A000F0872DE9F84F81460D4616461F46DDF8C9
:1003B00028A001F00BFE002000900024804625E0DC
:1003C000E81983B209EB060082B205EB080081B29E
:1003D000484601F0D1FD4FF0000B11E01AF814006F
:1003E000012101EB44011AF8011040EA01200090BC
:1003F000009801F0ADFD641C0BF101001FFA80FBB9
:10040000B345EBDB08F101001FFA80F8B845D7DBF4
:10041000BDE8F88F08B500208C49087088608120FD
:100420004880A020888001F025FB01F0CFFDC82086
:1004300001F0E2F9112001F079FD782001F0DCF9FA
:10044000B12001F073FD052001F038FD3C2001F0E2
:1004500035FD3C2001F032FDB22001F067FD0520A2
:1004600001F02CFD3C2001F029FD3C2001F026FD8F
:10047000B32001F05BFD052001F020FD3C2001F0E0
:100480001DFD3C2001F01AFD052001F017FD3C2068
:1004900001F014FD3C2001F011FDB42001F046FDF7
:1004A000032001F00BFDC02001F040FD282001F0E9
:1004B00005FD082001F002FD042001F0FFFCC12031
:1004C00001F034FDC02001F0F9FCC22001F02EFD46
:1004D0000D2001F0F3FC002001F0F0FCC32001F03E
:1004E00025FD8D2001F0EAFC2A2001F0E7FCC42064
:1004F00001F01CFD8D2001F0E1FCEE2001F0DEFC9E
:10050000C52001F013FD1A2001F0D8FC362001F0BF
:100510000DFDC02001F0D2FCE02001F007FD042019
:1005200001F0CCFC222001F0C9FC072001F0C6FC40
:100530000A2001F0C3FC2E2001F0C0FC302001F0A5
:10054000BDFC252001F0BAFC2A2001F0B7FC2820D0
:1005500001F0B4FC262001F0B1FC2E2001F0AEFC2D
:100560003A2001F0ABFC002001F0A8FC012001F0D2
:10057000A5FC032001F0A2FC132001F09FFCE12068
:1005800001F0D4FC042001F099FC162001F096FC47
:10059000062001F093FC0D2001F090FC2D2001F0CD
:1005A0008DFC262001F08AFC232001F087FC272007
:1005B00001F084FC272001F081FC252001F07EFC65
:1005C0002D2001F07BFC3B2001F078FC002001F0A5
:1005D00075FC012001F072FC042001F06FFC132077
:1005E00001F06CFC2A2001F0A1FC002001F066FC67
:1005F000002001F063FC002001F060FC7F2001F08E
:100600005DFC2B2001F092FC002001F057FC002043
:1006100001F054FC002001F051FC9F2001F04EFC41
:100620003A2001F083FC052001F048FC292001F06C
:100630007DFC0020009005488388428801210846FF
:10064000FFF78EFE01200149087008BD600B0020F5
:100650002DE9FC4706460F4615461C46DDE90A898A
:100660002048007808B9BDE8FC87B2460C2C06D0BB
:10067000102C04D0182C02D0202C00D018242BE0F1
:1006800018484088001BB04202DA5646381987B233
:1006900014488088001BB84200DAE4E728787F28F5
:1006A0000FDACDE900892A7823463946304601F031
:1006B000ADF86D1C204604EBD07106EB61018EB2E3
:1006C0000AE023462A4639463046CDE9008901F042
:1006D00033F9AD1C301986B228780028D0D100BF7C
:1006E000C1E70000600B002008B50121082000F0E0
:1006F0007FF80420ADF8000010208DF803000320DF
:100700008DF8020069460548FFF75DFD04200349A6
:100710001031086002A000F02DFE08BD000C014061
:100720004C454420D6B8CABEB5C620202020202083
:10073000202020202020C5E4D6C3CDEAB3C90D0077
:1007400000BFFEE77047000070B5002100230F22B4
:10075000C47804B3154C246804F4E064C4F5E06480
:10076000210AC1F10403CA40447804FA03F18478F1
:100770001440214309010E4C0678A155047804F079
:100780001F050124AC4005786D11AD0005F1E02591
:10079000C5F8004109E0047804F01F050124AC40CD
:1007A000044D0678761145F8264070BD0CED00E04A
:1007B00000E400E080E100E002490143024A1160E8
:1007C000704700000000FA050CED00E070470000E3
:1007D00029B1064A12690243044B1A6104E0034A34
:1007E00012698243014B1A617047000000100240F9
:1007F00029B1064A92690243044B9A6104E0034A14
:1008000092698243014B9A617047000000100240D8
:1008100029B1064AD2680243044BDA6004E0034A75
:10082000D2688243014BDA6070470000001002403A
:1008300030B500210022002400232D4D6D6805F005
:100840000C0121B1042905D0082923D105E0294D47
:10085000056022E0274D05601FE0254D6D6805F419
:100860007012234D6D6805F48034022505EB924229
:100870001CB9214D554305600BE01D4D6D6805F415
:1008800000351DB11C4D5543056002E0194D55431F
:10089000056002E0174D056000BF00BF144D6D6894
:1008A00005F0F0010909154D6B5C0568DD404560F8
:1008B0000F4D6D6805F4E061090A104D6B5C4568E9
:1008C000DD4085600A4D6D6805F46051C90A0B4D25
:1008D0006B5C4568DD40C560054D6D6805F44041C1
:1008E000890B074D6B5CC568B5FBF3F5056130BD41
:1008F0000010024000127A0000093D003200002082
:100900004200002021B1028842F04002028004E04F
:1009100002884FF6BF731A400280704710B500225C
:10092000028802F441520B884C8823438C8823436D
:10093000CC8823430C8923434C8923438C8923434C
:10094000CC8923431A430280838B4FF2FF742340E8
:1009500083830B8A038210BD704700000448D0E9EE
:1009600000305A1C40F100000149C1E900207047E5
:10097000180000200CB53D48006840F001003B49DC
:100980000860084640683A490840384948600846C7
:10099000406820F4FE0048604FF41F00886000208B
:1009A000019000900846006840F48030086000BF65
:1009B0002E48006800F4003000900198401C01901F
:1009C000009818B90198B0F5A06FF1D127480068D8
:1009D00000F40030002843D02648006840F01000A2
:1009E000244908600846006820F0030008600846B3
:1009F000006840F0020008601C4840681B494860DD
:100A00000846406848600846406840F48060486096
:100A10000846406820F47C1048600846406840F46E
:100A2000E81048600846006840F08070086000BF29
:100A30000E48006800F000700028F9D00B484068AC
:100A400020F00300094948600846406840F0020071
:100A5000486000BF0548406800F00C000828F9D144
:100A60004FF00060044908600CBD00000010024017
:100A70000000FFF80020024008ED00E0084880690F
:100A800040F00100064988610648406820F0E060B7
:100A9000044948600846406840F00070486070476C
:100AA000001002400000014010B52F48008800F0FF
:100AB000200098B12D480088FF2803DD2A48001D3A
:100AC000008810BD2848001D0088C1B22748028850
:100AD0000088401C254B18802548815422480088F6
:100AE00000F01000D0B10020224948804FF48072FD
:100AF0001F492048001DFFF717FB1C4800881D49AF
:100B000048800020194908804FF480711848FFF789
:100B100024FB154800881448001D008812480088EE
:100B200000F08000F0B110480C30008800F0800028
:100B3000C0B1114801780078401C0F4A10700F486E
:100B4000405C0949091D0880104600780C49097865
:100B5000884207D104480C30008820F08000024908
:100B60000C31088000BFACE7003801400C000020C9
:100B70005E08002048000020000000205E050020E4
:100B80000100002010B586B004463648806940F464
:100B90008040344988610846806940F004008861DB
:100BA0004815ADF8140003208DF8160018208DF8B4
:100BB000170005A92C48FFF706FB4FF48060ADF83D
:100BC000140048208DF8170005A92748FFF7FBFA05
:100BD00025208DF8100002208DF811008DF81200EC
:100BE00001208DF8130004A8FFF7AEFD1F4800F0A8
:100BF0006BF900940020ADF80400ADF80600ADF8E4
:100C00000800ADF80C000C20ADF80A006946174842
:100C100000F0CEF9002240F22771144800F0A2F94A
:100C2000012240F22551114800F09CF9012240F2C6
:100C300024410E4800F096F901210C4800F038F9E3
:100C40004FF60F70094908800120094908700020FB
:100C5000488008A000F08EFB16A000F08BFB06B0C9
:100C600010BD0000001002400008014000380140A3
:100C7000480000200D0D0D3D3D3D3D3D3D3D3D3DC0
:100C80003D3D20C4A7C5AEBFAAB7A2B0E5205354CE
:100C90004D33324631303320CDE2C9E8B3F5CABC1A
:100CA000B1A8B8E6203D3D3D3D3D3D3D3D3D3D3D8E
:100CB0000D000000555341525431B3F5CABCBBAFCF
:100CC000C5E4D6C3202020202020BDD3CAD5D6D04D
:100CD000B6CFA1A2BFD5CFD0D6D0B6CF2C20B7A249
:100CE000CBCDD6D0B6CF0D0010B53048008800F07F
:100CF000200098B12E480088FF2803DD2B48001DF6
:100D0000008810BD2948001D0088C1B2284802880B
:100D10000088401C264B18802648815423480088B0
:100D200000F01000D8B100202349A1F806014FF4CB
:100D3000807220492148FFF7F7F91D4800881E49B5
:100D4000A1F8060100201A4908804FF48071194863
:100D5000FFF703FA154800881448001D008813485F
:100D6000008800F08000F0B110480C30008800F0DE
:100D70008000C0B1124801780078401C104A107001
:100D80001048405C0949091D0880104600780E494A
:100D90000978884207D105480C30008820F080008F
:100DA00002490C31088000BFABE70000004400405E
:100DB000100000205E0900204800002050010020A3
:100DC000020000205E0600200300002010B530481D
:100DD000008800F0200098B12E480088FF2803DD2D
:100DE0002B48001D008810BD2948001D0088C1B295
:100DF000284802880088401C264B188026488154C9
:100E00002348008800F01000D8B100202349A1F841
:100E10000A024FF4807220492148FFF785F91D48E6
:100E200000881E49A1F80A0200201A4908804FF4E0
:100E300080711948FFF791F9154800881448001D82
:100E400000881348008800F08000F0B110480C3092
:100E5000008800F08000C0B1124801780078401C82
:100E6000104A10701048405C0949091D088010465E
:100E700000780E490978884207D105480C3000886F
:100E800020F0800002490C31088000BFABE7000071
:100E900000480040120000205E0A002048000020A8
:100EA00054020020040000205E07002005000020FE
:100EB00021B1828942F40052828104E082894DF698
:100EC000FF731A408281704710B50446204884425F
:100ED00009D101218803FFF79BFC00214FF48040DA
:100EE000FFF796FC32E01B48844209D101214804F7
:100EF000FFF76EFC00214FF40030FFF769FC25E09E
:100F00001548844209D101218804FFF761FC0021C2
:100F10004FF48020FFF75CFC18E01048844209D1B0
:100F20000121C804FFF754FC00214FF40020FFF713
:100F30004FFC0BE00A48844208D101210805FFF765
:100F400047FC00214FF48010FFF742FC10BD000069
:100F5000003801400044004000480040004C004080
:100F600000500040F0B50346002400260025002074
:100F700040F66A17B94200D100BF1846C1F34214C7
:100F800001F01F06012707FA06F5012C01D10C30EC
:100F900004E0022C01D1103000E014301AB10768CF
:100FA0002F43076002E00768AF430760F0BD000011
:100FB0002DE9F04786B005460E460024A24600BF44
:100FC000A1460027B08900B100BF2F462C8A4CF6FD
:100FD000FF700440F08804432C82AC894EF6F31075
:100FE0000440B08831890843718908430443AC81C7
:100FF000AC8A4FF6FF400440B0890443AC8201A89C
:10100000FFF716FC1F48874202D1DDF810A001E06F
:10101000DDF80CA0A88900F4004040B10AEBCA003A
:1010200000EB0A1031684900B0FBF1F807E00AEB69
:10103000CA0000EB0A1031688900B0FBF1F86420A7
:10104000B8FBF0F004012009642101FB1089A88994
:1010500000F4004040B1322000EBC900B0FBF1F0D9
:1010600000F00700044308E0322000EB091064217F
:10107000B0FBF1F000F00F0004432C8106B0BDE896
:10108000F08700000038014000BFFEE708B50020EF
:101090001A490870012008761948806940F4805088
:1010A0001749886101211020FFF7A2FB01210420CC
:1010B000FFF79EFB4FF40050ADF8000010208DF8B4
:1010C000030003208DF8020069460E48FFF77BF805
:1010D0004FF400500B490861E020ADF800001820E3
:1010E0008DF8030069460848FFF76DF800F09CFF93
:1010F00000F0CEFD00F018FB08BD00006C0B0020D6
:101100000010024000100140000801402DE9F041AC
:1011100004460E4617461448007808B9BDE8F08129
:1011200000F082FF4FF0005010490861032000F0EA
:10113000D7FEC4F3074000F0D3FEC4F3072000F04D
:10114000CFFEE0B200F0CCFE002504E0FF2000F06E
:10115000C7FE70556D1CBD42F8D34FF400500349D3
:10116000086100BFDAE700006C0B002000100140AE
:101170002DE9F04782460C4690462046E21704EBE4
:101180005272D2102146E31704EB5373DB10A4EB29
:10119000C3030BB1012300E000231A44624302F0B1
:1011A000FF099AF800600AF1010082460578812E55
:1011B00005DB402D03DBFF2D01D0FF2E0AD10020DF
:1011C00004E0002108F8011B411CC8B24845F8DBC7
:1011D000BDE8F0877F2D03DAA5F14000C5B202E03B
:1011E000A5F14100C5B2A6F18100C6B2BE2000FB48
:1011F000065000FB09F70C2C06D0102C0BD0182C35
:1012000012D0202C22D118E04A46414607F5200092
:10121000FFF77CFF1AE04A46414607F520000D4BD8
:101220001844FFF773FF11E04A46414607F52000D6
:10123000094B1844FFF76AFF08E04A46414607F5A4
:101240002000064B1844FFF761FF00BF00BF00BF3E
:10125000BEE7000060C40800E074140000C22E0065
:101260002DE9F0470746884614462748007808B914
:10127000BDE8F0873819B0F5200F07D92248007E65
:10128000012803D121A000F075F8F1E73E0BC7F368
:101290000B09C9F58055DFF8A8A000F0C5FEAC42E7
:1012A00000DC25462BE030034FF480525146FFF717
:1012B0002DFF304600F0A6FB002007E018F80010D4
:1012C00009EB00020AF80210411C88B2A842F5DBC3
:1012D00030034FF48052514600F018FFA54200D170
:1012E0000EE0A844761C4FF00009601B84B2B4F5F0
:1012F000805F02DD4FF4805000E020460546D2E7D3
:1013000000BF00BFB4E700006C0B0020D2AAD0B42D
:10131000C8EBB5C4CAFDBEDDD4DAD7D6BFE2CAFD7C
:10132000BEDDB4E6B4A2C7F8C4DAA3ACD2D1CCF81F
:10133000B9FDB1BEB4CEB2D9D7F721210D0000005E
:10134000860B002010B54FF00050094908610520B8
:1013500000F0C6FD00BFFF2000F0C2FD00F001005C
:101360000028F8D14FF400500149086110BD000079
:10137000001001400FB4054B10B503A9044A0298B0
:1013800000F02CF810BC5DF814FB0000591A00089E
:10139000080000200FB4084B10B504A902AA039856
:1013A00000F01CF8044602A9002000F0B8F920461D
:1013B00010BC5DF814FB00001F17000802E008C80D
:1013C000121F08C1002AFAD170477047002001E0BF
:1013D00001C1121F002AFBD1704700002DE9FF4F09
:1013E0008BB088460546002606E025280BD0DDE9AF
:1013F0000D1290476D1C761C28780028F5D10FB08F
:101400003046BDE8F08F0024A146A2460122AE4935
:1014100000E0044315F8013F203B02FA03F00842C4
:10142000F7D128782A2810D06FF02F022878A0F161
:101430003001092915D809EB890102EB410144F07B
:10144000020400EB01096D1CF0E758F8041B5FEA89
:10145000010903D544F40054C9F1000944F0020421
:101460006D1C28782E2817D115F8010F44F00404BC
:101470002A280ED06FF02F022878A0F13001092918
:101480000AD80AEB8A0102EB410100EB010A6D1C4C
:10149000F2E758F804AB6D1C28786C280FD006DCF6
:1014A0004C2817D068280DD06A2814D104E074287D
:1014B00010D07A280FD10DE044F400140AE044F46F
:1014C000801401E044F440146978814202D104F5AB
:1014D00080146D1C6D1C2878692865D006DC0028F6
:1014E0008DD0632827D0642806D15DE06E2808D00F
:1014F00073282AD0752877D0DDE90D129047761C25
:10150000E0E0C4F30250022809D003280DD0D8F837
:10151000001004280DD00E6008F10408D2E0D8F8BD
:101520000010F217C1E90062F6E7D8F800100E804B
:10153000F2E70E70F0E718F8041B8DF80010002099
:101540008DF80100EB46012003E058F804BB4FF092
:10155000FF3061074FF0000701D40AE07F1C5745B8
:101560000DDA8742FADB1BF807100029F6D106E0F6
:101570007F1C8742FCDB1BF807100029F8D1DDE94E
:101580000D23A9EB07008146214600F0B1F8304455
:10159000C61904E0DDE90D121BF8010B90477F1E10
:1015A000F8D22146484688E058F8040BC4F30251AB
:1015B0004FF00A0B032900D100B2042900D140B238
:1015C000002802DA40422D2102E0210505D52B2119
:1015D0008DF82410012104E006E0E10710D020215D
:1015E000F6E708AF089113E058F8040BC4F3025172
:1015F0004FF00A0B032900D180B2042900D1C0B2F8
:101600000021EEE75946FEF7B3FD303107F8011D22
:101610000028F7D1ADEB070000F1200B600702D5E1
:1016200024F4803401E04FF0010ADA4502DDAAEB30
:101630000B0000E00020824600EB0B0108980144FB
:10164000A9EB01000A90E00306D4DDE90D23214651
:101650000A9800F04DF806444FF0000908E009A987
:1016600011F80900DDE90D12904709F10109761C16
:1016700008998945F3DBE0030CD5DDE90D2321460C
:101680000A9800F035F8064404E0DDE90D12302038
:101690009047761CBAF10001AAF1010AF5DC05E0D9
:1016A000DDE90D1217F8010B9047761CBBF1000124
:1016B000ABF1010BF4DC0A982146DDE90D2300F0C3
:1016C00005F806446D1C97E6092801002DE9F04154
:1016D000044600251E461746880404D405E0394612
:1016E0002020B0476D1C641EF9D52846BDE8F08166
:1016F0002DE9F041044600251E469046C80301D559
:10170000302700E02027880404D505E0414638460C
:10171000B0476D1C641EF9D52846BDE8F0810A6803
:10172000531C0B601070704738B51748007800B92B
:1017300038BD16A0FFF71EFE0024002000900025F3
:101740000BE005F5200001226946FFF7DFFC9DF85C
:1017500000002044C4B21348054413488542F0D326
:10176000922C01D1012000E00020074908760846AC
:10177000007E012803D10DA0FFF7FCFD02E00EA0C2
:10178000FFF7F8FD00BFD3E76C0B002047424BD7B3
:10179000D6BFE220B2E2CAD42E2E2E202020202056
:1017A0002020000040420F0000845D00D7D6BFE239
:1017B000BFC9D3C30D00000020B4EDCEF3A3ACD756
:1017C000D6BFE2B2BBBFC9D3C3210D0001B500989B
:1017D000C0EBC000009000E000BF0098401E0090E9
:1017E0000028F9D108BD42F62E014843002100E04F
:1017F000491C8142FCD3704741F6641148430021E3
:1018000000E0491C8142FCD3704700002DE9F84FED
:1018100080460F4615461C4600F0D8FB414800782C
:1018200008B9BDE8F88FB9462046E31704EB5373B7
:10183000DB102146E61704EB5676F610A4EBC6063D
:101840000EB1012600E000263344224604EBD27696
:101850007610734303F0FF0BA5F12000C5B20026FC
:101860005BE00C2C07D105EB45002F4901EB800014
:1018700010F806A01AE0102C05D12C4800EB05103A
:1018800010F806A012E0182C07D105EBC500284976
:1018900001EB800010F806A008E0202C05D12548B7
:1018A00000EB851010F806A000E0BAE700200090D9
:1018B0002DE00AF0800030B10A9882B239464046E5
:1018C00000F091F805E00B9882B23946404600F0EE
:1018D0008AF84FEA4A604FEA106A781C87B21148CA
:1018E0008088B84200DC9CE7A7EB0900A0420AD13F
:1018F0004F4608F101001FFA80F80A484088404529
:1019000000DC8EE706E00098401CC0B20090009812
:101910000828CEDB00BF701CC6B25E45A1DB00BF4D
:101920007FE70000600B002056220008CA2600084E
:10193000BA2C0008163A00082DE9F04FA1B007466E
:101940000D4690461C46A9462046E21704EB52720B
:10195000D2102146E31704EB5373DB10A4EBC3034F
:101960000BB1012300E000231A44624302F0FF0A96
:101970006A4621464046FFF7FBFB00F027FB0026A6
:101980002CE01DF8060020904FF0000B20E020987E
:1019900000F0800028B1294638462A9A00F023F842
:1019A00004E0294638462B9A00F01DF8209840069E
:1019B000000E2090681C85B2A5EB0900A04203D15F
:1019C0004D46781C87B206E00BF1010000F0FF0BDA
:1019D000BBF1080FDBDB00BF701CC6B25645D0DB85
:1019E00021B0BDE8F08F70B504460D4616462B4673
:1019F00022462946204600F0BFFA304600F0A8FAF9
:101A000070BD000010B504461148007800B910BD43
:101A1000240300F06BFBFFF795FC4FF000500D49DD
:101A20000861202000F05CFAC4F3074000F058FA87
:101A3000C4F3072000F054FAE0B200F051FA4FF47A
:101A4000005004490861FFF77DFC00BFDFE700009C
:101A50006C0B00200010014000BF054A128802F004
:101A60004002002AF9D0C2B2014B1B1D1A807047F8
:101A70000038014008B53048806940F001002E4927
:101A800088612E48406820F0E0602C494860084694
:101A9000406840F00070486001211C20FEF7A8FE5D
:101AA0002020ADF8000018208DF8030003208DF8E9
:101AB000020069462248FEF786FB8020ADF8000050
:101AC00003208DF8020018208DF8030069461C4899
:101AD000FEF779FB1020ADF8000003208DF802001E
:101AE00010208DF8030069461648FEF76CFB0820AD
:101AF000ADF8000003208DF8020010208DF80300DF
:101B000069461048FEF75FFB4FF40040ADF8000057
:101B100003208DF8020010208DF803006946084864
:101B2000FEF751FB08200749103108600003044903
:101B30001031086008BD00000010024000000140A4
:101B400000080140000C01401CB54FF4A060FEF7F6
:101B500033FEFEF793FF4FF4E130FFF713F8FEF783
:101B6000C3FD4248006840F4802040490860FFF708
:101B70008DFAFEF74FFC0020A0237F220146009043
:101B8000FEF7EEFB00204FF6E071182338A2CDE9F6
:101B900000100A211220FEF75BFD00204FF6FF71B6
:101BA000102336A2CDE9001028210820FEF750FDB1
:101BB0004FF6FF7000230222412100902320FEF700
:101BC0008FFB4FF478404FF6FF73032241210090C2
:101BD0003320FEF785FB4FF4FC60002304224121F3
:101BE00000904320FEF77CFB1F204FF6FF73052279
:101BF000412100905320FEF773FB24483C231A46F2
:101C0000642100902820FEF7CCFB4FF6FF700823DC
:101C10001A46012100900846FEF7A2FB4FF47840D7
:101C200008238122012100907920FEF799FB4FF4CF
:101C3000FC60A0230822982100900120FEF790FB71
:101C40001F20A0238122982100907920FEF788FB95
:101C50000BE04FF4FA70FFF7C6FD0448001F006860
:101C600080F004000149091F0860F2E7100C0140F0
:101C7000D7DBBACFB2E2CAD40000000053544D33D0
:101C8000322D46313033433854360000D6510008E7
:101C9000F8B500254FF0005052490861902000F03F
:101CA0001FF9002000F01CF9002000F019F90020B5
:101CB00000F016F9FF2000F013F90502FF2000F0F4
:101CC0000FF905434FF40050464908610120464989
:101CD0000870A5F56F401438052827D2DFE800F01A
:101CE000030A11181F0041A242A13F48401CFFF700
:101CF00051FB29E040A23FA13B48401CFFF74AFBB3
:101D000022E03FA23BA13848401CFFF743FB1BE009
:101D10003DA238A13448401CFFF73CFB14E03CA234
:101D200034A13148401CFFF735FB0DE03AA231A148
:101D30002D48401CFFF72EFB00202B490870294638
:101D40003AA0FFF717FB00BF00BF27480078012823
:101D500040D100260020009000270024042269467C
:101D60003046FFF7D3F99DF801009DF8001040EAD6
:101D700001279DF803009DF8021040EA0124B7F501
:101D80006E4F07D0012400208DF8020001208DF84D
:101D900003000CE0601C84B220128DF80200E0B257
:101DA0008DF8030000208DF802008DF80300EE206E
:101DB0008DF8000000208DF80100042269463046AD
:101DC000FFF74EFA0848C4822246411C1EA0FFF7C6
:101DD000D1FA05E027A0FFF7CDFA33A0FFF7CAFA42
:101DE000F8BD0000001001406C0B00205732355147
:101DF0003136000025730000573235513332000070
:101E000057323551363400005732355131323800AF
:101E10005732355132353600466C617368C9E8B1C6
:101E2000B8CAA7B0DC20212121000000B6C1C8A19A
:101E3000B5BDB5C4B4EDCEF3D0CDBAC5CAFDBEDDD7
:101E4000A3BA25640D0A0000466C617368B4E6B459
:101E5000A220BCECB2E22E2E2E2020202020D0CDBD
:101E6000BAC53A2573202CB5DA2564B4CECAB9D3E5
:101E7000C30D0000CAFDBEDDB4E6B4A2BCECB2E204
:101E8000A3BA2020202020202020D0CDBAC5B6C162
:101E9000C8A1B4EDCEF3A3ACC9E8B1B8B2BBBFC919
:101EA000D3C3210D00000000B3A2CAD4B8B4CEBB86
:101EB000D0BEC6AC2E2E2E2E2E2E0D0010B50446F2
:101EC0004FF400200549086010200860204600F00B
:101ED000D7F808200149086010BD0000100C01402F
:101EE0000246002105E0481CC1B2FA2901DD0020AC
:101EF00070470D48008900F002000028F3D00A481E
:101F00008281002105E0481CC1B2FA2901DD0020D0
:101F1000EEE70548008900F001000028F3D00248F0
:101F20008089C0B2E4E700000030014010B50446EB
:101F30004FF400200549086040000860E0B200F05E
:101F40009FF808200149086010BD0000100C0140F6
:101F500010B504464FF400200649086010200860C0
:101F6000201200F08DF8E0B200F08AF80820014954
:101F7000086010BD100C01402DE9F04104460D46EB
:101F800016461F462A20FFF7D1FF0020FFF796FFD5
:101F9000E0B2FFF793FF0020FFF790FFF0B2FFF7EA
:101FA0008DFF2B20FFF7C2FF0020FFF787FFE8B26D
:101FB000FFF784FF0020FFF781FFF8B2FFF77EFFF5
:101FC0002C20FFF7B3FFBDE8F081000000B585B01D
:101FD00001210803FEF70CFC0020ADF800004FF4CF
:101FE0008270ADF802000020ADF804000220ADF8C8
:101FF00006000120ADF808004002ADF80A000020FC
:10200000ADF80C00ADF80E000720ADF810006946E1
:102010000448FEF783FC01210248FEF773FC05B07B
:1020200000BD00000030014010B5012013490880B8
:102030000846008840F0020008800846008840F00A
:102040000400088008460088088008460088088048
:102050000846008840F4007008800846008840F474
:10206000807008800846008808800846008840F094
:10207000400008800A20FFF7A9FB10BD0030014096
:1020800001460020174A10800BE016480088401CCB
:10209000144A108010460088B0F5FA7F01DD002058
:1020A00070471148008900F002000028EDD00E486A
:1020B000818100200B4A10800AE00A480088401CF9
:1020C000084A108010460088FA2801DD0020E7E762
:1020D0000548008900F001000028EED00248808900
:1020E000C0B2DDE7140000200030014010B54FF011
:1020F0000050054908610620FFF7F2FE4FF400503A
:102100000149086110BD0000001001402DE9F047B1
:1021100004460E4691461D48007808B9BDE8F08790
:102120004FF480754FF000082AE0FFF7DFFFFFF75C
:1021300009F94FF00050164908610220FFF7D0FE60
:10214000C4F30740FFF7CCFEC4F30720FFF7C8FE37
:10215000E0B2FFF7C5FE002704E0F05DFFF7C0FE28
:10216000781C87B2AF42F8DB4FF400500849086191
:10217000FFF7E8F82E442C4408F1010000F0FF08B6
:10218000B8F1100FD1DB00BFC8E700006C0B0020D6
:1021900000100140800080008000FC1F40004000D3
:1021A000FF7F20001000F00F000800046002800193
:1021B00000020004000104020800E83F01020202DC
:1021C00002020802C83F04020702040204020402D9
:1021D000F47F00000000F80F08080808F80F08084E
:1021E0000808F80F2002222224222812280A20029E
:1021F000FF7F00000000FC1F000000000000000046
:10220000FF7F800080008808881084208240814001
:10221000A0004000400080008000FF7F20002000E0
:102220002000E00F200820082008100810080808E7
:10223000040502028000FE3F02202000FF7F100400
:102240007802C0033C1C8000FF7FA00290048C1821
:10225000836080000000000000000000000000001B
:102260000000000000003F400000000000000000EF
:102270003000400030004000000009000BC03D006D
:102280000BC03D00090018C024407FE0224031808F
:102290000000180024C01B000D8032400180038024
:1022A0001C4027401C8007400040100060000000D8
:1022B0000000000000000000000000001F8020401F
:1022C00040200000402020401F8000000000090046
:1022D00006001F80060009000000040004003F8083
:1022E0000400040000000010006000000000000076
:1022F00000000400040004000400040000000000CA
:1023000000400000000000000000002001C00600A6
:102310003800400000001F802040204020401F80E7
:102320000000000010403FC000400000000018C046
:1023300021402240244018400000108020402440CA
:1023400024401B80000002000D0011003FC001402E
:1023500000003C80244024402440238000001F8053
:10236000244024403440038000003000200027C077
:102370003800200000001B802440244024401B80A3
:1023800000001C0022C0224022401F8000000000EC
:102390000000084000000000000000000000046091
:1023A000000000000000000004000A00110020806E
:1023B0004040090009000900090009000000000070
:1023C0004040208011000A00040018002000234033
:1023D0002400180000001F802040274029401F4093
:1023E0000000004007C039000F0001C0004020403D
:1023F0003FC0244024401B8000001F80204020401C
:1024000020403080000020403FC0204020401F80FE
:10241000000020403FC024402E4030C0000020403B
:102420003FC024402E00300000000F0010802040EC
:1024300022403380020020403FC0040004003FC01F
:102440002040204020403FC020402040000000604D
:10245000202020203FC02000200020403FC02440FA
:102460000B0030C0204020403FC0204000400040D2
:1024700000C03FC03C0003C03C003FC00000204003
:102480003FC00C4023003FC020001F802040204060
:1024900020401F80000020403FC02440240018003E
:1024A00000001F802140214020E01FA000002040AC
:1024B0003FC02440260019C0004018C024402440DA
:1024C000224031800000300020403FC020403000DA
:1024D000000020003F80004000403F80200020009E
:1024E0003E0001C0070038002000380007C03C0053
:1024F00007C038000000204039C0060039C0204025
:1025000000002000384007C0384020000000304064
:1025100021C02640384020C00000000000007FE0BD
:10252000402040200000000070000C0003800040AC
:1025300000000000402040207FE00000000000007C
:1025400020004000200000000000001000100010DB
:10255000001000100010000000004000000000000B
:102560000000000002800540054003C0004020003C
:102570003FC004400440038000000000038004408A
:1025800004400640000000000380044024403FC097
:1025900000400000038005400540034000000000AB
:1025A00004401FC0244024402000000002E00550E9
:1025B00005500650042020403FC00440040003C0E2
:1025C00000400000044027C0004000000000001050
:1025D0000010041027E00000000020403FC0014030
:1025E000070004C00440204020403FC0004000409D
:1025F000000007C0040007C0040003C0000004403E
:1026000007C00440040003C00040000003800440F1
:10261000044003800000041007F0045004400380CD
:102620000000000003800440045007F00010044044
:1026300007C00240040004000000000006400540FE
:10264000054004C00000000004001F80044000405A
:102650000000040007800040044007C00040040060
:10266000070004C0018006000400060001C0070046
:1026700001C006000000044006C0010006C004407E
:1026800000000410071004E00180060004000000B0
:10269000044005C0064004400000000000000400A3
:1026A0007BE040200000000000000000FFF0000080
:1026B0000000000040207BE004000000000040001B
:1026C00080004000200020004000000000000000CA
:1026D00000000000000000000000000000000000FA
:1026E0001FCC000C000000000000000008003000BB
:1026F00060000800300060000000022003FC1E2083
:10270000022003FC1E200220000000000E1811040D
:102710003FFF10840C78000000000F0010840F3879
:1027200000C0077818840078000000780F8410C477
:1027300011240E9800E4008400080800680070006E
:102740000000000000000000000000000000000089
:1027500007E0181820044002000000004002200496
:10276000181807E00000000000000240024001804D
:102770000FF00180024002400000008000800080D5
:102780000FF800800080008000000001000D000EA6
:102790000000000000000000000000000080008039
:1027A000008000800080008000800000000C000C91
:1027B00000000000000000000000000000060018FB
:1027C00000600180060018002000000007F00808E3
:1027D00010041004080807F00000000008040804B2
:1027E0001FFC000400040000000000000E0C101488
:1027F0001024104411840E0C000000000C1810046A
:102800001104110412880C700000000000E0032085
:10281000042408241FFC0024000000001F981084DA
:1028200011041104108810700000000007F00888DF
:102830001104110418880070000000001C00100032
:1028400010FC13001C001000000000000E381144A2
:102850001084108411440E38000000000700088C1A
:1028600010441044088807F0000000000000000039
:10287000030C030C00000000000000000000000139
:102880000106000000000000000000000080014080
:102890000220041008081004000002200220022078
:1028A000022002200220022000000000100408087C
:1028B0000410022001400080000000000E00120001
:1028C000100C106C10800F00000003E00C1813E4D3
:1028D000142417C4082807D000000004003C03C4D7
:1028E0001C40074000E4001C000410041FFC1104FD
:1028F000110411040E880070000003E00C1810048D
:102900001004100410081C10000010041FFC100418
:1029100010041004080807F0000010041FFC110444
:10292000110417C410040818000010041FFC11043F
:10293000110017C010000800000003E00C1810047C
:10294000100410441C780040000010041FFC108488
:102950000080008010841FFC10040000100410048C
:102960001FFC10041004000000000003000110010F
:1029700010011FFE10001000000010041FFC1104C5
:1029800003801464181C1004000010041FFC1004C1
:10299000000400040004000C000010041FFC1F00D1
:1029A00000FC1F001FFC1004000010041FFC0C049E
:1029B000030000E010181FFC100007F008081004C6
:1029C00010041004080807F0000010041FFC108415
:1029D0001080108010800F00000007F008181024ED
:1029E0001024101C080A07F2000010041FFC110438
:1029F000110011C011300E0C000400000E1C110457
:102A00001084108410441C380000180010001004BA
:102A10001FFC100410001800000010001FF8100424
:102A20000004000410041FF8100010001E0011E044
:102A3000001C007013801C0010001FC0103C00E040
:102A40001F0000E0103C1FC000001004180C1634DA
:102A500001C001C01634180C100410001C0013042F
:102A600000FC13041C00100000000804101C10647B
:102A7000108413041C041018000000000000000063
:102A80007FFE4002400240020000000030000C00C7
:102A900003800060001C00030000000040024002B0
:102AA00040027FFE00000000000000000000200047
:102AB0004000400040002000000000010001000133
:102AC0000001000100010001000100004000400081
:102AD0002000000000000000000000000098012419
:102AE00001440144014400FC000410001FFC008864
:102AF00001040104008800700000000000700088DC
:102B00000104010401040088000000000070008836
:102B10000104010411081FFC0004000000F8014436
:102B200001440144014400C8000000000104010404
:102B30000FFC1104110411001800000000D6012937
:102B40000129012901C90106000010041FFC0084AD
:102B500001000100010400FC00040000010419044C
:102B600019FC000400040000000000000003000144
:102B70000101190119FE0000000010041FFC0024CF
:102B8000004001B4010C0104000000001004100416
:102B90001FFC0004000400000000010401FC01040B
:102BA000010001FC0104010000FC010401FC00849F
:102BB00001000100010400FC0004000000F8010411
:102BC00001040104010400F80000010101FF008577
:102BD00001040104008800700000000000700088FB
:102BE00001040104010501FF00010104010401FCCD
:102BF00000840104010001800000000000CC0124D9
:102C000001240124012401980000000001000100BA
:102C100007F80104010400000000010001F80004AD
:102C200000040004010801FC00040100018001709F
:102C3000000C001001600180010001F0010C003067
:102C400001C00030010C01F0010000000104018C02
:102C500000740170018C0104000001010181017107
:102C6000000E001801600180010000000184010CC9
:102C7000013401440184010C000000000000000048
:102C8000000001003EFC4002400200000000000085
:102C90000000FFFF000000000000000040024002B2
:102CA0003EFC010000000000000000006000800009
:102CB00080004000400020002000000000000000D4
:102CC0000000000000000000000000000000000004
:102CD00000000000000000000000000000000000F4
:102CE000000000000000000000000000000F80381D
:102CF0000FFE380F803800000000000000000000C8
:102D000000000000000000000100000600000C00B0
:102D1000003800003100000600000C000038000000
:102D20003000000000000000000061800067F8072C
:102D3000F98000618000618000618000618000672F
:102D4000F807F9800061800000000000000000002A
:102D500001C0E003E0F00630080418081FFFFE047D
:102D60000E080787F00381E000000000000001F07A
:102D700000060C00040408060C7001F9C0000E00E7
:102D8000003BE000EC18070808040C180003E00002
:102D900000000001E00007F003F818041C08041705
:102DA0000807E1D003C0E00023B0003C0800200881
:102DB000000010000000000000010000310000329F
:102DC00000001C00000000000000000000000000E7
:102DD00000000000000000000000000000000000F3
:102DE000000000000000000000007F0001FFC0079D
:102DF00080F00C0018100004200002000000000009
:102E0000002000021000040C00180780F001FFC031
:102E1000007F000000000000000000000000000033
:102E20000000000000004200006600006600003C58
:102E30000000180003FFC0001800003C00006600FE
:102E400000660000420000000000080000080000CA
:102E5000080000080000080001FFC000080000088A
:102E60000000080000080000080000000000000149
:102E700000003100003200001C00000000000000D3
:102E80000000000000000000000000000000000042
:102E9000000008000008000008000008000008000A
:102EA00000080000080000080000080000080000FA
:102EB00000000000000000000000380000380000A2
:102EC00038000000000000000000000000000000CA
:102ED00000000000000000000000000600001C00D0
:102EE0000070000180000E0000380000C0000700E4
:102EF000001C0000300000000000000000007F8087
:102F000001FFE003807006001804000804000806B2
:102F1000001803807001FFE0007F800000000000C7
:102F20000000000001000801000801000803FFF88C
:102F300007FFF8000008000008000008000000007B
:102F4000000000000001C03802C0580400980401CD
:102F500018040218040418061C1803F81801E0F8F5
:102F600000000000000000000001C0E003C0F00409
:102F7000000804080804080806180803F41801E704
:102F8000F00001E00000000000000000000003006D
:102F9000000D000011000061000081080301080716
:102FA000FFF80FFFF8000108000108000000000012
:102FB000000000E007FCD00608080610080610080C
:102FC000061008061838060FF00607C000000000BB
:102FD0000000000000003F8001FFE0038430020891
:102FE00018041008041008041008071810030FF044
:102FF0000007C000000000000000000003C0000740
:1030000000000600000600F80607F806180006E0B3
:103010000007000006000000000000000001E1E0E1
:1030200003F7F0063410041808041808040C080408
:103030000C0806161803F3F001C1E00000000000C0
:103040000000F80003FC30030638040208040208FC
:103050000402080404100308F001FFC0007F000010
:103060000000000000000000000000000000000060
:103070000000703800703800703800000000000058
:103080000000000000000000000000000000000040
:10309000000000000000301A00301C00000000009A
:1030A0000000000000000000000000000000000020
:1030B0000008000014000022000041000080800190
:1030C000004002002004001008000800000000007A
:1030D000000021000021000021000021000021004B
:1030E000002100002100002100002100002100003B
:1030F00000000000000000000800080400100200AA
:1031000020010040008080004100002200001400E7
:1031100000080000000000000003C00004C000041C
:103120000000080038080F380808380810000C3074
:103130000007E00003C000000000000000003F8026
:1031400000FFE0038070020F1006708804C088043E
:103150008308047F8802C09003012000FE40000025
:10316000080000180001F8003E0801C20007020034
:1031700007E20000FE00001FC80001F80000380050
:10318000000804000807FFF807FFF804080804080F
:103190000804080804080806180803F41801E7F0F2
:1031A0000001E0000000000000003F8001FFE0039C
:1031B00080700200180400080400080400080400DD
:1031C000100600200780C000000004000807FFF878
:1031D00007FFF804000804000804000804001802AF
:1031E000001003807001FFE0007F800000000400F9
:1031F0000807FFF807FFF80408080408080408088F
:10320000040808043E0804000806001801006000D5
:10321000000004000807FFF807FFF8040808040886
:1032200000040800040800043E0006000006000038
:10323000018000000000000000003F8001FFE0036B
:103240008070060018040008040208040208020343
:10325000F00783F000020000020004000807FFF8F6
:1032600007FFF80408080008000008000008000034
:10327000080004080807FFF807FFF804000800002A
:103280000000000004000804000804000807FFF81C
:1032900007FFF8040008040008040008000000000C
:1032A000000000000000000600000700000104000C
:1032B0000104000104000307FFFE07FFFC040000F7
:1032C00004000004000004000807FFF807FFF804EA
:1032D0000C08001800003E0004C7800503C8060063
:1032E000F804003804001800000804000807FFF87C
:1032F00007FFF804000800000800000800000800AC
:103300000008000008000018000060000000040031
:103310000807FFF807800807FC00007FC00003F8DB
:103320000007C000780007800807FFF807FFF804CF
:10333000000804000807FFF807000803C00000E0C9
:1033400000003800001E000007000001C00400F06B
:1033500007FFF8040000000000007F8001FFE00389
:103360008070060018040008040008060018030016
:103370003001FFE0007F8000000004000807FFF834
:1033800007FFF80404080404000404000404000413
:103390000400060C0003F80001F00000000000002B
:1033A00000007F8001FFE003807006008804008831
:1033B0000400C806003C03003E01FFE6007F8400D5
:1033C000000004000807FFF807FFF80408080408D5
:1033D00000040C00040F00040BC00610F003F038CA
:1033E00001E00800000800000001E0F803F03006EA
:1033F0003010041808041808040C08040C0802060D
:10340000180207F00781E0000000018000060000BC
:1034100004000004000004000807FFF807FFF80498
:103420000008040000040000060000018000040001
:103430000007FFE007FFF004001800000800000884
:1034400000000800000800000804001007FFE00466
:10345000000004000006000007E00007FE00041F53
:10346000E00001F80000380001E0043E0007C00061
:1034700006000004000004000007E00007FFC0048D
:103480001FF80007C007F80007FF80043FF8000797
:10349000C004F80007000004000000000004000859
:1034A00006001807C07805F1C8003E00001F800420
:1034B00063E80780F8060018040008000000040014
:1034C0000006000007800007E008047C08001FF8E1
:1034D0000007F800180804E00807000006000004D0
:1034E00000000000000100080600380400F8040392
:1034F000E8040F08047C0805F00807C00807001856
:103500000400600000000000000000000000000057
:1035100000000000003FFFFE20000220000220000B
:103520000220000220000200000000000000000055
:1035300008000007000000C000003800000600007E
:1035400001C000003000000E00000100000000007B
:1035500000000000200002200002200002200002E3
:103560002000023FFFFE00000000000000000000FD
:103570000000000000000000000000080000100033
:1035800000300000200000300000100000080000A3
:103590000000000000000000010000010000010028
:1035A0000001000001000001000001000001000016
:1035B0000100000100000100000100000000000007
:1035C000000000200000200000100000100000009B
:1035D00000000000000000000000000000000000EB
:1035E000000000F00019F8001B180022080026084F
:1035F000002408002410003FF8001FF80000080015
:10360000001800000004000007FFF80FFFF000188A
:1036100018001008002008002008003018001FF0D3
:10362000000FC00000000000000007C0001FF000F5
:103630001830002008002008002008003C08001C6A
:10364000100000600000000000000000000007C043
:10365000001FF0003818002008002008002008048F
:10366000101007FFF80FFFF000001000000000002E
:10367000000000000007C0001FF0001230002218F8
:10368000002208002208003208001E10000E200050
:10369000000000000000200000200800200801FFBA
:1036A000F803FFF80620080420080420080720007B
:1036B00003000000000000000000000E000E6E007D
:1036C0001FF30031B10020B10020B1003191001F83
:1036D00013002E1E00200E00300000000004000821
:1036E00007FFF80FFFF8001008002000002000007E
:1036F0002008003FF8001FF800000800000000004C
:1037000000000000002008002008002008063FF804
:10371000063FF80000080000080000080000000054
:103720000000000000000000000003000003002073
:1037300001002001002003063FFE063FFC000000C0
:1037400000000000000000000004000807FFF80F60
:10375000FFF8000188000300002FC00038F80020A7
:1037600038002008000008000000000000000000F1
:1037700004000804000804000807FFF80FFFF80021
:103780000008000008000008000000000000002001
:1037900008003FF8003FF8001008002000003FF844
:1037A000003FF8001008002000003FF8003FF8003C
:1037B0000008000000002008003FF8003FF800105B
:1037C00008001000002000002008003FF8001FF84B
:1037D0000000080000000000000007C0000FF0001B
:1037E00018300030080020080020080030080018B9
:1037F00030000FF00007C0000000000000002001B2
:10380000003FFF003FFF00101100200900200800CA
:103810002008003038001FF0000FC000000000003A
:10382000000007C0001FF000381800200800200822
:10383000002009001011001FFF003FFF00000100E1
:103840000000002008002008002008003FF8003F8A
:10385000F8000808001008002008002000003000D0
:10386000003000000000000000000000000C7800A4
:103870001E180033080023080021080021880021B9
:10388000980030F0003860000000000000002000C8
:1038900000200000200000FFF003FFF800200800D7
:1038A0002008002008000030000000000000000098
:1038B00000002000003FF0007FF800001800000822
:1038C000000008002010003FF8007FF0000010000A
:1038D0000000000000002000003000003C00003F1D
:1038E000800023F0000078000070002380003C007E
:1038F000003000002000002000003C00003FE000FD
:1039000023F80000E0002700003E00003FE0002117
:10391000F80001E0003E0000200000000000200848
:10392000002008003838003E680027800003C800E7
:103930002CF8003838002018002008000000000093
:1039400000002000003003003C01003F830023EC16
:10395000000070002380003C0000200000200000D8
:10396000000000000000000000380800203800209F
:10397000F80023E8002F88003E08003808002018CF
:1039800000007000000000000000000000000000C7
:1039900000000000000008000014001FF7FC3000C9
:1039A00006200002000000000000000000000000EF
:1039B000000000000000000000000000FFFFFF000A
:1039C00000000000000000000000000000000000F7
:1039D000000000002000023000061FF7FC00140069
:1039E00000080000000000000000000000000000CF
:1039F00000000000001800006000004000004000CF
:103A00000020000010000008000004000004000076
:103A10000C0000100000000000000000000000008A
:103A20000000000000000000000000000000000096
:103A30000000000000000000000000000000000086
:103A40000000000000000000000000000000000076
:103A50000000000000000000000000000000000066
:103A6000000000000000000000000000000007F05F
:103A700000C007FFE1E007F001E0000000C0000027
:103A80000000000000000000000000000000000036
:103A90000000000000000000000000000000002006
:103AA000000001C00000078000001F0000001E0091
:103AB00000001C20000001C00000078000001F0063
:103AC00000001E0000001C000000000000000000BC
:103AD0000000000000000000000000180C000018AA
:103AE0000C0000180FE0001FFC0003F80C00001889
:103AF0000C0000180C0000180C0000180C00001836
:103B00000FE0001FFC0003F80C0000180C00001868
:103B10000C00000000000000000000000000000099
:103B20000780007807C000FC0640010E0020030754
:103B30000020020380200FFFFFFC0201C0200200D2
:103B4000E0600130704001F03F8000F01F00000095
:103B500000000000000000FE000001FF0000030163
:103B6000800002008060030181C001FF070000FEA9
:103B700018000000E0000003BF00000CFFC000714F
:103B8000806001C10020030180600000FFC00000D0
:103B90003F000000000000001F0000007FC000FC8C
:103BA000C0C001FF80600303E0200202782002060B
:103BB0001E2003FC074001F00380000103C0000148
:103BC0001C600001E0200001002000010040000016
:103BD00001800000000000000000002000001C60C8
:103BE00000001C4000001F8000000F0000000000CB
:103BF00000000000000000000000000000000000C5
:103C000000000000000000000000000000000000B4
:103C100000000000000000000000000000000000A4
:103C20000000000000000000000000000000000094
:103C300000000007F800003FFF00007807C001C047
:103C400000E0030000300400000808000004100039
:103C50000002000000000000000010000002080048
:103C60000004040000080300003001C000E00078F8
:103C700007C0003FFF000007F80000000000000040
:103C80000000000000000000000000000000000034
:103C90000000000000000000000000000000000C18
:103CA0001800000E3800000E380000063000000337
:103CB00060000061438000FFFF800061430000035B
:103CC000600000063000000E3800000E3800000CC6
:103CD00018000000000000000000000000000000CC
:103CE00080000000800000008000000080000000D4
:103CF000800000008000007FFF00000080000000C6
:103D000080000000800000008000000080000000B3
:103D10008000000000000000000000000001000022
:103D200000E3000000E2000000FC0000007800005A
:103D30000000000000000000000000000000000083
:103D40000000000000000000000000000000000073
:103D500000000000000000000000000080000000E3
:103D60008000000080000000800000008000000053
:103D70008000000080000000800000008000000043
:103D80008000000080000000800000008000000033
:103D900080000000000000000000000000000000A3
:103DA00000C0000001E0000001E0000000C00000D1
:103DB0000000000000000000000000000000000003
:103DC00000000000000000000000000000000000F3
:103DD000000000000000000000000000000C0000D7
:103DE0000038000000E00000038000000E0000002A
:103DF00038000000E00000038000000E00000038E2
:103E0000000000E00000038000000E000000180029
:103E10000000000000000000000000000000000F93
:103E2000F800007FFF0000F00780018000C0030061
:103E300000600200002002000020020000200300B9
:103E40000060018000C000E00380007FFF00000FE1
:103E5000F80000000000000000000000000000006A
:103E600000000080002000800020008000200080F2
:103E7000006001FFFFE003FFFFE0000000600000C2
:103E800000200000002000000020000000000000D2
:103E900000000000000000000000000000000078AA
:103EA00000E000980160010002600200046002006E
:103EB0000860020010600200206002004060030001
:103EC00080600183006001FE00E0007C078000004C
:103ED000000000000000000000000000000000F0F2
:103EE000078001F007C0010000400200002002012D
:103EF000002002010020020100200303802001862F
:103F0000804001FCC0C000787F8000001E000000DF
:103F10000000000000000000000000000800000099
:103F20003800000048000001880000060800000C6E
:103F30000810003008100040081001FFFFF003FFD8
:103F4000FFF003FFFFF00000081000000810000061
:103F50000810000000000000000000000000000049
:103F60000780001F864003E10020030200200304B5
:103F700000200304002003040020030400200306A3
:103F80000040030301C00301FF8003007E00000026
:103F9000000000000000000000000000000000071A
:103FA000FC00003FFF000070C380008180C0010161
:103FB0000060030200200202002002020020020230
:103FC00000200203004001C180C000C0FF8000004B
:103FD0007E0000000000000000000000000000F073
:103FE000000003C000000380000003000000030085
:103FF00007E003003FE00301C000030600000318D0
:1040000000000360000003800000030000000000C7
:104010000000000000000000000000001F00007809
:104020003F8000FC60C0018EC04003078020020377
:10403000002002018020020180200201C020030133
:10404000E040018670C000FC3F8000781F00000047
:1040500000000000000000000000003F000000FF22
:1040600081C001C0C1C00100602002002020020008
:1040700020200200202002002060020040C0010039
:10408000C18000C18F00007FFE00001FF000000013
:104090000000000000000000000000000000000020
:1040A000000000000000000000000000000000030D
:1040B00000C0000781E0000781E0000300C00000AD
:1040C00000000000000000000000000000000000F0
:1040D00000000000000000000000000000000000E0
:1040E00000000000000000000000000000000006CA
:1040F00000660006007800000000000000000000DC
:1041000000000000000000000000000000000000AF
:10411000000000000000000000000000000000009F
:1041200080000001C0000003600000063000000CA9
:10413000180000180C00003006000060030000C0EA
:104140000180010000400200002004000010000077
:104150000000000000000000000000041000000447
:1041600010000004100000041000000410000004FF
:1041700010000004100000041000000410000004EF
:1041800010000004100000041000000410000004DF
:10419000100000000000000000000000000004000B
:1041A0000010020000200100004000C001800060FB
:1041B00003000030060000180C00000C1800000678
:1041C0003000000360000001C0000000800000001B
:1041D0000000000000000000000000000000007867
:1041E000000001F800000238000002000000040096
:1041F00000C0040079E0040081E0040100C0040371
:104200000000020200000306000001FC000000F8AC
:1042100000000000000000000000000FF800003F58
:10422000FE000070078000C000C00101F8400307D5
:10423000FC20021E04200230082002203020023F11
:10424000FC20013F044001800CC000E03180001FD1
:10425000C20000000000000000200000006000001C
:1042600003E000003E200003E020003E200003E0C9
:1042700020000380200007FC2000003FE000000336
:10428000FE2000003FE0000001E0000000200000F0
:1042900000200000000000000000020000200200DA
:1042A000002003FFFFE003FFFFE002010020020106
:1042B000002002010020020100200201002003036F
:1042C00000200186806001FCC0C000F87F800000F3
:1042D0001F0000000000000000000007F800003F81
:1042E000FF000070078000C000C001000040030014
:1042F0000020020000200200002002000020020036
:10430000002001000040018000C003C00180003097
:104310000600000000000000000002000020020073
:10432000002003FFFFE003FFFFE002000020020087
:1043300000200200002002000020030000600100B5
:104340000040018000C000F00780007FFE00000FE9
:10435000F800000000000000000002000020020041
:10436000002003FFFFE003FFFFE002010020020145
:1043700000200201002002010020020100200203AF
:104380008020020FE0200300006003C000E0006016
:1043900003000000000000000000020000200200F6
:1043A000002003FFFFE003FFFFE002010020020105
:1043B00000200201000002010000020100000201D1
:1043C000000002038000030FE0000300000003C0B0
:1043D000000000600000000000000007F800003F3F
:1043E000FE000070078001C001C001000040030012
:1043F0000020020000200200002002000020010036
:1044000020200100204003C03F8000303F8000009A
:10441000200000002000020000200200002003FF16
:10442000FFE003FFFFE00200802002008020000088
:104430008000000080000000800002008020020058
:10444000802003FFFFE003FFFFE0020000200200E6
:10445000002000000000000000000000000000003C
:1044600000000200002002000020020000200200E4
:10447000002003FFFFE003FFFFE002000020020036
:1044800000200200002002000020000000000000C8
:10449000000000000000000000000000000E00000E
:1044A000000F0000000F00000001020000010200E8
:1044B0000001020000030200000603FFFFFC03FFEF
:1044C000FFF80200000002000000020000000200ED
:1044D00000000000000000000000020000200200B8
:1044E000002003FFFFE003FFFFE00200C020020105
:1044F000002000078000000FE0000030F80002609C
:104500003E2003800F20030003E0020000E00200D1
:104510000020000000200000000002000020020037
:10452000002003FFFFE003FFFFE002000020020085
:1045300000200000002000000020000000200000FB
:1045400000200000002000000060000000E00000EB
:10455000030000000000020000200200002003FF12
:10456000FFE003E0002003FF0020001FF000000137
:10457000FF8000000FE000001E000003E000003E8E
:10458000002003E0002003FFFFE003FFFFE0020044
:10459000002002000020020000200200002003FF93
:1045A000FFE00380002003F0002000FC0000001F5B
:1045B00000000007C0000001F00000007C000200C5
:1045C0001F80020007E003FFFFE00200000002007E
:1045D00000000000000000000000000FF800003F95
:1045E000FE0000F00780018000C0010000400200D2
:1045F0000020020000200200002002000020010034
:104600000040018000C000F00380003FFE00000F6A
:10461000F80000000000000000000200002002007E
:10462000002003FFFFE003FFFFE002008020020004
:104630008020020080000200800002008000020052
:104640008000030180000183000000FE0000007C68
:1046500000000000000000000000000FF800007FD4
:10466000FF0000F00380018001C00100064002004D
:1046700004200200042002000620020003E00100E2
:1046800000F80180005C00E0038C003FFF0C000F8D
:10469000FC180000000000000000020000200200E2
:1046A000002003FFFFE003FFFFE002010020020102
:1046B0000020020180000201E0000201FC0003036F
:1046C0003F80018607E001FC00E000F800200000C8
:1046D0000020000000000000000000000000007842
:1046E000060000FE01E0018600C003030040020353
:1046F000002002018020020180200201C02002006F
:10470000C0200100E060018070C003E03F80000035
:104710001F00000000000000000000600000038097
:104720000000030000000200000002000020020060
:10473000002003FFFFE003FFFFE002000020020073
:10474000002002000000020000000380000000E0E2
:10475000000000000000020000000200000003FF53
:10476000FF0003FFFFC002000040020000600000E5
:1047700000200000002000000020000000200200B7
:1047800000400200008003FFFF0002000000020062
:104790000000000000000000000002000000020015
:1047A000000003C0000003FC0000023FC000000343
:1047B000F80000007F80000007E000000780000094
:1047C00078000203C000023C000003C000000200A9
:1047D0000000020000000200000003C0000003FF10
:1047E0008000023FFE0002007FE000000F00020098
:1047F000F00003EF000003FF8000020FFE00000046
:104800003FE000001F000207E00003F80000030083
:104810000000020000000000000002000020020072
:104820000020038000E003F0032002FC0C20021FA4
:1048300030000007C0000007F00002187C00026092
:104840001F20038003E0020000E0020000200000BF
:104850000020000000000000000002000000030033
:10486000000003C0000003F80000023E0020020F19
:10487000C0200001FFE000007FE000038020021C58
:10488000002002700000038000000200000002000F
:104890000000000000000000000000000020006098
:1048A00000E0038003E003000FA002003E200200AE
:1048B000F8200203E020020F8020023E0020027850
:1048C000002003E00060038000E00200030000001D
:1048D00000000000000000000000000000000000D8
:1048E00000000000000000000000000000001FFFAA
:1048F000FFFC100000041000000410000004100071
:104900000004100000041000000410000004000067
:104910000000000000000000000000000000000097
:1049200000000700000003C0000000780000001E27
:1049300000000003C0000000F00000001E000000A6
:104940000780000000F00000003C000000060000AE
:104950000000000000000000000000000000100047
:1049600000041000000410000004100000041000F7
:10497000000410000004100000041FFFFFFC0000F2
:104980000000000000000000000000000000000027
:104990000000000000000000000000000000000017
:1049A00000000000000002000000040000000800F9
:1049B000000018000000100000001800000018009F
:1049C00000000400000002000000000000000000E1
:1049D00000000000000000000001000000010000D5
:1049E00000010000000100000001000000010000C3
:1049F00000010000000100000001000000010000B3
:104A000000010000000100000001000000010000A2
:104A10000001000000010000000000000000000094
:104A2000000010000000100000001000000018003E
:104A3000000008000000040000000000000000006A
:104A40000000000000000000000000000000000066
:104A500000000000000000000000000003800001D2
:104A60008FC000038C600006182000041020000492
:104A700010200004202000042040000620400003F5
:104A8000FFC00001FFE00000002000000020000047
:104A900000C0000000000000000002000000020052
:104AA000000003FFFFE007FFFFC0000180C000021D
:104AB0000060000200200004002000040020000428
:104AC000002000060040000300C00001FF8000003D
:104AD000FE000000000000000000000000000000D8
:104AE0007E000001FF80000381C00002004000063C
:104AF0000020000400200004002000040020000624
:104B000000200003C0400001C0800000030000003E
:104B10000000000000000000000000000000000095
:104B20007E000001FF80000380C0000600600004DA
:104B300000200004002000040020020400400202C3
:104B4000008003FFFFE007FFFFC0000000400000FF
:104B50000040000000000000000000000000000015
:104B60007E000001FF80000311C00002104000041D
:104B70001060000410200004102000041020000623
:104B80001020000310400001F0C000007100000080
:104B90000000000000000000000000000000000411
:104BA0000000000400200004002000040020007F1A
:104BB000FFE001FFFFE001040020030400200204E5
:104BC000002002040020020400000200000001C0D6
:104BD000000001C000000000000000000000000014
:104BE000001C0000E33E0003FFC200020CC30004EF
:104BF00004C1000404C1000404C1000404C100068F
:104C00000CC10003F8C30005F0620006007E000638
:104C1000003C000000000000000002000020020034
:104C2000002003FFFFE007FFFFE00001002000027B
:104C30000020000600000004000000040000000442
:104C40000020000600200003FFE00001FFE000005C
:104C50000020000000200000000000000000000014
:104C600000000004002000040020000400200004D4
:104C700000200387FFE0038FFFE003800020000097
:104C800000200000002000000020000000000000C4
:104C90000000000000000000000000000000000014
:104CA00000000000000600000007000000010000F6
:104CB00000010004000100040001000400030004DE
:104CC00000060387FFFC038FFFF80380000000004D
:104CD00000000000000000000000020000200200B0
:104CE000002003FFFFE007FFFFE0000008200000B6
:104CF0001020000030000000FC0000058E000007BE
:104D000007A0000601E0000400E00004002000000D
:104D10000020000000000000000000000000000073
:104D2000000002000020020000200200002002001B
:104D3000002003FFFFE007FFFFE00000002000006D
:104D40000020000000200000002000000000000003
:104D50000000000000000000000000040020000728
:104D6000FFE0000FFFE0000200200004000000044C
:104D700000200007FFE00003FFE000020020000425
:104D80000000000400200007FFE00003FFE0000037
:104D900000200000000000000000000400200004CB
:104DA00000200007FFE0000FFFE0000100200002EC
:104DB00000200002000000040000000400000004C5
:104DC0000020000600200003FFE00001FFE00000DB
:104DD0000020000000200000000000000000000093
:104DE0007E000000FF80000381C00002004000063A
:104DF0000020000400200004002000040020000621
:104E0000002000020040000381C00001FF8000007C
:104E10007E0000000000000000000004000100040B
:104E200000010007FFFF000FFFFF000100C10002AB
:104E300000410004002000040020000400200004C1
:104E4000002000060040000301C00001FF800000B8
:104E50007E000000000000000000000000000000D4
:104E60007E000001FF80000380C00002006000049B
:104E700000200004002000040020000400200002A4
:104E80000041000300C10003FFFF0007FFFF000017
:104E900000010000000100000000000400200004E8
:104EA00000200004002000040020000FFFE0000F9D
:104EB000FFE00000C02000010020000200200006EA
:104EC00000200004000000040000000700000003B0
:104ED00000000000000000000000000000000000D2
:104EE00003E00001C0E00003E040000630200004C1
:104EF00030200004182000041820000418200004AA
:104F00000C2000020C60000307C000078380000033
:104F1000000000000000000000000000000000048D
:104F200000000004000000040000000C0000001F4E
:104F3000FF8000FFFFC000040060000400200004A8
:104F40000020000400200004004000000180000058
:104F50000000000000000000000000040000000449
:104F600000000007FF80000FFFC00000006000008D
:104F700000200000002000000020000000200004AD
:104F80000040000400800007FFE0000FFFC00000A9
:104F90000040000000400000000000040000000489
:104FA0000000000780000007F0000004FE0000047D
:104FB0001FC0000003E00000038000001C0000048C
:104FC00060000007800000060000000400000000F0
:104FD00000000000000000040000000600000007C0
:104FE000C0000007FC0000043F80000003E0000454
:104FF0000F800006F0000007F0000007FF800004AB
:105000000FE00000038000043C000007C000000621
:105010000000000400000000000000000020000468
:10502000002000040060000700E000078320000764
:10503000E6000004F80000003C0000045E200005CB
:1050400087A0000601E000040060000400200000CA
:105050000020000000000000000000040000000428
:105060000003000700030007E0010004F80100044A
:105070001F02000007FC000000E000000700000421
:1050800038000007C0000006000000040000000413
:105090000000000000000000000000000000000709
:1050A0008060000600E0000403E0000407A00004A4
:1050B0000E2000043C20000470200005E0200007C2
:1050C000802000070060000400E000000380000072
:1050D00000000000000000000000000000000000D0
:1050E00000000000000000000000000000000000C0
:1050F000000000008000000080000001400007FE6A
:105100003FF8080000041000000210000002000038
:10511000000000000000000000000000000000008F
:10512000000000000000000000000000000000007F
:10513000000000000000FFFFFFFF00000000000073
:10514000000000000000000000000000000000005F
:10515000000000000000000000000000000010003F
:105160000002100000020800000407FE3FF80001E2
:1051700040000000800000008000000000000000EF
:10518000000000000000000000000000000000001F
:1051900000000000000000000000180000003000C7
:1051A000000040000000400000004000000020001F
:1051B00000003000000008000000040000000200B1
:1051C000000002000000020000000C0000001800B7
:1051D00000000000000000000000000000000000CF
:1051E00000000000000000000000000000000000BF
:1051F00000000000000000000000000000000000AF
:10520000000000000000000000000000000000009E
:1054F0000000000000000000000000000000FFFFAE
:10550000000000000000000000000000000000009B
:10551000000000000000000000000000000000008B
:10552000000000000000000000000000000000007B
:10553000000000000000000000000000000000006B
:10554000000000000000000000000000000000005B
:10555000000000000000000000000000000000004B
:10556000000000000000000000000000000000003B
:10557000000000000000FFFF00000000000000002D
:10558000000000000000000000000000000000001B
:10559000000000000000000000000000000000000B
:1055A00000000000000000000000000000000000FB
:1055B00000000000000000000000000000000000EB
:1055C00000000000000000000000000000000000DB
:1055D00000000000000000000000000000000000CB
:1055E0000000000000000000000000000000FFFFBD
:1055F000FFFF0000000000000000000000000000AD
:10560000000000000000000000000000000000009A
:10561000000000000000000000000000000000008A
:10562000000000000000000000000000000000007A
:10563000000000000000FFFFFFFFFFFFFFFFFFFF74
:10564000FFFF694A000000000000000000000000A9
:10565000000000000000000000000000000000004A
:10566000000000000000FFFFFFFFFFFF0000000040
:10567000000000000000000000000000000000002A
:10568000000000000000000000000000000000001A
:10569000000000000000000000000000000000000A
:1056A000000000000000FFFFFFFFFFFFFFFFFFFF04
:1056B000FFFFFFFFFFFFFFFFFFFFFFFFFFFFFFFFFA
:1056C000FFFFF7BD00000000000000000000000028
:1056D0000000000000000000000000000000FFFFCC
:1056E000FFFFFFFF000000000000000000000000BE
:1056F00000000000000000000000000000000000AA
:105700000000000000000000000000000000000099
:1057100000000000000000000000FFFFFFFFFFFF8F
:10572000FFFFFFFFFFFFFFFFFFFFFFFFFFFFFFFF89
:10573000FFFFFFFFFFFFFFFFFFFFFFFFFFFFFFFF79
:105740000000000000000000000000000000000059
:10575000000000000000FFFFFFFFFFFFFFFFFFFF53
:10576000FFFFFFFF0000000000000000000000003D
:105770000000000000000000000000000000000029
:105780000000000000000000000000000000FFFF1B
:10579000FFFFFFFFFFFFFFFFFFFFFFFFFFFFFFFF19
:1057A000FFFFFFFFFFFFFFFFFFFFFFFFFFFFFFFF09
:1057B000FFFFFFFFFFFFFFFFFFFFFFFF00000000F5
:1057C00000000000000000000000D39CFFFFFFFF6E
:1057D000FFFFFFFFFFFFFFFF0000000000000000D1
:1057E00000000000000000000000000000000000B9
:1057F00000000000000000000000000000000000A9
:105800000000FFFFFFFFFFFFFFFFFFFFFFFFFFFFA6
:10581000FFFFFFFFFFFFFFFFFFFFFFFFFFFFFFFF98
:10582000FFFFFFFFFFFFFFFFFFFFFFFFFFFFFFFF88
:10583000FFFFFFFFFFFF000000000000000000006E
:10584000FFFFFFFFFFFFFFFFFFFFFFFFFFFF000066
:105850000000000000000000000000000000000048
:105860000000000000000000000000000000000038
:105870000000000000000000FFFFFFFFFFFFFFFF30
:10588000FFFFFFFFFFFFFFFFFFFFFFFFFFFFFFFF28
:10589000FFFFFFFFFFFFFFFFFFFFFFFFFFFFFFFF18
:1058A000FFFFFFFFFFFFFFFFFFFFFFFFFFFFFFFF08
:1058B000FFFFFFFFFFFFFFFFFFFFFFFFFFFFFFFFF8
:1058C000FFFFFFFFFFFFD39C00000000000000006F
:1058D00000000000000000000000000000000000C8
:1058E0000000000000000000000000000000FFFFBA
:1058F000FFFFFFFFFFFFFFFFFFFFFFFFFFFFFFFFB8
:10590000FFFFFFFFFFFFFFFFFFFFFFFFFFFFFFFFA7
:10591000FFFFFFFFFFFFFFFFFFFFFFFFFFFFFFFF97
:10592000FFFFFFFFFFFFFFFF00000000FFFFFFFF83
:10593000FFFFFFFFFFFFFFFFFFFFFFFFFFFF000075
:105940000000000000000000000000000000000057
:105950000000000000000000000000000000000047
:1059600000000000FFFFFFFFFFFFFFFFFFFFFFFF43
:10597000FFFFFFFFFFFFFFFFFFFFFFFFFFFFFFFF37
:10598000FFFFFFFFFFFFFFFFFFFFFFFFFFFFFFFF27
:10599000FFFFFFFFFFFFFFFFFFFFFFFFFFFFFFFF17
:1059A000FFFF00000000FFFFFFFFFFFFFFFFFFFF03
:1059B000FFFFFFFFFFFF00000000000000000000ED
:1059C00000000000000000000000000000000000D7
:1059D00000000000000000000000FFFFFFFFFFFFCD
:1059E000FFFFFFFFFFFFFFFFFFFFFFFFFFFFFFFFC7
:1059F000FFFFFFFFFFFFFFFFFFFFFFFFFFFFFFFFB7
:105A0000FFFFFFFFFFFFFFFFFFFFFFFFFFFFFFFFA6
:105A1000FFFFFFFFFFFFFFFFFFFFFFFFFFFFFFFF96
:105A20006D6BFFFFFFFFFFFFFFFFFFFF00000000A8
:105A30000000000000000000000000000000000066
:105A40000000000000000000000000000000000056
:105A5000FFFFFFFFFFFFFFFFFFFFFFFFFFFFFFFF56
:105A6000FFFFFFFFFFFFFFFFFFFFFFFF0000000042
:105A7000000000000000000000000000FFFFFFFF2A
:105A8000FFFFFFFFFFFFFFFFFFFFFFFFFFFFFFFF26
:105A9000FFFFFFFFFFFF00005DEFFFFFFFFFFFFFC6
:105AA00000000000000000000000000000000000F6
:105AB00000000000000000000000000000000000E6
:105AC000000000000000FFFFFFFFFFFFFFFFFFFFE0
:105AD000FFFFFFFFFFFFFFFFFFFFFFFFFFFFFFFFD6
:105AE000FFFF0000000000000000000000000000B8
:105AF00000000000000000000000000000000000A6
:105B0000EB5AFFFFFFFF0000000000000000000054
:105B10000000FFFFFFFFFFFF00000000000000008B
:105B20000000000000000000000000000000000075
:105B30000000000000000000000000000000FFFF67
:105B4000FFFFFFFFFFFFFFFFFFFFFFFFFFFFFFFF65
:105B5000FFFFFFFFFFFFFFFF00000000000000004D
:105B60000000000000000000000000000000000035
:105B70000000000000000000000000000000000025
:105B8000000000000000000000000000FFFFFFFF19
:105B90000000000000000000000000000000000005
:105BA00000000000000000000000000000000000F5
:105BB00000000000FFFFFFFFFFFFFFFFFFFFFFFFF1
:105BC000FFFFFFFFFFFFFFFFFFFFFFFFFFFF0000E3
:105BD00000000000000000000000000000000000C5
:105BE00000000000000000000000000000000000B5
:105BF00000000000000000000000000000000000A5
:105C000000000000FFFFFFFF000000000000000098
:105C10000000000000000000000000000000000084
:105C2000000000000000000000000000FFFFFFFF78
:105C3000FFFFFFFFFFFFFFFFFFFFFFFFFFFFFFFF74
:105C4000FFFFFFFFBEF700000000000000000000A3
:105C50000000FFFFFFFFFFFF00000000000000004A
:105C60000000000000000000000000000000000034
:105C70000000000000000000000000000000FFFF26
:105C80000000000000000000000000000000000014
:105C90000000000000000000000000000000000004
:105CA0000000FFFFFFFFFFFFFFFFFFFFFFFFFFFF02
:105CB000FFFFFFFFFFFFFFFFFFFFFFFF00000000F0
:105CC000000000000000A631FFFFFFFFFFFFFFFF05
:105CD000FFFF0000000000000000000000000000C6
:105CE00000000000000000000000000000000000B4
:105CF000000000000000FFFFFFFF000000000000A8
:105D00000000000000000000000000000000000093
:105D100000000000000000000000FFFFFFFFFFFF89
:105D2000FFFFFFFFFFFFFFFFFFFFFFFFFFFFFFFF83
:105D3000FFFFFFFFFFFFFFFFFFFF0000FFFFFFFF71
:105D4000FFFFFFFFFFFFFFFFFFFF0000000000005D
:105D500000000000000000000000FFFFFFFFFFFF49
:105D60000000000000000000000000000000000033
:105D7000FFFFFFFF00000000000000000000000027
:105D80000000000000000000000000000000000013
:105D90000000FFFFFFFFFFFFFFFFFFFFFFFFFFFF11
:105DA000FFFFFFFFFFFFFFFFFFFFFFFFFFFFFFFF03
:105DB000FFFFFFFFFFFFFFFFFFFFFFFFFFFFFFFFF3
