:020000040800F2
:1000000050040020D50000082B0A0008290A000827
:1000100000000000000000000000000000000000E0
:10002000000000000000000000000000090F0008B0
:100030000000000000000000950E0008490F0008B5
:10004000E7000008E7000008E7000008E7000008F4
:10005000E7000008E7000008E7000008E7000008E4
:10006000E7000008E7000008E7000008E7000008D4
:10007000E7000008E700000800000000E7000008B3
:1000800000000000E7000008000000000000000081
:10009000E700000800000000E7000008E700000893
:1000A000E7000008E7000008E7000008E700000894
:1000B000E7000008E7000008E7000008E700000884
:1000C0000348854600F02AF8004800473D10000824
:1000D000500400200448804704480047FEE7FEE73C
:1000E000FEE7FEE7FEE7FEE7C90F0008C1000008D3
:1000F00030B50B46014600202022012409E00D46C0
:10010000D5409D4205D31D469540491B2546954047
:1001100040191546521E002DF1DC30BD064C01255C
:10012000064E05E0E36807CC2B430C3C984710349F
:10013000B442F7D3FFF7C8FFFC1300081C140008F3
:1001400070B50024052625463607002201213046D9
:1001500000F0E1F86006040E1021304600F0D6F8F9
:10016000002801D0641CE4B201221146304600F0A0
:10017000D2F86D1CEDB2082DE7D3204670BD31B525
:1001800000F0D0F8044600F0CDF80099001B88423A
:10019000F9D338BDF8B500230124A2E027469F40DB
:1001A0003A4070D04D68022D01D0122D14D1DD08D7
:1001B000AD002D1800952D6A5E07AC46F50E0F2692
:1001C000AE46AE406546B543AC460E697546AE4098
:1001D00065462E43009D2E624D68012D05D0022DEF
:1001E00003D0112D01D0122D16D185680326AC46FF
:1001F0005D00AE46AE406546B543AC46CE6875463A
:10020000AE4065462E43866046680D79BE43ED06D6
:10021000ED0F9D403543456006685F000325BD40F6
:10022000AE46AE430D79B446AE07B60FBE40654646
:100230002E430660C6687546AE438D68BD403543A3
:10024000C5604D68ED004BD5294D6E6B26436E633E
:100250009E08284DB6007519AC46AD689E07360F4E
:100260000F27B740BD4305273F07B84201D10027FC
:1002700015E0214FB84201D1012710E01F4FB842CD
:1002800002D102270BE02BE01D4FB84201D103271A
:1002900005E01C4FB84201D1052700E00627B74012
:1002A0002F436546AF60184D2E684F689643FF0395
:1002B00000D516432E606E684F689643BF0300D585
:1002C00016436E60AE684F689643FF0200D5164332
:1002D000AE60EE684F689643BF0200D51643EE60ED
:1002E0005B1C0A681546DD4000D057E7F8BD0000EA
:1002F00000100240000001400004005000080050BF
:10030000000C0050001C005000040140006908402F
:1003100000D001207047002A01D0816170478162BE
:10032000704700000148006870470000440000204A
:1003300002480168491C0160704700004400002029
:1003400010B506480168402211430160002000F00A
:1003500007F800F019F8002010BD0000002002404E
:1003600010B5044607487D21C9000068FFF7C0FEAC
:1003700000F03EFB00222146501E00F006F800204F
:1003800010BD000048000020704710B500F04EFB83
:1003900010BD0000F8B5054653480E460068C0077A
:1003A000C00FB0420AD250480168490849003143A1
:1003B00001600068C007C00FB0426FD128784B4C75
:1003C000800705D5E068F0218843A9680843E0600C
:1003D0002878C00752D06868022817D0032818D0A0
:1003E0002168012818D08905002957DAE1688908B1
:1003F00089000143E160FFF795FF6968074602291C
:1004000012D003291CD0012926D033E021688903AA
:10041000EAE721688901E7E74907E5E7FFF782FF97
:10042000C11B3348814223D8E0680007800F0228AF
:10043000F4D123E0FFF776FFC11B2D48814217D886
:10044000E0680007800F0328F4D117E0FFF76AFF88
:10045000C11B274881420BD8E0680007800F0128A4
:10046000F4D10BE0FFF75EFFC11B2148814201D9A7
:100470000320F8BDE0680007800FF3D11A48016837
:10048000C907C90FB1420BD9016849084900314376
:1004900001600068C007C00FB04201D00120F8BD64
:1004A0002878400706D5E068072109028843E968F3
:1004B0000843E0602878000707D5E0680721C902F3
:1004C00088432969C9000843E06000F01DF8E1682D
:1004D000084A0906090F515CC84007490860002016
:1004E000FFF73EFF0020F8BD002002400010024050
:1004F00088130000E013000848000020014800684D
:10050000704700004800002010B5184AD1680C2040
:10051000084004280BD0082810D00C2810D05068B0
:100520000004410F0120C003491C884010BD106821
:10053000C00601D50E4810BD0E4810BD0E4810BDB6
:1005400088020E4B000F185C0902D368890F491C02
:10055000DB0301D5084A05E01268D20601D5044A3A
:1005600000E0044A5043FFF7C3FD10BD00100240F5
:1005700000093D000024F40000127A00F013000886
:10058000F8B504460078FE4DC0074AD0E868000779
:10059000800F022807D0E8680007800F032809D1E0
:1005A000E868C00306D5286880033AD5606800284B
:1005B00073D036E0012062680004824203D12968CA
:1005C0000143296011E0052301211B0489049A429B
:1005D0002A6802D10A432A60F1E782432A602A6826
:1005E00002400092286888432860606800280CD088
:1005F000FFF798FE064604E0FFF794FE801B642890
:100600007ED828688003F7D50BE0FFF78BFE0646FF
:1006100004E0FFF787FE801B6428F1D82868800378
:10062000F7D42078800741D5E8681F270007800F9E
:100630003F02012807D0E8680007800F032809D18E
:10064000E868C00306D42868400717D5E068012889
:1006500023D113E0E068002817D0296809229143CC
:1006600001432960FFF75EFE064604E0FFF75AFEED
:10067000801B0228C4D828684007F7D5686821691C
:10068000B84309020843686010E028684008400049
:100690002860FFF747FE064605E095E0FFF742FEBB
:1006A000801B0228ACD828684007F7D42078C00601
:1006B00072D5E868B34E0007800F0AD0E0690028C1
:1006C0002868B1495AD008432860FFF72BFE074637
:1006D00044E02868800502D5E069002874D0606A8B
:1006E00069683140884212D900F0D6FB0028AFD1AA
:1006F0006868616AB043084368606868000200E0A7
:10070000DCE0218C000A0906084368600FE0696894
:10071000B143014369606868218C0002000A090640
:1007200008436860606A00F0B7FB002890D1606AF7
:10073000410B0120C003491C8840E96809060A0FE3
:100740009249895CC840924908600020FFF708FE82
:1007500022E0FFF7E7FDC01B02288BD82868800540
:10076000F7D56868616AB043084368606868218C9F
:100770000002000A0906084368600DE0884328600B
:10078000FFF7D0FD064604E0FFF7CCFD801B0228F2
:1007900088D828688005F7D420787E4E000723D5B6
:1007A00060690028306910D0012108433061FFF7EB
:1007B000B9FD074604E0FFF7B5FDC01B02287DD850
:1007C00030698007F7D50FE001E140084000306153
:1007D000FFF7A8FD074604E0FFF7A4FDC01B0228B1
:1007E0006CD830698007F7D42078400760D5A86BB3
:1007F0000027C00005D4A86B012109070843A8639E
:10080000012765480168C90511D4016882151143A3
:100810000160FFF787FD009005E0FFF783FD009979
:10082000401A64284AD85C480068C005F5D5564887
:10083000A268824203D131690143316111E0012193
:100840008902002A07D005231B029A4203D132698C
:100850000A433261EFE7326982433261306988438B
:100860003061A06800280ED0FFF75CFD009006E024
:10087000FFF758FD0099411A484881421ED8306957
:100880008005F5D50DE0FFF74DFD009006E0FFF780
:1008900049FD0099411A414881420FD830698005CD
:1008A000F5D4002F04D0A96B012000078143A96370
:1008B0002078800630D53A48421400E080E0A169F3
:1008C000002916D0AB6801210B43AB606B6B0B4367
:1008D0006B63016A11430162FFF724FD064604E0E1
:1008E000FFF720FD801B02286AD8A8688007F7D58B
:1008F00012E0A96849084900A960016A91430162B0
:10090000FFF710FD064604E0FFF70CFD801B0228F0
:1009100056D8A8688007F7D4A06A002855D0E9689F
:100920000907890F032952D00126360602282868B4
:1009300005D0B0432860FFF7F5FC044642E0B04321
:100940002860FFF7EFFC074604E0FFF7EBFCC01B55
:10095000022835D828688001F7D4216BE06AEA685C
:100960000843616BFD231B049A4311430843E8606D
:10097000286830432860FFF7D5FC044617E00000E4
:100980000010024000E0000000010000E013000839
:100990004800002040100240007000408813000012
:1009A00000000140FFF7BEFC001B022808D82868A1
:1009B0008001F7D509E0FFF7B5FC001B022801D93B
:1009C0000320F8BD28688001F5D40020F8BD01207F
:1009D000F8BD0000042204490428086902D09043AD
:1009E000086170471043FBE700E000E0704700003B
:1009F000094910B5401E884201D9012010BD074C9D
:100A000060610321081F00F011F80020A061072099
:100A10002061002010BD0000FFFFFF0000E000E0AB
:100A200010B5FFF7E3FF10BDFEE770478307FF2215
:100A3000DB0E9A408907090E994000280BDA00075F
:100A4000000F0838830808489B001818C3699343AF
:100A50000B43C3617047830804489B001B18186848
:100A6000904308431860704700ED00E000E400E0A8
:100A700070B500242046B030C0B2002100F098F9D3
:100A80000021102000F094F90021022000F090F9DC
:100A900000250121002000F08BF96D1CEDB2802DA6
:100AA000F7D3641CE4B2082CE4D370BD10B5002861
:100AB00006D0012803D10021A72000F079F910BD4C
:100AC0000021A620F9E710B500280AD0012807D197
:100AD0000021C02000F06CF90021A02000F068F98E
:100AE00010BD0021C82000F063F90021A120F5E726
:100AF000F7B516460F4600253946009800F08FF9E5
:100B000000243078012100F053F9641CE4B2761C13
:100B1000102CF6D37F1C6D1CEDB2FFB2022DEBD36F
:100B2000FEBD70B5154600F07AF900242878012141
:100B300000F03EF9641CE4B26D1C062CF6D370BDC7
:100B4000F7B516460F4600253946009800F067F9BC
:100B500000243078012100F02BF9641CE4B2761CEB
:100B6000082CF6D37F1C6D1CEDB2FFB2022DEBD327
:100B7000FEBD0000F7B58EB0174605460024294E8D
:100B80004BE00146B03947290AD83A195378A12BCE
:100B900006D35E20414331605078234A89180CE027
:100BA0000146A13902291ED83A195378A12B1AD32C
:100BB0005E20414331605078A139401842013260D3
:100BC0001002110420230093000E090ED2B201ABD3
:100BD00000F038F901AA28460F99FFF789FF103570
:100BE000EDB2A41C18E020385E2814D80F4900018B
:100BF000421832601002110410230093000E090EF7
:100C0000D2B209AB00F01EF909AA28460F99FFF7E6
:100C100097FF0835EDB2641CE4B2385D0028B0D10E
:100C200011B0F0BD40000020AD02000080CF0300F5
:100C3000FEB516460F46054600241AE020385E2809
:100C400015D80F4AC00082180C4910020A6011041E
:100C500008230093000E090ED2B201AB00F0F2F8A7
:100C600001AA39462846FFF75CFFAD1DEDB2641CB2
:100C7000E4B2305D0028E1D1FEBD0000400000205C
:100C8000C0BF030070B5494886B0C16A0124214342
:100C9000C162C06A0526204005902F200225360734
:100CA000009001946946039502943046FFF772FA6A
:100CB00010200090002001AA31C269463046FFF79B
:100CC00069FA01223F213046FFF725FBC820FFF7D4
:100CD00056FA0021AE2000F06BF80021022000F04F
:100CE00067F80021102000F063F80021402000F098
:100CF0005FF80021B02000F05BF80021812000F0B7
:100D000057F80021CF2000F053F80021A12000F077
:100D10004FF80021A62000F04BF80021A82000F099
:100D200047F800213F2000F043F80021AD2000F0FB
:100D30003FF800218B2000F03BF80021332000F029
:100D400037F80021C82000F033F80021D32000F04C
:100D50002FF80021084600F02BF80021D52000F0E4
:100D600027F80021802000F023F80021D92000F08E
:100D70001FF800211F2000F01BF80021DA2000F0EE
:100D800017F80021122000F013F80021DB2000F0FA
:100D90000FF80021402000F00BF8FFF769FE00215A
:100DA000AF2000F005F806B070BD00000010024052
:100DB00070B5052636070546002901D0012200E05E
:100DC000002204213046FFF7A6FA0022082130460F
:100DD000FFF7A1FA0024002201213046FFF79BFA19
:100DE000280601D5012200E0002202213046FFF74B
:100DF00092FA012211463046FFF78DFA6806641C0C
:100E0000050EE4B2082CE6D3012208213046FFF794
:100E100082FA012204213046FFF77DFA70BD10B539
:100E2000801CC4B2B031C8B20021FFF7C1FF200955
:100E300000211030FFF7BCFF2007000F0021FFF753
:100E4000B7FF10BDFFB5052781B004463F071D461B
:100E50000022202138460A9EFFF75DFA032000F0A9
:100E600054F8204600F051F8029800F04EF803982C
:100E700000F04BF8002404E0FFF762F92855641CE9
:100E8000E4B2B442F8D3012220213846FFF743FAF6
:100E900005B0F0BD7047000070B517490023CA685F
:100EA0001206120F18D18A6B154CD500134A02D5C1
:100EB0001268224009E08E6B01252D072E438E63B8
:100EC00012688E6B2240AE438E63A24204D103218E
:100ED0008903884200D101230A4801684908490072
:100EE000194301600068C007C00F984201D001207B
:100EF00070BD002070BD0000001002400070004076
:100F00000018000000200240704770B5002405263C
:100F100005463607002201213046FFF7FCF9280676
:100F200001D5012200E0002202213046FFF7F3F94B
:100F30006806050E012211463046FFF7ECF9641CE5
:100F4000E4B2082CE6D370BD10B5FFF7F1F9FFF756
:100F500067FD10BD10B51B4894B001680322D20292
:100F60009143C214891801600220009001210A9067
:100F7000039140040C900001102100240D900B946B
:100F800004916846FFF7FCFA0F200E9003200F90A3
:100F900010941194012112940EA8FFF7FBF9FFF7AA
:100FA000ADFA7D21C900FFF7A3F8FFF721FD04206A
:100FB000FFF710FD00221146501EFFF7E6F914B0AE
:100FC00010BD0000007000401048016882151143F8
:100FD0000160C1680E4A1140C16001680D4A1140AC
:100FE000016081684908490081600168012292041A
:100FF00091430160C168FD2212049143C160002148
:1010000001610549C003886070470000001002407C
:101010000C40FF88F6FFF6FE00ED00E002E008C895
:10102000121F08C1002AFAD170477047002001E062
:1010300001C1121F002AFBD170470000FFF780F9A1
:10104000FFF788FFFFF71EFE0020FFF72FFD0020AF
:10105000FFF739FDFF24F534002158A20846FFF7B9
:1010600089FD5BA202210020FFF784FD5DA204211F
:101070000020FFF77FFD60A206210020FFF77AFD28
:101080002046FFF77CF8FFF7F3FC60A20021182050
:10109000FFF770FD60A202210020FFF76BFD63A245
:1010A00004210020FFF766FD65A206210020FFF75E
:1010B00061FD2046FFF763F8FFF7DAFC002165A227
:1010C0000846FFF757FD68A202210020FFF752FDF6
:1010D0006AA204210020FFF74DFD6DA20621002029
:1010E000FFF748FD6E4A06216120FFF701FD6C4ABB
:1010F000062120327120FFF7FBFC2046FFF73FF866
:10110000FFF7B6FC002167A20846FFF733FD6AA28D
:1011100002210020FFF78CFD6DA203210020FFF7C4
:1011200087FD71A204210020FFF782FD74A2052132
:101130000020FFF77DFD78A206210020FFF778FD53
:101140007AA207210020FFF773FD2046FFF717F86A
:10115000FFF78EFC00217AA20846FFF70BFD7DA267
:1011600002210020FFF706FD7FA204210020FFF7E7
:1011700001FD82A206210020FFF7FCFC2046FEF7BD
:10118000FEFFFFF775FC002181A20846FFF7F2FC85
:1011900084A202210020FFF7EDFC87A20421002099
:1011A000FFF7E8FC89A206210020FFF7E3FC2046B8
:1011B000FEF7E5FFFFF75CFC4EE700003132383602
:1011C000342CB4F8D6D0CEC4D7D6BFE2000000008D
:1011D0003136583136BCF2CCE5BABAD7D6BFE22C9C
:1011E00000000000BBF238583136B5E3D5F3415367
:1011F0004349492C00000000BBF2355837B5E3D510
:10120000F34153434949C2EB00000000D6D0BEB0C1
:10121000D4B0B5E7D7D30000D6F7D2AAC9FAB2FA4C
:101220004F4C4544C4A3BFE900000000B9CBBFCD7B
:10123000D6C1C9CFD5E6B3CFB7FECEF100000000CE
:10124000B3CFD0C5D3EBD6CAC1BFB5DAD2BBA3A149
:1012500000000000474232333132BCF2CCE5D7D631
:10126000BFE2BCB000000000D3D0CDBCD0CDB9A649
:10127000C4DCA3ACBFC9D7D400000000B1E0B4F314
:10128000D7D6BBF2CDBCCFF1BBF2C9FA000000004B
:10129000C6A7D7D6A3ACC0FDC8E7A3BA000000001C
:1012A000000000203C21402324255E262A28295FB7
:1012B0002D2B5D2F000000003C21402324255E26BD
:1012C0002A28295F2D2B5D2F3B2E2C3F5B00000031
:1012D000585920656C656374726F6E69637320433F
:1012E0006F2E2C20000000004C74642E2065737457
:1012F00061626C697368656420617420200000007D
:101300007965617220323031302E466F63757320FB
:101310004F4C4544200000004D6F62696C653A31C6
:1013200033323635353835393735000054656C3A47
:10133000303735352D333239313037313500000013
:10134000B0A1B0A2B0A3B0A4B0A5B0A6B0A7B0A8F9
:1013500000000000B0A9B0AAB0ABB0ACB0ADB0AE68
:10136000B0AFB0B000000000B0B1B0B2B0B3B0B434
:10137000B0B5B0B6B0B7B0B800000000B0B9B0BA00
:10138000B0BBB0BCB0BDB0BEB0BFB0C000000000CC
:10139000F7DFF7E0F7E1F7E2F7E3F7E4F7E5F7E681
:1013A00000000000F7E7F7E8F7E9F7EAF7EBF7ECFA
:1013B000F7EDF7EE00000000F7EFF7F0F7F1F7F2C6
:1013C000F7F3F7F4F7F5F7F600000000F7FEF7F88B
:1013D000F7FAF7FBF7FCF7FDF7F7F7F90000000065
:1013E00000000000000000000102030406070809D5
:1013F000030406080C101820300000001C1400081C
:10140000000000204C0000001C10000868140008B8
:101410004C000020040400002C10000800FE824252
:10142000A29E8A82868AB26202FE0000007F40404D
:101430007F40404040407F40407F0000808080BF30
:10144000A5A5A53FA5A5A5BF808080007F24243F3A
:1014500024247F007F24243F24247F0000000000F8
:081460000000000080841E0062
:04000005080000C12E
:00000001FF
