:020000040800F2
:10000000500800209D0100088F0F0008870F00088E
:100010008B0F00083B020008D11700080000000009
:10002000000000000000000000000000B5160008FD
:100030003F02000800000000151600080517000820
:10004000B7010008B7010008B7010008B7010008B0
:10005000B7010008B7010008B7010008B7010008A0
:10006000B7010008B7010008B7010008B701000890
:10007000B7010008B7010008B7010008B701000880
:10008000B7010008B7010008B7010008B701000870
:10009000B7010008B7010008B7010008B701000860
:1000A000B7010008B7010008B7010008B701000850
:1000B000B7010008B7010008B7010008B701000840
:1000C000B7010008B7010008B7010008B701000830
:1000D000B7010008B7010008B7010008B701000820
:1000E000B7010008B7010008B7010008B701000810
:1000F000B7010008B7010008B7010008B701000800
:10010000B7010008B7010008B7010008B7010008EF
:10011000B7010008B7010008B7010008B7010008DF
:10012000B7010008B7010008B7010008B7010008CF
:10013000B7010008B7010008B7010008B7010008BF
:10014000B7010008B7010008B7010008B7010008AF
:10015000B7010008B7010008B7010008B70100089F
:10016000B7010008B7010008B7010008B70100088F
:10017000B7010008B7010008B7010008000000003F
:10018000B7010008B7010008DFF80CD000F018F83C
:1001900000480047F517000850080020064880472F
:1001A00006480047FEE7FEE7FEE7FEE7FEE7FEE75C
:1001B000FEE7FEE7FEE7FEE7811700088901000879
:1001C000064C074D06E0E06840F0010394E80700A4
:1001D00098471034AC42F6D3FFF7DAFFF41B00085F
:1001E000141C000870B58C1810F8015B15F007039B
:1001F00001D110F8013B2A1106D110F8012B03E0C0
:1002000010F8016B01F8016B5B1EF9D12B0705D4C7
:100210000023521E0DD401F8013BFAE710F8013B10
:10022000CB1A921C03E013F8015B01F8015B521E2C
:10023000F9D5A142D8D3002070BD00BFFEE77047BA
:1002400070B50024002517E0002220214FF09040D7
:1002500000F030F96006040E10214FF0904000F0DD
:1002600021F908B1601CC4B2012220214FF0904056
:1002700000F020F9681CC5B2082DE5DB204670BDF2
:1002800070B5044600F01CF906462546681C00B10E
:100290006D1C00BF00F014F9801BA842FAD370BD9A
:1002A00078B503460022E5E0012696400D6805EA90
:1002B0000604002C7DD04D68022D02D04D68122D11
:1002C00013D1D60803F1200555F826005507EE0E88
:1002D0000F25B540A8435607F60E0D69B5402843D3
:1002E000D60803F1200545F82600186856000325B6
:1002F000B540A8430D7905F003055600B5402843E5
:1003000018604D68012D08D04D68022D05D04D684C
:10031000112D02D04D68122D13D198685600032577
:10032000B540A8435600CD68B5402843986058684A
:1003300001259540A8430D79C5F300159540284344
:1003400058600D7905F00305032D09D1D86A012500
:100350009540A8430D79C5F3C00595402843D86260
:10036000D86856000325B540A84356008D68B540AF
:100370002843D8604D6805F08055B5F1805F78D18D
:1003800000BF3F4D2D6E45F001053D4E35663546AB
:100390002D6E05F00105009500BF00BF4FEAB63590
:1003A000960855F8260095072E0F0F25B540A8434F
:1003B00000E05EE0B3F1904F01D100251EE0314D29
:1003C000AB4201D1012519E02F4DAB4201D10225ED
:1003D00014E02E4DAB4201D103250FE02C4DAB4272
:1003E00001D104250AE02B4DAB4201D1052505E0E2
:1003F000294DAB4201D1062500E007259607360FAF
:10040000B5402843254D960845F82600244D286818
:10041000A0434D6805F48035B5F5803F00D12043F9
:100420001F4D28602D1D2868A0434D6805F4003538
:10043000B5F5003F00D12043194D2D1D28602D1D1D
:100440002868A0434D6805F48015B5F5801F00D1DC
:100450002043134D083528602D1D2868A0434D68A2
:1004600005F40015B5F5001F00D120430C4D0C35E7
:100470002860521C0D68D540002D7FF415AF78BD63
:10048000001002400004004800080048000C00482A
:1004900000100048001400480018004808000140FF
:1004A00000040140024613690B400BB1012000E03B
:1004B000002070470AB1816100E08162704700004E
:1004C00001480068704700004804002002480068A6
:1004D000401C0149086070474804002010B5002402
:1004E000032000F065F8002000F008F808B10124AE
:1004F00001E000F01BF8204610BD000070B5044676
:100500000025094800684FF47A71B0FBF1F63046D7
:1005100000F01BFD08B1012504E000222146501E19
:1005200000F005F8284670BD4004002070472DE912
:10053000F05F80460D461646002700F029FD07466D
:1005400039462A46334601F00700C0F1070ABAF1DE
:10055000040F02D94FF0040A01E0C0F1070AD146A6
:1005600000F1040ABAF1070F02D24FF0000A01E0CD
:10057000A0F1030AD4464FF0010A0AFA09FAAAF1D7
:10058000010A0AEA020A0AFA0CFA4FF0010B0BFA06
:100590000CFBABF1010B0BEA030B4AEA0B042146FF
:1005A000404600F0FDFC00F000B830BCBDE8C09F44
:1005B00000BF00F00702064B19684FF6FF03194011
:1005C000044B0B4343EA0221014B196000BF704703
:1005D0000CED00E00000FA050246B2F5007F2AD1DA
:1005E0001D48006800F4C060B0F5007F32D01A48A2
:1005F000006820F4C06040F40070174B1860174882
:10060000006832235843164BB0FBF3F0411C00E066
:10061000491E1148406900F48060B0F5806F01D137
:100620000029F5D10C48406900F48060B0F5806F76
:1006300010D1032070470848006800F4C060B0F58E
:10064000806F07D00448006820F4C06040F48060E8
:10065000014B18600020EDE70070004040040020CE
:1006600040420F000248006800F4C060704700007C
:10067000007000402DE9F04104460D4614B90120F8
:10068000BDE8F0815548006800F00700A8420ED28E
:100690005248006820F00700284350490860084687
:1006A000006800F00700A84201D00120E8E72078A8
:1006B00000F00100002840D06068032806D14848B7
:1006C000006800F00070D8B90120D9E760680228FE
:1006D00006D14348006800F4003088B90120CFE714
:1006E000606830B93E48006800F0020040B901205F
:1006F000C6E73B48006800F4806008B90120BFE706
:100700003748806820F003006168084334498860F6
:10071000FFF7D6FE064608E0FFF7D2FE801B41F247
:100720008831884201D90320AAE72D48806800F06B
:100730000C006168B0EB810FEED1207800F0020070
:10074000022807D12648806820F0F000A1680843FD
:10075000234988602148006800F00700A8420ED9AC
:100760001E48006820F0070028431C49086008461E
:10077000006800F00700A84201D0012080E720783F
:1007800000F00400042807D11548806820F4E060D8
:10079000E168084312498860207800F008000828C2
:1007A00008D10F48806820F46050216940EAC100F8
:1007B0000B49886000F020F809498968C1F30311EA
:1007C000084A515C01F01F01C84007490860002039
:1007D000FFF794FE0746384652E70000002002402B
:1007E00000100240AC1B00084004002001480068D3
:1007F00070470000400400202DE9F0410024002053
:10080000DFF800C1DCF808C00CF00C01DFF8F4C020
:10081000DCF80CC00CF0030719B10C291ED1012F14
:100820001CD1DFF8E0C0DCF800C00CF0080CBCF113
:10083000000F06D1DFF8CCC0DCF894C0CCF3032461
:1008400005E0DFF8C0C0DCF800C0CCF30314DFF82B
:10085000B8C05CF8244041B9204606E0042901D123
:100860002A4802E0082900D129480C2947D1DFF89D
:1008700094C0DCF80CC00CF00305DFF888C0DCF88D
:100880000CC0CCF3021C0CF10103012D1FD0022D72
:1008900002D0032D1AD10CE0DFF870C0BCFBF3FCD2
:1008A000DFF86080D8F80C80C8F306280CFB08F24B
:1008B00018E0DFF85CC0BCFBF3FCDFF84880D8F838
:1008C0000C80C8F306280CFB08F20BE000BFB4FB59
:1008D000F3FCDFF83080D8F80C80C8F306280CFB56
:1008E00008F200BF00BFDFF81CC0DCF80CC0CCF37E
:1008F000416C0CF1010C4FEA4C06B2FBF6F0BDE87E
:10090000F081000000100240C41B00080024F40025
:1009100000127A002DE9F843044614B90120BDE81D
:10092000F883F848806800F00C06F648C06800F0CC
:100930000307207800F01000102875D11EB10C2E8E
:1009400074D1012F72D1EF48006800F0020018B195
:10095000A06908B90120E2E7EA48216A006800F0CE
:10096000080020B1E748006800F0F00005E0E54825
:100970009430006800F47060000981421FD9206A39
:1009800000F04AFE08B10120C9E700BFDD48006859
:1009900040F00800DB4908600846006820F0F000DD
:1009A000216A0843D749086000BF0846406820F420
:1009B0007F40E16940EA0120D24948601EE000BF63
:1009C000D048006840F00800CE490860084600683A
:1009D00020F0F000216A0843CA49086000BF0846B9
:1009E000406820F47F40E16940EA0120C549486041
:1009F000206A00F011FE08B1012090E7FFF7FCFE2D
:100A0000C0498968C1F30311BF4A515C01F01F015D
:100A1000C840BE4908600020FFF770FD8046B8F16D
:100A2000000F4ED040467AE74BE0FFE7A06980B365
:100A3000B448006840F00100B2490860FFF740FD8B
:100A4000054606E0FFF73CFD401B022801D90320C4
:100A500065E7AC48006800F002000028F2D000BF53
:100A6000A848006840F00800A649086008460068E9
:100A700020F0F000216A0843A249086000BF084640
:100A8000406820F47F40E16940EA01209D494860C8
:100A900017E0FFE79B48006820F0010099490860D3
:100AA000FFF70EFD054606E0FFF70AFD401B022892
:100AB00001D9032033E79348006800F002000028C2
:100AC000F2D1207800F0010000285CD0082E03D07D
:100AD0000C2E0AD1032F08D18A48006800F4003098
:100AE00088B3606878BB012019E700BF6068B0F583
:100AF000803F06D18348006840F480308149086017
:100B00001AE06068B0F5A02F0BD17E48006840F471
:100B100080207C4908600846006840F48030086006
:100B20000AE07848006820F480307649086008467A
:100B3000006820F48020086000BF606890B1FFF773
:100B4000BFFC054607E01EE0FFF7BAFC401B642827
:100B500001D90320E3E66B48006800F40030002868
:100B6000F2D010E0FFF7ACFC054606E0FFF7A8FC6A
:100B7000401B642801D90320D1E66248006800F4D4
:100B800000300028F2D1207800F00200022852D173
:100B9000042E03D00C2E14D1022F12D15948006814
:100BA00000F4806018B1E06808B90120B7E6554844
:100BB000406820F0F850217C40EA016051494860CB
:100BC00039E0E06800B34F48006840F480704D4958
:100BD0000860FFF775FC054606E0FFF771FC401B57
:100BE000022801D903209AE64648006800F4806094
:100BF0000028F2D04348406820F0F850217C40EAB9
:100C000001604049486016E03E48006820F480706A
:100C10003C490860FFF754FC054606E0FFF750FC2E
:100C2000401B022801D9032079E63648006800F409
:100C300080600028F2D1207800F00800082836D122
:100C40006069D0B12F489430006840F001002D4910
:100C5000C1F89400FFF734FC054606E0FFF730FCCE
:100C6000401B022801D9032059E626489430006829
:100C700000F002000028F1D019E02248943000680A
:100C800020F001001F49C1F89400FFF719FC054648
:100C900006E0FFF715FC401B022801D903203EE6C1
:100CA00018489430006800F002000028F1D1207844
:100CB00000F00400042870D14FF000091148806D45
:100CC00000F0805078B900BF0E48806D40F0805031
:100CD0000C4988650846806D00F08050009000BF88
:100CE00000BF4FF001090A48006800F48070F0B9B5
:100CF0000748006840F4807005490860FFF7E0FB92
:100D000005460EE000100240AC1B00084004002025
:100D100000700040FFF7D4FB401B022801D90320DC
:100D2000FDE57C48006800F480700028F2D000BF28
:100D3000A068012808D17848006840F00100764991
:100D40009039C1F8900021E0A06805280FD17248C1
:100D5000006840F0040070499039C1F890000846DE
:100D6000D0F8900040F00100C1F890000EE06A4811
:100D7000006820F0010068499039C1F890000846E9
:100D8000D0F8900020F00400C1F8900000BFA068E7
:100D9000A0B1FFF795FB054609E02EE0FFF790FBB9
:100DA000401B41F28831884201D90320B7E55A48F7
:100DB000006800F002000028F0D012E0FFF780FB8E
:100DC000054608E0FFF77CFB401B41F28831884272
:100DD00001D90320A3E55048006800F00200002874
:100DE000F0D1B9F1010F07D14B489038806D20F058
:100DF000805049499039886500BFA06AF0B30C2E35
:100E000074D0A06A022853D143489038006820F07B
:100E10008070414990390860FFF752FB054606E0B3
:100E2000FFF74EFB401B022801D9032077E53A4823
:100E30009038006800F000700028F1D1206B401E4F
:100E40000101606B41EA0021A06B000941EA4040CA
:100E5000E16A0843A18F0122C2EB510140EA4151EE
:100E60004020005DC2EB500041EA40602A499039C1
:100E7000C8600846006840F0807000E048E0086004
:100E80000846C06840F08070C860FFF719FB05464F
:100E900006E0FFF715FB401B022801D903203EE5C1
:100EA0001D489038006800F000700028F1D02FE055
:100EB00019489038006820F0807017499039086010
:100EC0000846006800F0205020B90846C06820F0AD
:100ED0000300C86010489038C068104908400E49A7
:100EE0009039C860FFF7ECFA054607E00EE0FFF71F
:100EF000E7FA401B022801D9032010E50648903884
:100F0000006800F000700028F1D101E0012006E542
:100F1000002004E50070004090100240FFFFEEFE4C
:100F2000042808D14FF0E021096941F004014FF095
:100F3000E022116107E04FF0E021096921F004018E
:100F40004FF0E02211617047704770B504462546A6
:100F5000681EB0F1807F01D301200FE0681E4FF0C2
:100F6000E02148610F214FF0FF3000F019F8002018
:100F70004FF0E021886107200861002070BD10B5A6
:100F8000FFF7E2FF10BD00BFFEE700BFFEE77047BE
:100F900002480068C0F30220704700000CED00E03A
:100FA00010B5002807DA0A07140E054A00F00F03EF
:100FB0001B1FD45403E00A07130E024A135410BD3A
:100FC00018ED00E000E400E070B5002419E004F141
:100FD000B001C8B2002100F091FA0021102000F009
:100FE0008DFA0021022000F089FA002505E0012198
:100FF000002000F083FA681CC5B2802DF7DB601C6E
:10100000C4B2082CE3DB70BD70B50446002510E0C7
:101010002946002000F0BAFA002606E020780121D7
:1010200000F06CFA641C701CC6B2802EF6DB681CE3
:10103000C5B2082DECDB70BD2DE9F04180460D46B0
:101040001446002712E02946404600F09FFA002689
:1010500006E02078012100F051FA641C701CC6B231
:10106000102EF6DB681CC5B2781CC7B2022FEADB73
:10107000BDE8F0812DE9F04106460F461446394699
:10108000304600F083FA002506E02078012100F0C8
:1010900035FA641C681CC5B2062DF6DBBDE8F0818C
:1010A0002DE9F04180460D461446002712E02946FE
:1010B000404600F06BFA002606E02078012100F09F
:1010C0001DFA641C701CC6B2082EF6DB681CC5B283
:1010D000781CC7B2022FEADBBDE8F0812DE9F047AA
:1010E0008EB006468A4615460024A8E0285DB02842
:1010F00037DB285DF72834DC601C285CA12830DB56
:10110000285DB0385E2110FB01F050490860601C7A
:10111000285C00F2AD20096808444C490860084684
:1011200000684001086008460068C0F307470846A9
:101130000088C0F30728084690F80090202006ABEE
:101140004A4641460090384600F038FA06AA514611
:101150003046FFF771FF06F11000C6B2A01CC4B202
:101160006DE0285DA12836DB285DA32833DC601CF8
:10117000285CA1282FDB285DA1385E2110FB01F03F
:1011800032490860601C285CA138096808442F496E
:101190000860084600684001086008460068C0F31F
:1011A000074708460088C0F30728084690F80090D3
:1011B000202006AB4A4641460090384600F0FEF932
:1011C00006AA51463046FFF737FF06F11000C6B2B7
:1011D000A01CC4B233E0285D20282EDB285D7E28C9
:1011E0002BDC285D2038194908600846006800019A
:1011F0000860084600681649084414490860084613
:101200000068C0F3074708460088C0F3072808466F
:1012100090F80090102002AB4A46414600903846B4
:1012200000F0CCF902AA51463046FFF739FF06F12B
:101230000800C6B2601CC4B201E0601CC4B2285DE4
:1012400000283FF753AF0EB0BDE8F08744040020FC
:1012500080CF03002DE9FE4F80468A4615460024C4
:1012600033E0285D20282EDB285D7E282BDC285DDE
:1012700020381849086008460068C0000860084621
:101280000068154908441349086008460068C0F31F
:10129000074908460088C0F3072608460778082053
:1012A00001AB3A4631460090484600F087F901AA62
:1012B00051464046FFF7DEFE08F1060000F0FF0849
:1012C000601CC4B201E0601CC4B2285D0028C8DC08
:1012D00000F004B844040020C0BF03001EBCBDE8F9
:1012E000E08F000000B587B000BF8048C06C40F0C0
:1012F00080007E49C8640846C06C00F08000019000
:1013000000BF00BF00BF0846C06C40F00100C864C9
:101310000846C06C00F00100019000BF00BF00BF94
:101320000846C06C40F00400C8640846C06C00F079
:101330000400019000BF00BF00BF0846C06C40F031
:101340000800C8640846C06C00F00800019000BFA7
:1013500000BF00BF0846C06C40F00200C8640846E9
:10136000C06C00F00200019000BF00BF0122B0215C
:101370004FF09040FFF79EF8012211035C48FFF701
:1013800099F8012204215B48FFF794F80122E0213B
:101390005948FFF78FF8A020029001200390049095
:1013A0000220059002A94FF09040FEF779FF10202F
:1013B000029000200390012004900220059002A9D1
:1013C0004FF09040FEF76CFF4FF4805002900120E8
:1013D000039004900220059002A94548FEF760FFA3
:1013E000042002900120039004900220059002A99D
:1013F0004048FEF755FFE020029001200390049042
:101400000220059002A93C48FEF74AFFC820FEF7DB
:1014100037FF0021AE2000F071F80021022000F01B
:101420006DF80021102000F069F80021402000F044
:1014300065F80021B02000F061F80021812000F063
:101440005DF80021CF2000F059F80021A12000F024
:1014500055F80021A62000F051F80021A82000F046
:101460004DF800213F2000F049F80021AD2000F0A8
:1014700045F800218B2000F041F80021332000F0D6
:101480003DF80021C82000F039F80021D32000F0F9
:1014900035F80021084600F031F80021D52000F091
:1014A0002DF80021802000F029F80021D92000F03B
:1014B00025F800211F2000F021F80021DA2000F09B
:1014C0001DF80021122000F019F80021DB2000F0A7
:1014D00015F80021402000F011F8FFF775FD0021FC
:1014E000AF2000F00BF807B000BD00000010024074
:1014F00000080048000C00480004004870B504468D
:101500000E462EB1012204211E48FEF7D3FF04E04F
:10151000002204211B48FEF7CDFF002220211A489B
:10152000FEF7C8FF00251FE0002220214FF0904069
:10153000FEF7C0FF04F0800030B1012280214FF09F
:101540009040FEF7B7FF05E0002280214FF0904069
:10155000FEF7B0FF012220214FF09040FEF7AAFFD6
:101560006006040E681CC5B2082DDDDB01222021B7
:101570000548FEF79FFF012204210248FEF79AFF6B
:1015800070BD0000000C00480004004870B504461F
:101590000D46A01CC4B205F1B001C8B20021FFF78E
:1015A000ADFF102141EA14100021FFF7A7FF04F05E
:1015B0000F000021FFF7A2FF70BD00002DE9F047EA
:1015C00080460D4616461F46DDF820900022402139
:1015D0000F48FEF76FFF032000F06DF8404600F063
:1015E0006AF8284600F067F8304600F064F80024F6
:1015F00004E0FEF725FE3855601CC4B24C45F8DB0C
:10160000012240210248FEF755FFBDE8F0870000A7
:101610000004004870470000F8B50446002623483F
:10162000806D00F0805018B1FFF71CF8054616E0F9
:1016300000BF1E48806D40F080501C4988650846F8
:10164000806D00F08050009000BF00BFFFF70AF8E7
:1016500005461648806D20F0805014498865B5F520
:10166000007F07D1802C10D9A02C01D902260CE0D4
:1016700001260AE0802C01D9032606E0802C01D146
:10168000022602E0702C00D101260948006820F0F3
:1016900007003043064908600846006800F007006C
:1016A000B04201D00120F8BD0020FCE7001002404C
:1016B00000200240704770B5044600251FE000225C
:1016C00020214FF09040FEF7F5FE04F0800030B18D
:1016D000012280214FF09040FEF7ECFE05E0002251
:1016E00080214FF09040FEF7E5FE6006040E0122D7
:1016F00020214FF09040FEF7DDFE681CC5B2082D9A
:10170000DDDB70BD10B5FEF7E1FEFFF738FC10BD64
:1017100010B596B0012005900004069002200F90AD
:101720000321109101211191142112910221149190
:10173000159105A8FFF7EEF80F2000900320019007
:10174000002002900390049004216846FEF792FF67
:101750004FF40070FEF740FFFFF748F84FF47A713E
:10176000B0FBF1F42046FFF7F0FB0420FFF7D8FBB5
:1017700000221146501EFEF7DAFE16B010BD000022
:101780001048006840F470000E4908600E48006878
:1017900040F001000C49086000208860084600689D
:1017A0000A490840084908608814C860084600686B
:1017B00020F48020086000208861C8030149803936
:1017C0000860704788ED00E000100240FFFFF6EA75
:1017D00000BFFEE702E008C8121F08C1002AFAD1C4
:1017E00070477047002001E001C1121F002AFBD1A1
:1017F0007047000000BFFEF771FEFFF789FFFFF79B
:1018000071FDBBE05E48FFF7FFFB4FF4FA70FEF797
:1018100037FD5CA200210846FFF760FC5EA20221B2
:101820000020FFF75BFC61A204210020FFF756FCBB
:1018300063A206210020FFF751FC4FF4FA70FEF777
:101840001FFDFFF7C1FB63A200211820FFF746FC34
:1018500063A202210020FFF741FC66A204210020C0
:10186000FFF73CFC68A206210020FFF737FC4FF48D
:10187000FA70FEF705FDFFF7A7FB68A200210846F6
:10188000FFF72CFC6AA202210020FFF727FC6DA2C3
:1018900004210020FFF722FC6FA206210020FFF7A1
:1018A0001DFC714A06216120FFF7C6FB6F4A062125
:1018B0007120FFF7C1FB4FF4FA70FEF7E1FCFFF770
:1018C00083FB6BA200210846FFF708FC6DA20221F2
:1018D0000020FFF7BFFC71A203210020FFF7BAFC34
:1018E00074A204210020FFF7B5FC78A20521002096
:1018F000FFF7B0FC7BA206210020FFF7ABFC7EA225
:1019000007210020FFF7A6FC4FF4FA70FEF7B8FCA1
:10191000FFF75AFB7DA200210846FFF7DFFB80A2FC
:1019200002210020FFF7DAFB82A204210020FFF74A
:10193000D5FB85A206210020FFF7D0FB4FF4FA70FB
:10194000FEF79EFCFFF740FB84A200210846FFF74C
:10195000C5FB87A202210020FFF7C0FB89A204215A
:101960000020FFF7BBFB8CA206210020FFF7B6FB8F
:101970004FF4FA70FEF784FCFFF726FB42E7000005
:101980000000002031323836342CB4F8D6D0CEC422
:10199000D7D6BFE2000000003136583136BCF2CC59
:1019A000E5BABAD7D6BFE22C00000000BBF2385827
:1019B0003136B5E3D5F341534349492C00000000CB
:1019C000BBF2355837B5E3D5F34153434949C2EB30
:1019D00000000000D6D0BEB0D4B0B5E7D7D3000029
:1019E000D6F7D2AAC9FAB2FA4F4C4544C4A3BFE90C
:1019F00000000000B9CBBFCDD6C1C9CFD5E6B3CF6B
:101A0000B7FECEF100000000B3CFD0C5D3EBD6CAED
:101A1000C1BFB5DAD2BBA3A10000000047423233F8
:101A20003132BCF2CCE5D7D6BFE2BCB0000000003A
:101A3000D3D0CDBCD0CDB9A6C4DCA3ACBFC9D7D45C
:101A400000000000B1E0B4F3D7D6BBF2CDBCCFF1BB
:101A5000BBF2C9FA00000000C6A7D7D6A3ACC0FDF0
:101A6000C8E7A3BA00000000000400202004002002
:101A70003C21402324255E262A28295F2D2B5D2F1B
:101A8000000000003C21402324255E262A28295FEF
:101A90002D2B5D2F3B2E2C3F5B00000058592065FD
:101AA0006C656374726F6E69637320436F2E2C20B4
:101AB000000000004C74642E2065737461626C69D0
:101AC000736865642061742020000000796561728C
:101AD00020323031302E466F637573204F4C4544B1
:101AE000200000004D6F62696C653A313332363543
:101AF000353835393735000054656C3A303735356F
:101B00002D3332393130373135000000B0A1B0A269
:101B1000B0A3B0A4B0A5B0A6B0A7B0A800000000C4
:101B2000B0A9B0AAB0ABB0ACB0ADB0AEB0AFB0B0D1
:101B300000000000B0B1B0B2B0B3B0B4B0B5B0B650
:101B4000B0B7B0B800000000B0B9B0BAB0BBB0BC1C
:101B5000B0BDB0BEB0BFB0C000000000F7DFF7E01E
:101B6000F7E1F7E2F7E3F7E4F7E5F7E60000000056
:101B7000F7E7F7E8F7E9F7EAF7EBF7ECF7EDF7EE59
:101B800000000000F7EFF7F0F7F1F7F2F7F3F7F4E2
:101B9000F7F5F7F600000000F7FEF7F8F7FAF7FBA5
:101BA000F7FCF7FDF7F7F7F9000000000000000070
:101BB00000000000010203040607080900000000FD
:101BC00001020304A0860100400D0300801A0600F4
:101BD00000350C0040420F0080841E0000093D00CB
:101BE00000127A000024F40000366E010048E8017B
:101BF000006CDC02141C0008000000204C040000F3
:101C0000E4010008201D00084C040020040400002A
:101C1000E41700081116060AFE0AC612E012F06266
:101C2000F84EFE7DBBC7EF01053EC7BB7DFE300D04
:101C3000080CFEFE0C082060FEFE60208F7848FE37
:101C400082BABA0309135EAA0101017E6CFEFF038A
:101C500001CBFFFF0F39BBECC0C0C0271918F92713
:101C600001392975990B6CFFFF0C01491A0C22E10F
:101C7000E1E12701396C0F1F1801FB1F0F0F092E1F
:101C800027013925E2928A86167C8282827C12FEA6
:101C9000258292AAC65BC0C01111AD020202FE10DD
:101CA000190D012B300A24A42E24E4242EA4240090
:101CB0000A56F84A4C48F8484C4AF81CC020100113
:101CC000AB20C00A11300A120A07027F02070A126B
:101CD0001E0B0A0A0A7F0402560B980A1F20404076
:101CE0004050205F800A11300EFE8242A29E8A82FE
:101CF000868AB26202FE1C7F404003190129092135
:101D00001809808080BFA5A5A53F041ABF0C1178D3
:101D1000087F24243F24247F081193093D000000FC
:040000050800018965
:00000001FF
