:020000040800F2
:100000005008002009010008CB120008C3120008A4
:10001000C7120008A7010008611A000800000000CC
:100020000000000000000000000000002919000886
:10003000AB010008000000007918000879190008D9
:100040002301000823010008230100082301000800
:1000500023010008230100082301000823010008F0
:1000600023010008230100082301000823010008E0
:1000700023010008230100082301000823010008D0
:1000800023010008230100082301000823010008C0
:1000900023010008230100082301000823010008B0
:1000A00000000000230100082301000823010008CC
:1000B0002301000823010008230100082301000890
:1000C0002301000823010008230100082301000880
:1000D0002301000823010008230100082301000870
:1000E0002301000823010008230100082301000860
:1000F00023010008DFF80CD000F018F80048004792
:10010000851A000850080020064880470648004726
:10011000FEE7FEE7FEE7FEE7FEE7FEE7FEE7FEE7B7
:10012000FEE7FEE7FD190008F5000008064C074D44
:1001300006E0E06840F0010394E8070098471034B7
:10014000AC42F6D3FFF7DAFF581E0008781E00080D
:1001500070B58C1810F8015B15F0070301D110F889
:10016000013B2A1106D110F8012B03E010F8016BB6
:1001700001F8016B5B1EF9D12B0705D40023521E39
:100180000DD401F8013BFAE710F8013BCB1A921CA1
:1001900003E013F8015B01F8015B521EF9D5A1429F
:1001A000D8D3002070BD00BFFEE7704770B50024B3
:1001B000002514E0002201210B4800F015F960062B
:1001C000040E1021084800F007F908B1601CC4B201
:1001D00001221146044800F007F9681CC5B2082D39
:1001E000E8DB204670BD00000000024031B500246D
:1001F00000F000F9044600BF00F0FCF8001B009975
:100200008842F9D338BD000078B5034600220024A7
:100210000020CAE0012696400D6805EA0604002C7D
:1002200071D04D68022D02D04D68122D13D1D60821
:1002300003F1200555F826005507EE0E0F25B540B1
:10024000A8435607F60E0D69B5402843D60803F1BA
:10025000200545F82600186856000325B540A84338
:100260000D7905F003055600B540284318604D6828
:10027000012D08D04D68022D05D04D68112D02D0FA
:100280004D68122D13D1986856000325B540A84338
:100290005600CD68B54028439860586801259540C0
:1002A000A8430D79C5F30015954028435860D868D8
:1002B00056000325B540A84356008D68B540284335
:1002C000D8604D6805F08055B5F1805F6CD100BFF6
:1002D000394D2D6845F00105374E356035462D689E
:1002E00005F00105009500BF00BF344D960855F894
:1002F000260095072E0F0F25B540A843304DAB4281
:1003000002D1002515E04FE02E4DAB4201D1012571
:100310000FE02D4DAB4201D102250AE02B4DAB423F
:1003200001D1032505E02A4DAB4201D1042500E0AF
:1003300005259607360FB5402843204D960845F809
:100340002600244D2868A0434D6805F48035B5F596
:10035000803F00D120431F4D28602D1D2868A043F9
:100360004D6805F40035B5F5003F00D12043194D27
:100370002D1D28602D1D2868A0434D6805F48015AB
:10038000B5F5801F00D12043124D083528602D1D82
:100390002868A0434D6805F40015B5F5001F00D18D
:1003A00020430C4D0C352860521C0D68D540002DA3
:1003B0007FF430AF78BD00002038024008000140D3
:1003C000000002400004024000080240000C02400D
:1003D0000010024000040140024613690B400BB1BB
:1003E000012000E0002070470AB1816101E00B04A8
:1003F000836170470148006870470000480400208E
:1004000002480068401C0149086070474804002009
:1004100010B5032000F05CF8002000F005F800F0B3
:1004200017F8002010BD000070B5044607480068AA
:100430004FF47A71B0FBF1F5284600F024FF00225A
:100440002146501E00F005F8002070BD4004002039
:1004500070472DE9F05F80460D461646002700F0F4
:1004600035FF074639462A46334601F00700C0F1FA
:10047000070ABAF1040F02D94FF0040A01E0C0F1F3
:10048000070AD14600F1040ABAF1070F02D24FF071
:10049000000A01E0A0F1030AD4464FF0010A0AFA6B
:1004A00009FAAAF1010A0AEA020A0AFA0CFA4FF05A
:1004B000010B0BFA0CFBABF1010B0BEA030B4AEA45
:1004C0000B042146404600F009FFBDE8F09F000004
:1004D00000BF00F00702064B19684FF6FF031940F2
:1004E000044B0B4343EA0221014B196000BF7047E4
:1004F0000CED00E00000FA0570B504460D4600263C
:10050000B348006800F00100A84218D200BF012DD6
:1005100005D1AF48006840F00400AD490860AC4820
:10052000006820F001002843A949086000BF084680
:10053000006800F00100A84201D0012070BD2078C1
:1005400000F00200022807D1A248006820F0F00065
:10055000A16808439F490860207800F00100002846
:100560007BD06068022821D12020010391FAA1F1FB
:10057000B1FA81F108430121B1EB601F03D1954825
:100580000838006802E093482C30006820210A03F4
:1005900092FAA2F2B2FA82F2114301F01F02012193
:1005A0009140084000286CD10120C7E7606803280B
:1005B00020D12020010591FAA1F1B1FA81F108437F
:1005C0000121B1EB601F03D182480838006802E0C6
:1005D00080482C30006820210A0592FAA2F2B2FA73
:1005E00082F2114301F01F02012191400840A8BB93
:1005F0000120A3E76068012820D12020022191FA80
:10060000A1F1B1FA81F108430121B1EB601F03D1DF
:1006100070480838006802E06E482C3000682021DD
:10062000022292FAA2F2B2FA82F2114301F01F0200
:1006300001219140084088B901207FE72020010175
:1006400091FAA1F1B1FA81F108430121B1EB601FE8
:1006500005D160480838006804E069E011E05D48B1
:100660002C30006820210A0192FAA2F2B2FA82F23A
:10067000114301F01F0201219140084008B90120F7
:100680005CE75448006820F0030061680843514962
:100690000860FFF7AFFE06466068022810D108E048
:1006A000FFF7A8FE801B41F28831884201D9032060
:1006B00044E74848006800F00C000828F0D137E013
:1006C0006068032810D108E0FFF794FE801B41F218
:1006D0008831884201D9032030E73E48006800F0A5
:1006E0000C000C28F0D123E06068012810D108E04C
:1006F000FFF780FE801B41F28831884201D9032038
:100700001CE73448006800F00C000428F0D10FE02A
:1007100008E0FFF76FFE801B41F28831884201D963
:1007200003200BE72B48006800F00C000028F0D1F4
:100730002748006800F00100A84218D900BF012D29
:1007400005D12348006840F0040021490860204892
:10075000006820F0010028431D49086000BF0846DA
:10076000006800F00100A84201D00120E6E62078F0
:1007700000F00400042807D11648006820F4E06067
:10078000E168084313490860207800F00800082851
:1007900008D11048006820F46050216940EAC10087
:1007A0000C49086000F022F80A49096801F0F001DC
:1007B000F02292FAA2F2B2FA82F2D140064A515CD9
:1007C000C840064908600020FFF72EFE0020B5E66D
:1007D000003C0240083802403D1E00084004002052
:1007E000014800687047000040040020F0B5002177
:1007F00000230024002200250020254E316801F04E
:100800000C067EB3042E04D0082E04D00C2E2AD160
:1008100003E020483AE0204838E001F470164FF435
:10082000701797FAA7F7B7FA87F7FE401B4FBB5D23
:1008300001F440064FF4400797FAA7F7B7FA87F795
:10084000FE40741C124E366806F4803626B1124EF5
:100850005E43B6FBF4F203E00E4E5E43B6FBF4F2E9
:10086000104613E000E000BF094E361F366806F45C
:1008700060464FF4604797FAA7F7B7FA87F726FA6A
:1008800007F56E1C0127B740F80300BF00BFF0BD9D
:10089000083802400024F40000366E01341E0008BF
:1008A000F8B504460025207800F00100002879D032
:1008B000F748006800F00C0008280CD0F4480068E5
:1008C00000F00C000C282BD1F148006800F48030B7
:1008D000B0F5803F24D12020010391FAA1F1B1FAB3
:1008E00081F108430121B1EB601F03D1E8480838CA
:1008F000006802E0E6482C30006820210A0392FAE2
:10090000A2F2B2FA82F2114301F01F0201219140DA
:1009100008400028CBD06068002843D10120F8BDF2
:1009200000BF6068012808D1D9480838006840F441
:100930008030D749083908602DE0606868B9D4482C
:100940000838006820F48030D1490839086008462A
:10095000006820F4802008601DE0606805280DD143
:10096000CB480838006840F48020C949083908603D
:100970000846006840F4803008600CE0C44808383D
:10098000006820F48030C2490839086008460068D1
:1009900020F48020086000BF606860B3FFF72AFD84
:1009A000054607E052E0FFF725FD401B642801D90A
:1009B0000320B4E72020010391FAA1F1B1FA81F1FB
:1009C00008430121B1EB601F03D1B148083800682A
:1009D00002E0AF482C30006820210A0392FAA2F20C
:1009E000B2FA82F2114301F01F0201219140084046
:1009F0000028D8D02AE0FFF7FDFC054606E0FFF707
:100A0000F9FC401B642801D9032088E7202001035A
:100A100091FAA1F1B1FA81F108430121B1EB601F14
:100A200003D19B480838006802E099482C300068E0
:100A300020210A0392FAA2F2B2FA82F2114301F0E3
:100A40001F020121914008400028D8D1207800F0F1
:100A50000200022845D18E48006800F00C000428EE
:100A60000AD08B48006800F00C000C283BD1884865
:100A7000006800F48030A8BB2020022191FAA1F187
:100A8000B1FA81F108430121B1EB601F03D1804825
:100A90000838006802E07E482C30006820210222DD
:100AA00092FAA2F2B2FA82F2114301F01F0201217E
:100AB0009140084020B1E068012801D001202EE7D4
:100AC0007348001F006820F4F8504FF4F85292FA6F
:100AD000A2F2B2FA82F22169914008436C49091FDF
:100AE00008607DE0FFE7E068F0B3012090FAA0F134
:100AF000B1FA81F1674A42F82100FFF77BFC054615
:100B000006E0FFF777FC401B022801D9032006E727
:100B10002020022191FAA1F1B1FA81F108430121CB
:100B2000B1EB601F03D15A480838006802E058480A
:100B30002C3000682021022292FAA2F2B2FA82F24C
:100B4000114301F01F020121914008400028D8D034
:100B50004F48001F006820F4F8504FF4F85292FA02
:100B6000A2F2B2FA82F200E006E021699140084365
:100B70004749091F086033E00020012191FAA1F1E3
:100B8000B1FA81F1434A42F82100FFF733FC0546F0
:100B900006E0FFF72FFC401B022801D90320BEE628
:100BA0002020022191FAA1F1B1FA81F1084301213B
:100BB000B1EB601F03D136480838006802E03448C2
:100BC0002C3000682021022292FAA2F2B2FA82F2BC
:100BD000114301F01F020121914008400028D8D1A3
:100BE000207800F01000102873D12948006800F028
:100BF0000C0000286ED12020010191FAA1F1B1FA78
:100C000081F108430121B1EB601F03D1204808386E
:100C1000006802E01E482C30006820210A0192FA88
:100C2000A2F2B2FA82F2114301F01F0201219140B7
:100C3000084018B1A06908B9012070E61449091FDD
:100C4000206A096801F46041884225D9206A00F0D1
:100C500015FE08B1012062E60D48001F006820F46F
:100C60006040216A08430A49091F08600846006875
:100C700020F07F404FF07F4292FAA2F2B2FA82F265
:100C8000E169914008430249091F086023E0000020
:100C90000838024000004742FC48006820F46040E9
:100CA000216A0843F94908600846006820F07F403F
:100CB0004FF07F4292FAA2F2B2FA82F2E1699140D9
:100CC0000843F2490860206A00F0D8FD18B10120FD
:100CD00025E6A5E01FE04FF4604191FAA1F1B1FAD9
:100CE00081F1206AC840401C01218140C803E749C6
:100CF000091D096801F0F001F02292FAA2F2B2FA9D
:100D000082F2D140E24A515CC840E24908600020CA
:100D1000FFF78AFB84E0A069F0B30120010291FA99
:100D2000A1F1B1FA81F1DC4A42F82100FFF762FB40
:100D3000054606E0FFF75EFB401B022801D90320B1
:100D4000EDE52020010191FAA1F1B1FA81F108430A
:100D50000121B1EB601F03D1CC48001F006802E005
:100D6000CA483030006820210A0192FAA2F2B2FA91
:100D700082F2114301F01F02012191400840002836
:100D8000D8D0C248006820F46040216A0843BF49B7
:100D900008600846006800E00DE020F07F404FF05A
:100DA0007F4292FAA2F2B2FA82F2E16991400843DC
:100DB000B649086034E000204FF4807191FAA1F147
:100DC000B1FA81F1B44A42F82100FFF713FB05465E
:100DD00006E0FFF70FFB401B022801D903209EE528
:100DE0002020010191FAA1F1B1FA81F1084301211A
:100DF000B1EB601F03D1A548001F006802E0A348C3
:100E00003030006820210A0192FAA2F2B2FA82F28E
:100E1000114301F01F020121914008400028D8D160
:100E2000207800F0080008286ED16069A8B301207E
:100E300090FAA0F1B1FA81F1974A02EB8101C1F871
:100E40008006FFF7D7FA054606E0FFF7D3FA401B06
:100E5000022801D9032062E54020022191FAA1F184
:100E6000B1FA81F108430121B1EB601F03D187483A
:100E7000001F006802E085483030006840210222EF
:100E800092FAA2F2B2FA82F2114301F01F0201219A
:100E9000914008400028D8D036E0FFE7002101202B
:100EA00090FAA0F0B0FA80F07B4A02EB8000C0F824
:100EB0008016FFF79FFA054606E0FFF79BFA401BF6
:100EC000022801D903202AE54020022191FAA1F14C
:100ED000B1FA81F108430121B1EB601F03D16B48E6
:100EE000001F006802E0694830300068402102229B
:100EF00092FAA2F2B2FA82F2114301F01F0201212A
:100F0000914008400028D8D1207800F0040004283F
:100F100075D100265D482030006800F0805080B90F
:100F200000BF5A482030006840F0805057492031B7
:100F300008600846006800F08050009000BF00BFC5
:100F400001265648006800F48070B0B95348006824
:100F500040F4807051490860FFF74CFA054606E0FE
:100F6000FFF748FA401B642801D90320D7E44B4817
:100F7000006800F480700028F2D000BFA06801284B
:100F800008D142483030006840F480703F49303129
:100F900008602DE0A06868B93C483030006820F453
:100FA00080703A49303108600846006820F480605B
:100FB00008601DE0A06805280DD134483030006875
:100FC00040F480603149303108600846006840F4E0
:100FD000807008600CE02D483030006820F480708C
:100FE0002A49303108600846006820F480600860B3
:100FF00000BFA06870B3FFF7FDF9054609E06AE09D
:10100000FFF7F8F9401B41F28831884201D90320EB
:1010100085E44020C10091FAA1F1B1FA81F10843C1
:101020000121B1EB601F03D11848001F006802E0E6
:101030001648303000684021CA0092FAA2F2B2FA93
:1010400082F2114301F01F02012191400840002863
:10105000D6D035E0FFF7CEF9054608E0FFF7CAF92C
:10106000401B41F28831884201D9032057E44020D7
:10107000C10091FAA1F1B1FA81F108430121B1EB6C
:10108000601F0DD10148001F00680BE004380240CA
:101090003D1E000840040020000047420070004050
:1010A0006C4800684021CA0092FAA2F2B2FA82F2B9
:1010B000114301F01F020121914008400028CDD1C9
:1010C000012E07D163481038006820F08050614934
:1010D0001039086000BF606AF0B35E482C380068C1
:1010E00000F00C000C287AD0606A022879D1002028
:1010F0004FF0807191FAA1F1B1FA81F1564A42F8AC
:101100002100FFF777F9054606E0FFF773F9401B6A
:10111000022801D9032002E42020010591FAA1F15F
:10112000B1FA81F108430121B1EB601F03D14948B5
:101130003438006801E04748006820210A0592FA27
:10114000A2F2B2FA82F2114301F01F020121914092
:1011500008400028D9D100E07AE0D4E90A01084328
:10116000216B08433B492C39096821F47D01084370
:1011700038492C3908600120010691FAA1F1B1FA31
:1011800081F1354A42F82100FFF734F9054606E0BF
:10119000FFF730F9401B022801D9032009E4202081
:1011A000010591FAA1F1B1FA81F108430121B1EBF6
:1011B000601F03D127483438006801E025480068E3
:1011C00020210A0592FAA2F2B2FA82F2114301F04A
:1011D0001F020121914008400028D9D038E035E0B5
:1011E000FFE700214FF0807090FAA0F0B0FA80F095
:1011F000194A42F82010FFF7FDF8054606E0FFF710
:10120000F9F8401B022801D9032058E420200105E9
:1012100091FAA1F1B1FA81F108430121B1EB601F0C
:1012200003D10C483438006801E00A4800682021E6
:101230000A0592FAA2F2B2FA82F2114301F01F02F9
:101240000121914008400028D9D101E0012036E475
:10125000002034E43438024000004742042808D11A
:101260004FF0E021096941F004014FF0E0221161E3
:1012700007E04FF0E021096921F004014FF0E0227E
:1012800011617047704770B504462546681EB0F17D
:10129000807F01D301200FE0681E4FF0E0214861FC
:1012A0000F214FF0FF3000F019F800204FF0E0213F
:1012B000886107200861002070BD10B5FFF7E2FFCC
:1012C00010BD00BFFEE700BFFEE7704702480068A0
:1012D000C0F30220704700000CED00E010B50028BC
:1012E00007DA0A07140E054A00F00F031B1FD45437
:1012F00003E00A07130E024A135410BD18ED00E074
:1013000000E400E070B5002419E004F1B001C8B2B7
:10131000002100F02BFA0021102000F027FA002114
:10132000022000F023FA002505E00121002000F052
:101330001DFA681CC5B2802DF7DB601CC4B2082CF6
:10134000E3DB70BD10B504461CB90021A62000F0F7
:101350000DFA012C03D10021A72000F007FA10BDDF
:1013600010B504463CB90021C82000F0FFF9002167
:10137000A12000F0FBF9012C07D10021C02000F0D2
:10138000F5F90021A02000F0F1F910BD2DE9F041A0
:1013900080460D461446002712E02946404600F0DC
:1013A00027FA002606E02078012100F0DFF9641C0E
:1013B000701CC6B2102EF6DB681CC5B2781CC7B212
:1013C000022FEADBBDE8F0812DE9F04106460F4629
:1013D00014463946304600F00BFA002506E0207826
:1013E000012100F0C3F9641C681CC5B2062DF6DBB0
:1013F000BDE8F0812DE9F04180460D4614460027F6
:1014000012E02946404600F0F3F9002606E0207875
:10141000012100F0ABF9641C701CC6B2082EF6DB8B
:10142000681CC5B2781CC7B2022FEADBBDE8F081A8
:101430002DE9F0478EB006468A4615460024A6E000
:10144000285DB02836DB285DF72833DC601C285C7B
:10145000A1282FDB285DB0385E2148434F49086042
:10146000601C285C00F2AD20096808444B49086004
:10147000084600684001086008460068C0F3074756
:1014800008460088C0F30728084690F800902020FE
:1014900006AB4A4641460090384600F0C1F906AA1C
:1014A00051463046FFF772FF06F11000C6B2A01C8D
:1014B000C4B26CE0285DA12835DB285DA32832DCAE
:1014C000601C285CA1282EDB285DA1385E214843E2
:1014D00032490860601C285CA138096808442F491B
:1014E0000860084600684001086008460068C0F3CC
:1014F000074708460088C0F30728084690F8009080
:10150000202006AB4A4641460090384600F088F954
:1015100006AA51463046FFF739FF06F11000C6B261
:10152000A01CC4B233E0285D20282EDB285D7E2875
:101530002BDC285D20381949086008460068000146
:1015400008600846006816490844144908600846BF
:101550000068C0F3074708460088C0F3072808461C
:1015600090F80090102002AB4A4641460090384661
:1015700000F056F902AA51463046FFF73BFF06F14C
:101580000800C6B2601CC4B201E0601CC4B2285D91
:1015900000283FF755AF0EB0BDE8F08744040020A7
:1015A00080CF03002DE9FE4F80468A461546002471
:1015B00033E0285D20282EDB285D7E282BDC285D8B
:1015C00020381849086008460068C00008600846CE
:1015D0000068154908441349086008460068C0F3CC
:1015E000074908460088C0F3072608460778082000
:1015F00001AB3A4631460090484600F011F901AA85
:1016000051464046FFF7E0FE08F1060000F0FF08F3
:10161000601CC4B201E0601CC4B2285D0028C8DCB4
:10162000BDE8FE8F44040020C0BF030000B587B0B2
:1016300000BF4C48006840F001004A490860084675
:10164000006800F00100019000BF00BF2F20029051
:101650000120039004900220059002A94248FEF761
:10166000D3FD10200290002003900120049002205E
:10167000059002A93C48FEF7C7FD01223F213A48E8
:10168000FEF7B2FEC820FEF7B1FD0021AE2000F04B
:101690006DF80021022000F069F80021102000F010
:1016A00065F80021402000F061F80021B02000F032
:1016B0005DF80021812000F059F80021CF2000F0D2
:1016C00055F80021A12000F051F80021A62000F0DB
:1016D0004DF80021A82000F049F800213F2000F03B
:1016E00045F80021AD2000F041F800218B2000F0EA
:1016F0003DF80021332000F039F80021C82000F027
:1017000035F80021D32000F031F80021084600F020
:101710002DF80021D52000F029F80021802000F0CC
:1017200025F80021D92000F021F800211F2000F029
:101730001DF80021DA2000F019F80021122000F035
:1017400015F80021DB2000F011F80021402000F006
:101750000DF8FFF7D7FD0021AF2000F007F807B024
:1017600000BD00001C3802400000024070B5044675
:101770000E462EB1012204211C48FEF735FE04E07E
:10178000002204211948FEF72FFE002208211748E5
:10179000FEF72AFE00251BE0002201211348FEF778
:1017A00023FE04F0800028B1012202210F48FEF739
:1017B0001BFE04E0002202210C48FEF715FE012268
:1017C00011460A48FEF710FE6006040E681CC5B2FA
:1017D000082DE1DB012208210448FEF705FE012265
:1017E00004210248FEF700FE70BD00000000024028
:1017F00070B504460D46A01CC4B205F1B001C8B2D4
:101800000021FFF7B3FF102141EA14100021FFF778
:10181000ADFF04F00F000021FFF7A8FF70BD00002E
:101820002DE9F04780460D4616461F46DDF820900C
:10183000002220210F48FEF7D7FD032000F076F8A4
:10184000404600F073F8284600F070F8304600F08B
:101850006DF8002404E0FEF7A9FC3855601CC4B202
:101860004C45F8DB012220210248FEF7BDFDBDE812
:10187000F0870000000002407047000018B50246E3
:10188000002300212548006800F0F00050BB2348E9
:101890001C30006800F0805020B12148006800F43E
:1018A000C05318E000BF1D481C30006840F0805055
:1018B0001A4C1C3420602046006800F080500090D4
:1018C00000BF00BF1648006800F4C05320460068FF
:1018D00020F080502060B3F5C05F03D1B2F5404FD7
:1018E00000D1012100BF012905D10E48006840F058
:1018F00004000C4C20600B48006820F001000843F5
:10190000084C206000BF2046006800F001008842BB
:1019100001D0012018BD0020FCE70000083802407B
:1019200000700040003C02407047000070B5044663
:1019300000251BE0002201210E48FEF755FD04F0B2
:10194000800028B1012202210A48FEF74DFD04E083
:10195000002202210748FEF747FD6006040E01221F
:1019600011460448FEF740FD681CC5B2082DE1DBB6
:1019700070BD00000000024010B5FEF741FDFFF70A
:101980009CFC10BD10B592B01B48006820F4C050FC
:1019900040F400601849086002200590012008907A
:1019A0001020099002200E9000210F911091410506
:1019B000119105A8FEF774FF0F20009003200190FD
:1019C000002002900390049001216846FEF794FDE8
:1019D000FEF706FF4FF47A71B0FBF1F42046FFF7F3
:1019E00052FC0420FFF73AFC00221146501EFEF77D
:1019F00030FD12B010BD00000070004014480068B7
:101A000040F480701249086011480830006811499C
:101A100008400F49083108600D4800680E49084029
:101A20000B4908600846006820F4802008600848D8
:101A30000830006820F47D00054908310860002066
:101A4000091D08604FF000600449086070470000FD
:101A5000003802400CC0FF88FEFFFEEE08ED00E0FB
:101A600000BFFEE702E008C8121F08C1002AFAD131
:101A700070477047002001E001C1121F002AFBD10E
:101A80007047000000BFFEF7C3FCFFF77BFFFFF7C6
:101A9000CDFD0020FFF756FC0020FFF761FCB4E00D
:101AA0005AA200210846FFF7C3FC5DA202210020D4
:101AB000FFF7BEFC5FA204210020FFF7B9FC62A281
:101AC00006210020FFF7B4FC4FF4FA70FEF78EFBFE
:101AD000FFF718FC61A200211820FFF7A9FC62A201
:101AE00002210020FFF7A4FC64A204210020FFF7DC
:101AF0009FFC67A206210020FFF79AFC4FF4FA70C2
:101B0000FEF774FBFFF7FEFB66A200210846FFF715
:101B10008FFC69A202210020FFF78AFC6BA204213E
:101B20000020FFF785FC6EA206210020FFF780FC55
:101B30006F4A06216120FFF729FC6E4A06217120B9
:101B4000FFF724FC4FF4FA70FEF750FBFFF7DAFBC7
:101B500069A200210846FFF76BFC6CA2022100205D
:101B6000FFF720FD6FA203210020FFF71BFD73A2EA
:101B700004210020FFF716FD76A205210020FFF7C3
:101B800011FD7AA206210020FFF70CFD7CA207219F
:101B90000020FFF707FD4FF4FA70FEF727FBFFF771
:101BA000B1FB7CA200210846FFF742FC7EA2022185
:101BB0000020FFF73DFC81A204210020FFF738FC44
:101BC00083A206210020FFF733FC4FF4FA70FEF7E2
:101BD0000DFBFFF797FB83A200210846FFF728FCC7
:101BE00085A202210020FFF723FC88A20421002007
:101BF000FFF71EFC8AA206210020FFF719FC4FF414
:101C0000FA70FEF7F3FAFFF77DFB49E73132383619
:101C1000342CB4F8D6D0CEC4D7D6BFE20000000032
:101C20003136583136BCF2CCE5BABAD7D6BFE22C41
:101C300000000000BBF238583136B5E3D5F341530C
:101C40004349492C00000000BBF2355837B5E3D5B5
:101C5000F34153434949C2EB00000000D6D0BEB067
:101C6000D4B0B5E7D7D30000D6F7D2AAC9FAB2FAF2
:101C70004F4C4544C4A3BFE900000000B9CBBFCD21
:101C8000D6C1C9CFD5E6B3CFB7FECEF10000000074
:101C9000B3CFD0C5D3EBD6CAC1BFB5DAD2BBA3A1EF
:101CA00000000000474232333132BCF2CCE5D7D6D7
:101CB000BFE2BCB000000000D3D0CDBCD0CDB9A6EF
:101CC000C4DCA3ACBFC9D7D400000000B1E0B4F3BA
:101CD000D7D6BBF2CDBCCFF1BBF2C9FA00000000F1
:101CE000C6A7D7D6A3ACC0FDC8E7A3BA00000000C2
:101CF00000040020200400203C21402324255E26EF
:101D00002A28295F2D2B5D2F000000003C21402355
:101D100024255E262A28295F2D2B5D2F3B2E2C3F64
:101D20005B000000585920656C656374726F6E69C2
:101D3000637320436F2E2C20000000004C74642E2F
:101D40002065737461626C697368656420617420D6
:101D5000200000007965617220323031302E466FEC
:101D6000637573204F4C4544200000004D6F62693D
:101D70006C653A3133323635353835393735000010
:101D800054656C3A303735352D333239313037318F
:101D900035000000B0A1B0A2B0A3B0A4B0A5B0A619
:101DA000B0A7B0A800000000B0A9B0AAB0ABB0AC1A
:101DB000B0ADB0AEB0AFB0B000000000B0B1B0B2E6
:101DC000B0B3B0B4B0B5B0B6B0B7B0B800000000B2
:101DD000B0B9B0BAB0BBB0BCB0BDB0BEB0BFB0C09F
:101DE00000000000F7DFF7E0F7E1F7E2F7E3F7E4E0
:101DF000F7E5F7E600000000F7E7F7E8F7E9F7EAAC
:101E0000F7EBF7ECF7EDF7EE00000000F7EFF7F077
:101E1000F7F1F7F2F7F3F7F4F7F5F7F60000000043
:101E2000F7FEF7F8F7FAF7FBF7FCF7FDF7F7F7F926
:101E300000000000030406080C1018203000000009
:101E4000000000000001020304060708090000006A
:101E50000001020304000000781E000800000020BA
:101E60004C04000050010008841F00084C040020AE
:101E700004040000741A00081116060AFE0AC612AD
:101E8000E012F062F84EFE7DBBC7EF01053EC7BB16
:101E90007DFE300D080CFEFE0C082060FEFE60206A
:101EA0008F7848FE82BABA0309135EAA0101017E47
:101EB0006CFEFF0301CBFFFF0F39BBECC0C0C02796
:101EC0001918F92701392975990B6CFFFF0C014985
:101ED0001A0C22E1E1E12701396C0F1F1801FB1FE9
:101EE0000F0F092E27013925E2928A86167C8282FD
:101EF000827C12FE258292AAC65BC0C01111AD027F
:101F00000202FE10190D012B300A24A42E24E42411
:101F10002EA424000A56F84A4C48F8484C4AF81CAB
:101F2000C0201001AB20C00A11300A120A07027F3C
:101F300002070A121E0B0A0A0A7F0402560B980AAD
:101F40001F2040404050205F800A11300EFE824228
:101F5000A29E8A82868AB26202FE1C7F40400319DA
:101F6000012909211809808080BFA5A5A53F041A71
:101F7000BF0C1178087F24243F24247F089468FF35
:041F80001F0000003E
:04000005080000F5FA
:00000001FF
