:020000040800F2
:10000000900B00200D02000839040008310400089C
:1000100035040008BD0200086F0C00080000000055
:10002000000000000000000000000000CD090008F2
:10003000C102000800000000A9090008250B000803
:1000400027020008270200082702000827020008EC
:1000500027020008270200082702000827020008DC
:1000600027020008270200082702000827020008CC
:1000700027020008270200082702000827020008BC
:1000800027020008270200082702000827020008AC
:10009000270200082702000827020008270200089C
:1000A000270200082702000827020008270200088C
:1000B000270200082702000827020008270200087C
:1000C000270200082702000827020008270200086C
:1000D00027020008890B00082702000827020008F1
:1000E000270200082702000827020008270200084C
:1000F000270200082702000827020008270200083C
:10010000270200082702000827020008270200082B
:10011000270200082702000827020008270200081B
:10012000270200082702000827020008270200080B
:1001300000F002F800F05AF80AA090E8000C82449F
:100140008344AAF10107DA4501D100F04FF8AFF27C
:10015000090EBAE80F0013F0010F18BFFB1A43F0A5
:1001600001031847680F0000880F00000A444FF091
:10017000000C10F8013B13F0070408BF10F8014B06
:100180001D1108BF10F8015B641E05D010F8016B4B
:10019000641E01F8016BF9D113F0080F1EBF10F8AF
:1001A000014BAD1C0C1B09D16D1E58BF01F801CBD2
:1001B000FAD505E014F8016B01F8016B6D1EF9D555
:1001C0009142D6D37047000000230024002500266A
:1001D000103A28BF78C1FBD8520728BF30C148BFAA
:1001E0000B6070471FB51FBD10B510BD00F033F890
:1001F0001146FFF7F7FF00F087FD00F051F803B458
:10020000FFF7F2FF03BC00F034FD0000094880470F
:1002100009480047FEE7FEE7FEE7FEE7FEE7FEE7E8
:10022000FEE7FEE7FEE7FEE704480549054A064B00
:1002300070470000290B00083101000890050020DC
:10024000900B002090070020900700207047704717
:10025000704770477047754600F02CF8AE460500B1
:100260006946534620F00700854618B020B5FFF7D1
:10027000DBFFBDE820404FF000064FF000074FF0D5
:1002800000084FF0000B21F00701AC46ACE8C009B4
:10029000ACE8C009ACE8C009ACE8C0098D467047BD
:1002A00010B50446AFF300802046BDE81040FFF7CC
:1002B000A6BF0000004870472C05002000BFFEE7E5
:1002C00070472DE9F041024600250026002000235A
:1002D0000024002791F803C00CF00F0591F803C02B
:1002E0000CF0100CBCF1000F03D091F802C04CEAE6
:1002F000050591F800C0BCF1000F31D01468002052
:100300002BE04FF0010C0CFA00F3B1F800C00CEA3E
:1003100003069E4220D183004FF00F0C0CFA03F726
:10032000BC4305FA03FC4CEA040491F803C0BCF199
:10033000280F06D14FF0010C0CFA00FCC2F814C0D3
:100340000AE091F803C0BCF1480F05D14FF0010C51
:100350000CFA00FCC2F810C0401C0828D1D314606D
:10036000B1F800C0BCF1FF0F34DD546800202EE06E
:1003700000F1080C4FF0010808FA0CF3B1F800C0C6
:100380000CEA03069E4221D183004FF00F0C0CFAB9
:1003900003F7BC4305FA03FC4CEA040491F803C0DC
:1003A000BCF1280F05D100F1080C08FA0CF8C2F8CE
:1003B000148091F803C0BCF1480F07D100F1080C7C
:1003C0004FF0010808FA0CF8C2F81080401C082809
:1003D000CED35460BDE8F0810246002093680B4004
:1003E0000BB1012000E000207047416170470161BE
:1003F0007047000070B50024002512E001210B4871
:10040000FFF7F3FF6006040E10210848FFF7E4FF32
:1004100008B1601CC4B201210448FFF7E8FF681C62
:10042000C5B2082DEADB204670BD0000000801407F
:1004300000BFFEE700BFFEE7704770B5002419E07B
:1004400004F1B001C8B2002100F034FA00211020FC
:1004500000F030FA0021022000F02CFA002505E01F
:100460000121002000F026FA681CC5B2802DF7DBC0
:10047000601CC4B2082CE3DB70BD10B504461CB987
:100480000021A62000F016FA012C03D10021A7209C
:1004900000F010FA10BD10B504463CB90021C82088
:1004A00000F008FA0021A12000F004FA012C07D185
:1004B0000021C02000F0FEF90021A02000F0FAF990
:1004C00010BD70B50446002510E02946002000F05C
:1004D00029FA002606E02078012100F0EBF9641CDF
:1004E000701CC6B2802EF6DB681CC5B2082DECDB92
:1004F00070BD2DE9F04180460D461446002712E0FC
:100500002946404600F00EFA002606E02078012138
:1005100000F0D0F9641C701CC6B2102EF6DB681C0B
:10052000C5B2781CC7B2022FEADBBDE8F0812DE925
:10053000F04106460F4614463946304600F0F2F9BF
:10054000002506E02078012100F0B4F9641C681C45
:10055000C5B2062DF6DBBDE8F0812DE9F0418046FD
:100560000D461446002712E02946404600F0DAF90D
:10057000002606E02078012100F09CF9641C701C24
:10058000C6B2082EF6DB681CC5B2781CC7B2022FB3
:10059000EADBBDE8F08100002DE9F0478EB00646A9
:1005A0008A4615460024A6E0285DB02836DB285D83
:1005B000F72833DC601C285CA1282FDB285DB038CD
:1005C0005E2148434F490860601C285C00F2AD2062
:1005D000096808444B490860084600684001086003
:1005E00008460068C0F3074708460088C0F307289C
:1005F000084690F80090202006AB4A4641460090FD
:10060000384600F0A7F906AA51463046FFF771FFB9
:1006100006F11000C6B2A01CC4B26CE0285DA1288F
:1006200035DB285DA32832DC601C285CA1282EDB8A
:10063000285DA1385E21484332490860601C285C6F
:10064000A138096808442F4908600846006840013D
:10065000086008460068C0F3074708460088C0F3F2
:100660000728084690F80090202006AB4A464146ED
:100670000090384600F06EF906AA51463046FFF762
:1006800038FF06F11000C6B2A01CC4B233E0285DEA
:1006900020282EDB285D7E282BDC285D2038194998
:1006A00008600846006800010860084600681649AE
:1006B00008441449086008460068C0F30747084624
:1006C0000088C0F30728084690F80090102002AB7D
:1006D0004A4641460090384600F03CF902AA51468D
:1006E0003046FFF73AFF06F10800C6B2601CC4B2FC
:1006F00001E0601CC4B2285D00283FF755AF0EB082
:10070000BDE8F0870000002080CF03002DE9FE4FF8
:1007100080468A461546002433E0285D20282EDBDB
:10072000285D7E282BDC285D2038184908600846A3
:100730000068C0000860084600681549084413496D
:10074000086008460068C0F3074908460088C0F3FF
:10075000072608460778082001AB3A463146009044
:10076000484600F0F7F801AA51464046FFF7DFFE81
:1007700008F1060000F0FF08601CC4B201E0601C34
:10078000C4B2285D0028C8DCBDE8FE8F0000002050
:10079000C0BF030008B50121042000F007F92F2095
:1007A000ADF8000010208DF8030003208DF8020042
:1007B00069463F48FFF785FD1020ADF8000048204E
:1007C0008DF8030069463A48FFF77BFD3F21384822
:1007D000FFF70DFEC82000F071FA0021AE2000F0F6
:1007E00069F80021022000F065F80021102000F0D7
:1007F00061F80021402000F05DF80021B02000F0F9
:1008000059F80021812000F055F80021CF2000F098
:1008100051F80021A12000F04DF80021A62000F0A1
:1008200049F80021A82000F045F800213F2000F001
:1008300041F80021AD2000F03DF800218B2000F0B0
:1008400039F80021332000F035F80021C82000F0ED
:1008500031F80021D32000F02DF80021084600F0E7
:1008600029F80021D52000F025F80021802000F093
:1008700021F80021D92000F01DF800211F2000F0F0
:1008800019F80021DA2000F015F80021122000F0FC
:1008900011F80021DB2000F00DF80021402000F0CD
:1008A00009F8FFF7CAFD0021AF2000F003F808BDEA
:1008B0000008014070B504460E4626B104211848D0
:1008C000FFF795FD03E004211548FFF78EFD082191
:1008D0001348FFF78AFD002517E001211048FFF7B4
:1008E00084FD04F0800020B102210D48FFF77FFD58
:1008F00003E002210A48FFF778FD01210848FFF7CD
:1009000076FD6006040E681CC5B2082DE5DB0821E3
:100910000348FFF76CFD04210148FFF768FD70BD37
:100920000008014070B504460D46A01CC4B205F194
:10093000B001C8B20021FFF7BDFF102141EA141039
:100940000021FFF7B7FF04F00F000021FFF7B2FF0F
:1009500070BD00002DE9F04780460D4616461F4643
:10096000DDF8209020210F48FFF73FFD032000F025
:100970002FF8404600F02CF8284600F029F83046C1
:1009800000F026F8002404E0FFF734FD3855601C21
:10099000C4B24C45F8DB20210248FFF728FDBDE832
:1009A000F0870000000801407047000029B1064AA6
:1009B00092690243044B9A6104E0034A92698243BC
:1009C000014B9A6170470000001002407047000020
:1009D00070B50446002517E001210D48FFF705FD1D
:1009E00004F0800020B102210948FFF700FD03E078
:1009F00002210748FFF7F9FC6006040E01210448B4
:100A0000FFF7F5FC681CC5B2082DE5DB70BD0000E2
:100A10000008014010B500F001F810BD0CB5002031
:100A2000019000903348006840F4803031490860FC
:100A300000BF3048006800F4003000900198401C6E
:100A40000190009818B90198B0F5A06FF1D129482C
:100A5000006800F4003010B10120009001E0002097
:100A600000900098012843D12348006840F010000E
:100A7000214908600846006820F003000860084625
:100A8000006840F0020008601A4840681949486050
:100A90000846406848600846406840F48060486006
:100AA0000846406820F47C1048600846406840F4DE
:100AB000E81048600846006840F08070086000BF99
:100AC0000C48006800F000700028F9D00948406820
:100AD00020F00300074948600846406840F00200E3
:100AE000486000BF0348406800F00C000828F9D1B6
:100AF0000CBD00000010024000200240042808D174
:100B00004FF0E021096941F004014FF0E02211614A
:100B100007E04FF0E021096921F004014FF0E022E5
:100B2000116170477047000010B51348006840F02D
:100B300001001149086008464068104908400E4904
:100B40004860084600680E4908400B49086008469E
:100B5000006820F4802008600846406820F4FE0009
:100B600048604FF41F008860FFF754FF4FF00060AB
:100B70000449086010BD0000001002400000FFF8AA
:100B8000FFFFF6FE08ED00E010B540F225511D48CC
:100B900000F03EF810B31B4800F064F8C4B21A48E5
:100BA000008800F40040C8B91748008800F480406D
:100BB00060B10A2C03D000201349088020E01248BD
:100BC000008840F400401049088019E00D2C06D13F
:100BD0000D48008840F480400B49088010E00A4826
:100BE0000088C0F30D0009490C5407480088401CD8
:100BF0000549088008460088C72801DD00200880D4
:100C000010BD0000003801400C00002064040020EA
:100C100070B50246002400230025002040F66A1625
:100C2000B14200D100BFC1F3421501F01F030126FC
:100C300006FA03F3012D02D19689334006E0022D16
:100C400002D1168A334001E0968A33400C12012605
:100C500006FA04F41688344013B10CB1012000E008
:100C6000002070BD01468888C0F30800704700BFAF
:100C7000FEE700BF7047000010B56FF00400FFF7FB
:100C80003DFF0A4800680A49B0FBF1F009490870C5
:100C90000846007800EB4001C1EBC0104FF6FF7131
:100CA00001EAC0000449088010BD000010000020C7
:100CB00000127A0004000020060000200146114ABC
:100CC00012884A434FF0E0235A6100229A611A4683
:100CD000126942F001021A6100BF4FF0E022106970
:100CE00000F001021AB100F48032002AF5D04FF072
:100CF000E022126922F001024FF0E0231A61002283
:100D00009A6170470600002000BFFFF7B5FFFFF7AC
:100D100041FD0020FFF7B1FB0020FFF7BCFBFFF710
:100D20008CFBBBE05E48FFF7CCFB4FF4FA70FFF79B
:100D3000C5FF5CA200210846FFF72EFC5EA202213F
:100D40000020FFF729FC61A204210020FFF724FC0A
:100D500063A206210020FFF71FFC4FF4FA70FFF793
:100D6000ADFFFFF76AFB63A200211820FFF714FC18
:100D700063A202210020FFF70FFC66A204210020DD
:100D8000FFF70AFC68A206210020FFF705FC4FF4DC
:100D9000FA70FFF793FFFFF750FB68A200210846A7
:100DA000FFF7FAFB6AA202210020FFF7F5FB6DA214
:100DB00004210020FFF7F0FB6FA206210020FFF7BF
:100DC000EBFB714A06216120FFF793FB6F4A062176
:100DD0007120FFF78EFB4FF4FA70FFF76FFFFFF7FC
:100DE0002CFB6BA200210846FFF7D6FB6DA2022167
:100DF0000020FFF78BFC71A203210020FFF786FC87
:100E000074A204210020FFF781FC78A205210020B4
:100E1000FFF77CFC7BA206210020FFF777FC7EA277
:100E200007210020FFF772FC4FF4FA70FFF746FF2E
:100E3000FFF703FB7DA200210846FFF7ADFB80A270
:100E400002210020FFF7A8FB82A204210020FFF767
:100E5000A3FB85A206210020FFF79EFB4FF4FA704A
:100E6000FFF72CFFFFF7E9FA84A200210846FFF7FD
:100E700093FB87A202210020FFF78EFB89A20421A9
:100E80000020FFF789FB8CA206210020FFF784FBDE
:100E90004FF4FA70FFF712FFFFF7CFFA42E70000B6
:100EA0002400002031323836342CB4F8D6D0CEC4E9
:100EB000D7D6BFE2000000003136583136BCF2CC44
:100EC000E5BABAD7D6BFE22C00000000BBF2385812
:100ED0003136B5E3D5F341534349492C00000000B6
:100EE000BBF2355837B5E3D5F34153434949C2EB1B
:100EF00000000000D6D0BEB0D4B0B5E7D7D3000014
:100F0000D6F7D2AAC9FAB2FA4F4C4544C4A3BFE9F6
:100F100000000000B9CBBFCDD6C1C9CFD5E6B3CF55
:100F2000B7FECEF100000000B3CFD0C5D3EBD6CAD8
:100F3000C1BFB5DAD2BBA3A10000000047423233E3
:100F40003132BCF2CCE5D7D6BFE2BCB00000000025
:100F5000D3D0CDBCD0CDB9A6C4DCA3ACBFC9D7D447
:100F600000000000B1E0B4F3D7D6BBF2CDBCCFF1A6
:100F7000BBF2C9FA00000000C6A7D7D6A3ACC0FDDB
:100F8000C8E7A3BA000000002404002044040020A5
:100F90003C21402324255E262A28295F2D2B5D2F06
:100FA000000000003C21402324255E262A28295FDA
:100FB0002D2B5D2F3B2E2C3F5B00000058592065E8
:100FC0006C656374726F6E69637320436F2E2C209F
:100FD000000000004C74642E2065737461626C69BB
:100FE0007368656420617420200000007965617277
:100FF00020323031302E466F637573204F4C45449C
:10100000200000004D6F62696C653A31333236352D
:10101000353835393735000054656C3A3037353559
:101020002D3332393130373135000000B0A1B0A254
:10103000B0A3B0A4B0A5B0A6B0A7B0A800000000AF
:10104000B0A9B0AAB0ABB0ACB0ADB0AEB0AFB0B0BC
:1010500000000000B0B1B0B2B0B3B0B4B0B5B0B63B
:10106000B0B7B0B800000000B0B9B0BAB0BBB0BC07
:10107000B0BDB0BEB0BFB0C000000000F7DFF7E009
:10108000F7E1F7E2F7E3F7E4F7E5F7E60000000041
:10109000F7E7F7E8F7E9F7EAF7EBF7ECF7EDF7EE44
:1010A00000000000F7EFF7F0F7F1F7F2F7F3F7F4CD
:1010B000F7F5F7F600000000F7FEF7F8F7FAF7FB90
:1010C000F7FCF7FDF7F7F7F900000000EC10000857
:1010D00000000020640400006C01000800120008F9
:1010E000640400202C070000C8010008011184A23C
:1010F0004A041009010203040607080916060AFE3D
:101100000AC612E012F062F84EFE7DBBC7EF010581
:101110003EC7BB7DFE300D080CFEFE0C082060FEB5
:10112000FE60208F7848FE82BABA0309135EAA01D6
:1011300001017E6CFEFF0301CBFFFF0F39BBECC04A
:10114000C0C0271918F92701392975990B6CFFFFC1
:101150000C01491A0C22E1E1E12701396C0F1F183B
:1011600001FB1F0F0F092E27013925E2928A8616EF
:101170007C8282827C12FE258292AAC65BC0C0114C
:1011800011AD020202FE10190D012B300A24A42E0B
:1011900024E4242EA424000A56F84A4C48F8484C6B
:1011A0004AF81CC0201001AB20C00A11300A120AF4
:1011B00007027F02070A121E0B0A0A0A7F04025660
:1011C0000B980A1F2040404050205F800A11300ECB
:1011D000FE8242A29E8A82868AB26202FE1C7F4002
:1011E000400319012909211809808080BFA5A5A500
:1011F0003F041ABF0C1178087F24243F24247F0861
:0400000508000131BD
:00000001FF
