:100D510031323836342CB4F8D6D0CEC4D7D6BFE22F
:100D6100003136583136BCF2CCE5BABAD7D6BFE23B
:100D71002C00BBF238583136B5E3D5F34153434922
:100D8100492C00BBF2355837B5E3D5F341534349FC
:100D910049C2EB00D6D0BEB0D4B0B5E7D7D300D6A8
:100DA100F7D2AAC9FAB2FA4F4C4544C4A3BFE9002D
:100DB100B9CBBFCDD6C1C9CFD5E6B3CFB7FECEF142
:100DC10000B3CFD0C5D3EBD6CAC1BFB5DAD2BBA36E
:100DD100A100474232333132BCF2CCE5D7D6BFE273
:100DE100BCB000D3D0CDBCD0CDB9A6C4DCA3ACBFC0
:100DF100C9D7D400B1E0B4F3D7D6BBF2CDBCCFF1A3
:100E0100BBF2C9FA00C6A7D7D6A3ACC0FDC8E7A3F9
:100E1100BA003C21402324255E262A28295F2D2B58
:100E21005D2F003C21402324255E262A28295F2DA1
:100E31002B5D2F3B2E2C3F5B00585920656C656361
:100E410074726F6E69637320436F2E2C20004C7493
:100E5100642E2065737461626C69736865642061D6
:100E6100742020007965617220323031302E466F56
:100E7100637573204F4C454420004D6F62696C656A
:100E81003A31333236353538353937350054656CBA
:100E91003A303735352D333239313037313500B0CD
:100EA100A1B0A2B0A3B0A4B0A5B0A6B0A7B0A8004D
:100EB100B0A9B0AAB0ABB0ACB0ADB0AEB0AFB0B04D
:100EC10000B0B1B0B2B0B3B0B4B0B5B0B6B0B7B0B5
:100ED100B800B0B9B0BAB0BBB0BCB0BDB0BEB0BF65
:100EE100B0C000F7DFF7E0F7E1F7E2F7E3F7E4F787
:100EF100E5F7E600F7E7F7E8F7E9F7EAF7EBF7ECEC
:100F0100F7EDF7EE00F7EFF7F0F7F1F7F2F7F3F798
:100F1100F4F7F5F7F600F7FEF7F8F7FAF7FBF7FC49
:070F2100F7FDF7F7F7F900F7
:100003006400004000060AFE0AC600E000F000F8A3
:10001300000000000000FE7DBBC7EFEFEFEFEFEF46
:10002300EFC7BB7DFE0000000000000000000000E1
:1000330000000000000000000000000000000000BD
:1000430000000000000000000000000000000000AD
:10005300000000000000000000000000000000009D
:10006300000000080CFEFE0C082060FEFE6020006D
:1000730000007848FE82BABA82BABA82BABA82BAA1
:10008300BA82FE0000000000000000000000000033
:100093000000000000000001010101010101010154
:1000A3000101010100000000000000000000000049
:1000B300000000000000000000000000000000003D
:1000C300000000000000000000000000000000002D
:1000D300000000000000000000000000000000001D
:1000E300000000000000000000000000000000000D
:1000F30000000000000000000000000000000000FD
:1001030000000000000000000000000000000000EC
:1001130000000000000000000000000000000000DC
:100123000000FEFF030303030303030303FFFF00B6
:1001330000FEFF030303030303030303FFFE0000A7
:100143000000C0C0C000000000FEFF030303030360
:1001530003030303FFFE0000FEFF03030303030384
:10016300030303FFFE000000000000000000000086
:10017300000000000000000000000000000000007C
:10018300000000000000000000000000000000006C
:10019300000000000000000000000000000000005C
:1001A3000000FFFF000000000000000000FFFF0050
:1001B30000FFFF0C0C0C0C0C0C0C0C0CFFFF0000D4
:1001C3000000E1E1E100000000FFFF00000000008B
:1001D30000000000FFFF0000FFFF0C0C0C0C0C0CD8
:1001E3000C0C0CFFFF0000000000000000000000EA
:1001F30000000000000000000000000000000000FC
:1002030000000000000000000000000000000000EB
:1002130000000000000000000000000000000000DB
:1002230000000F1F1818181818181818181F0F0097
:10023300000F1F1818181818181818181F0F000087
:100243000000000000000000000F1F181818181805
:10025300181818181F0F00000F1F1818181818184F
:100263001818181F0F000000000000000000000015
:10027300000000000000000000000000000000007B
:10028300000000000000000000000000000000006B
:10029300000000000000000000000000000000005B
:1002A300000000000000000000E2928A8600007C4B
:1002B3008282827C00FE008292AAC60000C0C00037
:1002C3007C8282827C0000020202FE0000C0C00029
:1002D3007C8282827C0000FE00000000000000009F
:1002E300000000000000000000000000000000000B
:1002F30000000000000000000000000000000000FB
:10030300000000000024A42E24E4242EA4240000D2
:1003130000F84A4C48F8484C4AF800000000000036
:1003230000000000000000000000000000000000CA
:1003330000000000000000000000000000000000BA
:1003430000000000000000000000000000000000AA
:10035300000000000000000000000000000000009A
:10036300000000000000000000000000000000008A
:10037300C0201010101020C00000C020101010105A
:1003830020C0000000120A07027F02070A120000C1
:10039300000B0A0A0A7F0A0A0A0B00000000000089
:1003A300000000000000000000000000000000004A
:1003B300000000000000000000000000000000003A
:1003C300000000000000000000000000000000002A
:1003D300000000000000000000000000000000001A
:1003E300000000000000000000000000000000000A
:1003F3001F2040404050205F80001F20404040505D
:10040300205F80006020000000FE8242A29E8A825C
:10041300868AB26202FE0000007F40407F40404077
:1004230040407F40407F000060200020808080BFEC
:10043300A5A5A53FA5A5A5BF808080007F24243F57
:0C04430024247F007F24243F24247F0019
:100B74009004401207A20000000012120CE4FF12BD
:100B8400154FE4FF1214A91214397B017A0079403D
:100B94001213FF7FF47E0112156B7BFF7A0D7951DE
:100BA400E4FDFF12080D7BFF7A0D79627D02E4FFFC
:100BB40012080D7BFF7A0D79737D04E4FF12080D92
:100BC4007BFF7A0D79847D06E4FF12080D7FF47EA5
:100BD4000112156B1214397BFF7A0D7995E4FD7FB0
:100BE4001812080D7BFF7A0D79A07D02E4FF12082C
:100BF4000D7BFF7A0D79B17D04E4FF12080D7BFFB4
:100C04007A0D79C27D06E4FF12080D7FF47E01128D
:100C1400156B1214397BFF7A0D79D3E4FDFF1208AA
:100C24000D7BFF7A0D79E47D02E4FF12080D7BFF52
:100C34007A0D79F57D04E4FF12080D7BFF7A0E79B5
:100C4400067D06E4FF12080D7B017A0079007D061B
:100C54007F6112132C7B017A0079207D067F71124B
:100C6400132C7FF47E0112156B1214397BFF7A0E5C
:100C74007913E4FDFF12080D7BFF7A0E79247D02BF
:100C8400E4FF1210DD7BFF7A0E793A7D03E4FF1254
:100C940010DD7BFF7A0E794F7D04E4FF1210DD7BBB
:100CA400FF7A0E79657D05E4FF1210DD7BFF7A0E75
:100CB400797B7D06E4FF1210DD7BFF7A0E798E7D51
:100CC40007E4FF1210DD7FF47E0112156B12143954
:100CD4007BFF7A0E79A0E4FDFF12080D7BFF7A0EEC
:100CE40079B17D02E4FF12080D7BFF7A0E79C27D93
:100CF40004E4FF12080D7BFF7A0E79D37D06E4FF2E
:100D040012080D7FF47E0112156B1214397BFF7AE1
:100D14000E79E4E4FDFF12080D7BFF7A0E79F57D70
:100D240002E4FF12080D7BFF7A0F79067D04E4FFCD
:100D340012080D7BFF7A0F79177D06E4FF12080D68
:0D0D44007FF47E0112156B121439020B8E24
:101585002E003000310032003300340035003600C3
:06159500370038003900A8
:07044F0044049400000000CA
:10156B00EF4E60157D087C07ED1DAA0470011C4A27
:09157B0070F6EF1F70EA1E80E714
:011584002244
:10154F00900444EFF07006FD7FA6121478900444C7
:0C155F00E064017006FD7FA712147822E2
:1014A900900444EFF0700DFD7FC8121478E4FD7FBD
:1014B900A1121478900444E06401700DFD7FC012FC
:0A14C9001478E4FD7FA012147822CD
:10159B00E4FD7F8D121478E4FD7F14121478E4FDC2
:0515AB007FAF0214787F
:1015B000E4FD7F8D121478E4FD7F10121478E4FDB1
:0515C0007FAE0214786B
:061472001205DEFF7D0102
:10147800ED6004D2928002C292C293E4FEEEC3945D
:1014880008748094805015C290EF30E704D29180A0
:1014980002C291D290EF25E0FF0E80E1D293D29262
:0114A8002221
:10143900E4FCECC3940874809480502CEC24B0FF35
:10144900E4FD1214787F101214787F02121478E4E4
:10145900FBEBC3948074809480500A7D01E4FF12F1
:0814690014780B80EC0C80CA22
:011471002258
:1014F500AC070C0CED24B0FFE4FD121478EC54F0AD
:10150500C4540F4410FF121478EC540FFF021478E2
:1013FF00E4900444F0900444E0FDC3940874809496
:10140F00805026E4FF1214F5E4FCECC39480748042
:10141F009480500D121472740129F9E43AFA0C8079
:09142F00E9900444E004F080CCD3
:011438002291
:08132C0090047DEFF0A3EDF049
:10133400E4A3F090047FE0C394027480948050305E
:1013440090047DE0FFA3E0FD1214F5E4FCECC394EB
:101354001074809480500D121472740129F9E43AC7
:10136400FA0C80E990047EE004F0A3E004F080C36A
:011374002256
:0813750090047DEFF0A3EDF000
:10137D00E4A3F090047FE0C3940274809480503015
:10138D0090047DE0FFA3E0FD1214F5E4FCECC394A2
:10139D000874809480500D121472740129F9E43A86
:1013AD00FA0C80E990047EE004F0A3E004F080C321
:0113BD00220D
:101515001214F5E4FCECC3940674809480500D120B
:0C1525001472740129F9E43AFA0C80E910
:011531002297
:1014D300E4FEEEC39408748094805015C290EF30FC
:1014E300E704D2918002C291EF25E0FFD2900E80F3
:0114F300E117
:0114F40022D5
:10153200E4FFFEEEC3940874809480500FC290EFD3
:0C15420025E0FF3094010FD2900E80E7EE
:01154E00227A
:0213BE00AC077A
:1013C000C2957F031214D3AF041214D3AF051214C5
:1013D000D3AF031214D3E4FD900483E0FFEDC39F69
:1013E000501A121532900480E0FBA3E0FAA3E0F952
:0E13F0008D82758300EF1206240D80DCD295ED
:0113FE0022CC
:10080D00900444EFF0A3EDF0A3EBF0A3EAF0A3E91D
:01081D00F0EA
:10081E00E4A3F0900446E0FBA3E0FAA3E0F9A3E022
:10082E00F5827583001205F7FF7E00D39400748065
:10083E0094805003020B73EF94B074809480500335
:10084E000208FCD3EF94F77480948040030208FCF6
:10085E00900449E02401FFEE33FE8F828E83120551
:10086E00F7C394A17480948050030208FC90044650
:10087E00A3A3A3E0F5827583001205F72450FFE4CD
:10088E0034FFFE7C007D5E120646EE3395E0FDFCE5
:10089E00900494120796900494E0F8A3E0F9A3E074
:1008AE00FAA3E0FBC000C001C002C003900449E0FF
:1008BE002401FFE433FE900446E0FBA3E0FAA3E03C
:1008CE00F98F828E831205F7245FFFE434FFCF2465
:1008DE004ECF3403FEE4FCFDD003D002D001D00095
:1008EE00EB2FFFEA3EFEED39FDEC380209C4900411
:1008FE0046E0FBA3E0FAA3E0F9A3E0F582758300DE
:10090E001205F7FF7E00C394A174809480500302F9
:10091E000A65D3EF94A3748094804003020A659015
:10092E000449E02401FFEE33FE8F828E831205F719
:10093E00C394A1748094805003020A65900446A368
:10094E00A3A3E0F5827583001205F7245FFFE4345C
:10095E00FFFE7C007D5E120646EE3395E0FDFC90B8
:10096E000494120796900494E0F8A3E0F9A3E0FA39
:10097E00A3E0FBC000C001C002C003900449E02404
:10098E0001FFE433FE900446E0FBA3E0FAA3E0F996
:10099E008F828E831205F7245FFFE434FFFE3395BA
:1009AE00E0FDFCD003D002D001D000EB2FFFEA3ED9
:1009BE00FEE93DFDE83CFC900494120796900494E9
:1009CE00E0FCA3E0FDA3E0FEA3E0FFE47B20FAF948
:1009DE00F8120658900494120796900494A3E0FD22
:1009EE00A3A3E4FFFEE4FC781012078390044AEF01
:1009FE00F0FA900494A3A3E0FEA3E4FFE4FDFC78D8
:100A0E000812078390044BEFF0F9900494E0FCA3D6
:100A1E00A3E0FEA3E0FF90044CEFF0FBAF02AD01AC
:100A2E009004807401F0A37404F0A3744DF0A374C9
:100A3E0020F01213BE900444E0FFA3E0FD7B017A88
:100A4E0004794D12132C900444E02410F0900449C4
:100A5E00E02402F0020821900446E0FBA3E0FAA392
:100A6E00E0F9A3E0F5827583001205F7FF7E00C35F
:100A7E009420748094805003020B6AD3EF947E749A
:080A8E008094804003020B6A12
:100A9600900446A3A3A3E0F5827583001205F7240C
:100AA600E0FFEE34FFFE3395E0FDFC900494120760
:100AB60096900494E0FCA3E0FDA3E0FEA3E0FFE42F
:100AC6007B10FAF9F81206589004941207969004CF
:100AD60094E0FCA3E0FDA3E0FEA3E02480FFEE3457
:100AE600CFFEED3403FDE43CFC900494120796908F
:100AF6000494A3E0FDA3A3E4FFFEE4FC7810120730
:100B06008390044AEFF0FA900494A3A3E0FEA3E4D2
:100B1600FFE4FDFC780812078390044BEFF0F99090
:100B26000494E0FCA3A3E0FEA3E0FF90044CEFF0E6
:100B3600FBAF02AD019004807401F0A37404F0A32E
:100B4600746DF0A37410F01213BE900444E0FFA37A
:100B5600E0FD7B017A04796D121375900444E0245C
:020B660008F095
:0B0B68008000900449E004F002082126
:010B7300225F
:1010DD00900444EFF0A3EDF0A3EBF0A3EAF0A3E945
:0110ED00F012
:1010EE00E4A3F0900446E0FBA3E0FAA3E0F9A3E04A
:1010FE00F5827583001205F7FF7E00D3940074808D
:10110E009480500302120BEF94207480948050034D
:10111E00021202D3EF947E74809480400302120276
:10112E00900446A3A3A3E0F5827583001205F7246D
:10113E00E0FFEE34FFFE3395E0FDFC9004941207C1
:10114E0096900494E0FCA3E0FDA3E0FEA3E0FFE490
:10115E007B08FAF9F8120658900494120796900438
:10116E0094E0FCA3E0FDA3E0FEA3E024C0FFEE3478
:10117E00BFFEED3403FDE43CFC9004941207969000
:10118E000494A3E0FDA3A3E4FFFEE4FC7810120791
:10119E008390044AEFF0FA900494A3A3E0FEA3E434
:1011AE00FFE4FDFC780812078390044BEFF0F990F2
:1011BE000494E0FCA3A3E0FEA3E0FF90044CEFF048
:1011CE00FBAF02AD019004807401F0A37404F0A390
:1011DE00744DF0A37408F01213BE900444E0FFA304
:1011EE00E0FD7B017A04794D121515900444E0243C
:0211FE0006F0F9
:0B1200008000900449E004F00210F1AF
:01120B0022C0
:0A0F2800900485EDF0900484EFF0D2
:100F320090048AE075F008A42F2408900484F0E459
:100F4200FFFE7DC87C42900486E0F8A3E0F9A3E0AE
:100F5200FAA3E0FB12045712055D90049012079663
:100F6200900484E024E8FFA3E0FD7BFF7A157985F5
:100F720012080DE490048BF090048AE0FFA3E0C312
:100F82009F40030210DCE47B0AFAF9F8900490E037
:100F9200FCA3E0FDA3E0FEA3E0FF1206E3AC00AD7C
:100FA20001AE02AF0390048C120796900490E0FC0D
:100FB200A3E0FDA3E0FEA3E0FFE47B0AFAF9F81246
:100FC20006E3900490120796900484E024F8F090CF
:100FD200048BE064027007900484E024F8F090042B
:100FE2008CE0FCA3E0FDA3E0FEA3E0FF1207D31018
:100FF2003100000000104200000001105200000009
:10100200021062000000031072000000041082004F
:1010120000000510920000000610A2000000071058
:10102200B20000000810C200000009000010D390B6
:101032000484E0FFA3E0FD7BFF7A1579870210D0DC
:10104200900484E0FFA3E0FD7BFF7A157989807E1E
:10105200900484E0FFA3E0FD7BFF7A15798B806E1C
:10106200900484E0FFA3E0FD7BFF7A15798D805E1A
:10107200900484E0FFA3E0FD7BFF7A15798F804E18
:10108200900484E0FFA3E0FD7BFF7A157991803E16
:10109200900484E0FFA3E0FD7BFF7A157993802E14
:1010A200900484E0FFA3E0FD7BFF7A157995801E12
:1010B200900484E0FFA3E0FD7BFF7A157997800E10
:1010C200900484E0FFA3E0FD7BFF7A157999120872
:0A10D2000D90048BE004F0020F7A89
:0110DC0022F1
:10120C00D293D2957FC87E0012156BE4FD7FAE128F
:10121C0014787F021214787F101214787F40121405
:10122C00787FB01214787F811214787FCF121478E3
:10123C007FA11214787FA61214787FA81214787FDD
:10124C003F1214787FAD1214787F8B1214787F3391
:10125C001214787FC81214787FD3121478E4FF121A
:10126C0014787FD51214787F801214787FD91214D9
:10127C00787F1F1214787FDA1214787F1212147888
:10128C007FDB1214787F40121478121439E4FD7F3E
:04129C00AF02147811
:10045700EC4D6011E8497017ED33EC3304600DE49F
:10046700FCFFFEFD22E933E8330470F80205C912E8
:10047700059458046009E4CC2481500628500902E9
:1004870005D32840030205D0C0E0EB4A7044B98089
:1004970006D0E0FB0205BFEF4E701CBD8008EBFFE6
:1004A700EAFEE9FD80EBE98DF0A4FEE5F0020540E8
:1004B700E9CDF9EAFEEBFFEF89F0A4FCE5F0CE8980
:1004C700F0A42EFFE435F0CD89F0A42DFEE435F03D
:1004D7008067EF4E7005BD80D780C3EF8BF0A4AC6B
:1004E700F0EE8BF0A42CFCE435F0F8EF8AF0A42CA6
:1004F700E5F038FCE433CB8DF0A42CFCE5F03BF8B9
:10050700EE8AF0A42CFCE5F038F8E433CF89F0A4A8
:100517002CFCE5F038CF3400CE89F0A42FFFE5F0AE
:100527003EFEE433C98DF0A42EFEE5F039CD8AF006
:10053700A42FFFE5F03EFEE43DFD33D0E0FB50077E
:100547000BBB000F0205D3EC2CFCEF33FFEE33FEA1
:06055700ED33FD0205ABCF
:10055D00EDD2E7CD33EC3392D524814006E4FFFE96
:10056D00FDFC22FCE4CFCECDCC24E0501174FF80F5
:10057D00EDC3CC13CCCD13CDCE13CECF13CF047092
:07058D00F030D5DE02077516
:10059400E9D2E7C933E833F892D5EDD2E7CD33ECAD
:0705A40033FC5002B2D52226
:1005AB00EC30E7100FBF000C0EBE00080DBD0004B1
:1005BB000BEB6014A2D5EB13FCED92E7FD2274FF5D
:1005CB00FCFDFEFF22E480F8A2D574FF13FC7D80B6
:0305DB00E480EFCA
:030000000212A049
:0C12A000787FE4F6D8FD7581070212E7A4
:1005DE00BB010689828A83E0225002E722BBFE021B
:0905EE00E32289828A83E493224E
:1005F700BB010CE58229F582E5833AF583E02250B9
:1006070006E92582F8E622BBFE06E92582F8E22202
:0D061700E58229F582E5833AF583E493221C
:10062400F8BB010DE58229F582E5833AF583E8F00C
:10063400225006E92582C8F622BBFE05E92582C8B8
:02064400F222A0
:10064600EF8DF0A4A8F0CF8CF0A428CE8DF0A42EC8
:02065600FE2282
:10065800E88FF0A4CC8BF0A42CFCE98EF0A42CFC41
:100668008AF0EDA42CFCEA8EF0A4CDA8F08BF0A4BF
:100678002DCC3825F0FDE98FF0A42CCD35F0FCEB1E
:100688008EF0A4FEA9F0EB8FF0A4CFC5F02ECD39E3
:0F069800FEE43CFCEAA42DCE35F0FDE43CFC2250
:1006A70075F008758200EF2FFFEE33FECD33CDCC0A
:1006B70033CCC58233C5829BED9AEC99E58298408D
:1006C7000CF582EE9BFEED9AFDEC99FC0FD5F0D66A
:1006D700E4CEFBE4CDFAE4CCF9A88222B800C1B994
:1006E7000059BA002DEC8BF084CFCECDFCE5F0CBD2
:1006F700F97818EF2FFFEE33FEED33FDEC33FCEB0B
:1007070033FB10D703994004EB99FB0FD8E5E4F9C5
:10071700FA227818EF2FFFEE33FEED33FDEC33FCB2
:10072700C933C910D7059BE99A4007EC9BFCE99AA6
:10073700F90FD8E0E4C9FAE4CCFB2275F010EF2FEB
:10074700FFEE33FEED33FDCC33CCC833C810D707EB
:100757009BEC9AE899400AED9BFDEC9AFCE899F826
:0E0767000FD5F0DAE4CDFBE4CCFAE4C8F922B9
:0E077500C3E49FFFE49EFEE49DFDE49CFC2295
:10078300E8600FECC313FCED13FDEE13FEEF13FF54
:03079300D8F12278
:0C079600ECF0A3EDF0A3EEF0A3EFF022D6
:1007A200A8828583F0D083D0821207B91207B912CA
:1007B20007B91207B9E473E493A3C583C5F0C583EF
:1007C200C8C582C8F0A3C583C5F0C583C8C582C8A1
:0107D2002204
:1007D300D083D082E4937012740193700DA3A3931A
:1007E300F8740193F5828883E4737402936C701236
:1007F3007403936D700C7404936E70067405936F99
:0A08030060DDA3A3A3A3A3A380CA92
:1012AC00020B74E493A3F8E493A34003F68001F2D9
:1012BC0008DFF48029E493A3F85407240CC8C33343
:1012CC00C4540F4420C8834004F456800146F6DF12
:1012DC00E4800B0102040810204080900003E47E9F
:1012EC00019360BCA3FF543F30E509541FFEE49307
:1012FC00A360010ECF54C025E060A840B8E493A3CE
:10130C00FAE493A3F8E493A3C8C582C8CAC583CAF8
:10131C00F0A3C8C582C8CAC583CADFE9DEE780BEB0
:0104560000A5
:00000001FF
