:1000030031323836342CB4F8D6D0CEC4D7D6BFE28A
:10001300003136583136BCF2CCE5BABAD7D6BFE296
:100023002C00BBF238583136B5E3D5F3415343497D
:10003300492C00BBF2355837B5E3D5F34153434957
:1000430049C2EB00D6D0BEB0D4B0B5E7D7D300D603
:10005300F7D2AAC9FAB2FA4F4C4544C4A3BFE90088
:10006300B9CBBFCDD6C1C9CFD5E6B3CFB7FECEF19D
:1000730000B3CFD0C5D3EBD6CAC1BFB5DAD2BBA3C9
:10008300A100474232333132BCF2CCE5D7D6BFE2CE
:10009300BCB000D3D0CDBCD0CDB9A6C4DCA3ACBF1B
:1000A300C9D7D400B1E0B4F3D7D6BBF2CDBCCFF1FE
:1000B300BBF2C9FA00C6A7D7D6A3ACC0FDC8E7A355
:1000C300BA003C21402324255E262A28295F2D2BB4
:1000D3005D2F003C21402324255E262A28295F2DFD
:1000E3002B5D2F3B2E2C3F5B00585920656C6563BD
:1000F30074726F6E69637320436F2E2C20004C74EF
:10010300642E2065737461626C6973686564206131
:10011300742020007965617220323031302E466FB1
:10012300637573204F4C454420004D6F62696C65C5
:100133003A31333236353538353937350054656C15
:100143003A303735352D333239313037313500B028
:10015300A1B0A2B0A3B0A4B0A5B0A6B0A7B0A800A8
:10016300B0A9B0AAB0ABB0ACB0ADB0AEB0AFB0B0A8
:1001730000B0B1B0B2B0B3B0B4B0B5B0B6B0B7B010
:10018300B800B0B9B0BAB0BBB0BCB0BDB0BEB0BFC0
:10019300B0C000F7DFF7E0F7E1F7E2F7E3F7E4F7E2
:1001A300E5F7E600F7E7F7E8F7E9F7EAF7EBF7EC47
:1001B300F7EDF7EE00F7EFF7F0F7F1F7F2F7F3F7F4
:1001C300F4F7F5F7F600F7FEF7F8F7FAF7FBF7FCA5
:1001D300F7FDF7F7F7F90000060AFE0AC600E0008C
:1001E300F000F8000000000000FE7DBBC7EFEFEF5A
:1001F300EFEFEFEFC7BB7DFE000000000000000043
:1002030000000000000000000000000000000000EB
:1002130000000000000000000000000000000000DB
:1002230000000000000000000000000000000000CB
:10023300000000000000080CFEFE0C082060FEFE1B
:1002430060200000007848FE82BABA82BABA82BA45
:10025300BA82BABA82FE000000000000000000006B
:100263000000000000000000000001010101010185
:100273000101010101010100000000000000000074
:10028300000000000000000000000000000000006B
:10029300000000000000000000000000000000005B
:1002A300000000000000000000000000000000004B
:1002B300000000000000000000000000000000003B
:1002C300000000000000000000000000000000002B
:1002D300000000000000000000000000000000001B
:1002E300000000000000000000000000000000000B
:1002F3000000000000FEFF030303030303030303E3
:10030300FFFF0000FEFF030303030303030303FFD5
:10031300FE00000000C0C0C000000000FEFF030399
:1003230003030303030303FFFE0000FEFF030303B2
:10033300030303030303FFFE0000000000000000AB
:1003430000000000000000000000000000000000AA
:10035300000000000000000000000000000000009A
:10036300000000000000000000000000000000008A
:100373000000000000FFFF0000000000000000007C
:10038300FFFF0000FFFF0C0C0C0C0C0C0C0C0CFF03
:10039300FF00000000E1E1E100000000FFFF0000BA
:1003A30000000000000000FFFF0000FFFF0C0C0C2A
:1003B3000C0C0C0C0C0CFFFF0000000000000000F4
:1003C300000000000000000000000000000000002A
:1003D300000000000000000000000000000000001A
:1003E300000000000000000000000000000000000A
:1003F30000000000000F1F181818181818181818F4
:100403001F0F00000F1F1818181818181818181F96
:100413000F00000000000000000000000F1F18186C
:10042300181818181818181F0F00000F1F1818187D
:100433001818181818181F0F0000000000000000FB
:1004430000000000000000000000000000000000A9
:100453000000000000000000000000000000000099
:100463000000000000000000000000000000000089
:10047300000000000000000000000000E2928A86F5
:1004830000007C8282827C00FE008292AAC6000069
:10049300C0C0007C8282827C0000020202FE000057
:1004A300C0C0007C8282827C0000FE00000000004D
:1004B3000000000000000000000000000000000039
:1004C3000000000000000000000000000000000029
:1004D300000000000000000024A42E24E4242EA425
:1004E30024000000F84A4C48F8484C4AF800000041
:1004F30000000000000000000000000000000000F9
:1005030000000000000000000000000000000000E8
:1005130000000000000000000000000000000000D8
:1005230000000000000000000000000000000000C8
:1005330000000000000000000000000000000000B8
:10054300000000C0201010101020C00000C02010B8
:1005530010101020C0000000120A07027F02070AD1
:10056300120000000B0A0A0A7F0A0A0A0B000000A5
:100573000000000000000000000000000000000078
:100583000000000000000000000000000000000068
:100593000000000000000000000000000000000058
:1005A3000000000000000000000000000000000048
:1005B3000000000000000000000000000000000038
:1005C3000000001F2040404050205F80001F20405B
:1005D300404050205F800000FE8242A29E8A8286B5
:1005E3008AB26202FE0000007F40407F40404040EC
:1005F300407F40407F0000808080BFA5A5A53FA528
:10060300A5A5BF808080007F24243F24247F007F12
:0706130024243F24247F0092
:100D3700900000120965000000001211F8E4FF128C
:100D4700153BE4FF1214951214257BFF7A0179DA1B
:100D57001213EB7FF47E011215577BFF7A0079039C
:100D6700E4FDFF1209D07BFF7A0079147D02E4FFCE
:100D77001209D07BFF7A0079257D04E4FF1209D0A0
:100D87007BFF7A0079367D06E4FF1209D07FF47E77
:100D9700011215571214257BFF7A007947E4FD7F6E
:100DA700181209D07BFF7A0079527D02E4FF1209FD
:100DB700D07BFF7A0079637D04E4FF1209D07BFFC3
:100DC7007A0079747D06E4FF1209D07FF47E011260
:100DD70015571214257BFF7A007985E4FDFF120968
:100DE700D07BFF7A0079967D02E4FF1209D07BFF62
:100DF7007A0079A77D04E4FF1209D07BFF7A007996
:100E0700B87D06E4FF1209D07BFF7A0579DA7D0603
:100E17007F611213187BFF7A0579FA7D067F7112BD
:100E270013187FF47E011215571214257BFF7A00E1
:100E370079C5E4FDFF1209D07BFF7A0079D67D02E0
:100E4700E4FF1210C97BFF7A0079EC7D03E4FF12FF
:100E570010C97BFF7A0179017D04E4FF1210C97B79
:100E6700FF7A0179177D05E4FF1210C97BFF7A012C
:100E7700792D7D06E4FF1210C97BFF7A0179407D49
:100E870007E4FF1210C97FF47E01121557121425CB
:100E97007BFF7A017952E4FDFF1209D07BFF7A01CB
:100EA70079637D02E4FF1209D07BFF7A0179747DB3
:100EB70004E4FF1209D07BFF7A0179857D06E4FF00
:100EC7001209D07FF47E011215571214257BFF7A81
:100ED700017996E4FDFF1209D07BFF7A0179A77D9E
:100EE70002E4FF1209D07BFF7A0179B87D04E4FFA1
:100EF7001209D07BFF7A0179C97D06E4FF1209D078
:0D0F07007FF47E01121557121425020D51C2
:101571002E003000310032003300340035003600D7
:06158100370038003900BC
:0715B100440054000000009B
:10155700EF4E60157D087C07ED1DAA0470011C4A3B
:0915670070F6EF1F70EA1E80E728
:011570002258
:10153B00900004EFF07006FD7FA612146490000477
:0C154B00E064017006FD7FA7121464220A
:10149500900004EFF0700DFD7FC8121464E4FD7F29
:1014A500A1121464900004E06401700DFD7FC01268
:0A14B5001464E4FD7FA01214642209
:10158700E4FD7F8D121464E4FD7F14121464E4FDFE
:051597007FAF021464A7
:10159C00E4FD7F8D121464E4FD7F10121464E4FDED
:0515AC007FAE02146493
:06145E001207A1FF7D0151
:10146400ED6004D2958002C295C294E4FEEEC3946A
:1014740008748094805015C297EF30E704D29680A8
:1014840002C296D297EF25E0FF0E80E1D294D29566
:011494002235
:10142500E4FCECC3940874809480502CEC24B0FF49
:10143500E4FD1214647F101214647F02121464E434
:10144500FBEBC3948074809480500A7D01E4FF1205
:0814550014640B80EC0C80CA4A
:01145D00226C
:1014E100AC070C0CED24B0FFE4FD121464EC54F0D5
:1014F100C4540F4410FF121464EC540FFF0214641F
:1013EB00E4900004F0900004E0FDC3940874809432
:1013FB00805026E4FF1214E1E4FCECC3948074806B
:10140B009480500D12145E740129F9E43AFA0C80A1
:09141B00E9900004E004F080CC2B
:0114240022A5
:0813180090003DEFF0A3EDF0A1
:10132000E4A3F090003FE0C39402748094805030B6
:1013300090003DE0FFA3E0FD1214E1E4FCECC39457
:101340001074809480500D12145E740129F9E43AEF
:10135000FA0C80E990003EE004F0A3E004F080C3C2
:01136000226A
:0813610090003DEFF0A3EDF058
:10136900E4A3F090003FE0C394027480948050306D
:1013790090003DE0FFA3E0FD1214E1E4FCECC3940E
:101389000874809480500D12145E740129F9E43AAE
:10139900FA0C80E990003EE004F0A3E004F080C379
:0113A9002221
:101501001214E1E4FCECC3940674809480500D1233
:0C151100145E740129F9E43AFA0C80E938
:01151D0022AB
:1014BF00E4FEEEC39408748094805015C297EF3009
:1014CF00E704D2968002C296EF25E0FFD2970E80F6
:0114DF00E12B
:0114E00022E9
:10151E00E4FFFEEEC3940874809480500FC297EFE0
:0C152E0025E0FF3093010FD2970E80E7FC
:01153A00228E
:0213AA00AC078E
:1013AC00C2927F031214BFAF041214BFAF05121404
:1013BC00BFAF031214BFE4FD900043E0FFEDC39FE9
:1013CC00501A12151E900040E0FBA3E0FAA3E0F9BE
:0E13DC008D82758300EF1207E70D80DCD29240
:0113EA0022E0
:1009D000900004EFF0A3EDF0A3EBF0A3EAF0A3E99D
:0109E000F026
:1009E100E4A3F0900006E0FBA3E0FAA3E0F9A3E0A2
:1009F100F5827583001207BAFF7E00D394007480DC
:100A010094805003020D36EF94B0748094805003AB
:100A1100020ABFD3EF94F7748094804003020ABFA7
:100A2100900009E02401FFEE33FE8F828E831207CE
:100A3100BAC394A1748094805003020ABF90000647
:100A4100A3A3A3E0F5827583001207BA2450FFE443
:100A510034FFFE7C007D5E120809EE3395E0FDFC5B
:100A6100900054120959900054E0F8A3E0F9A3E072
:100A7100FAA3E0FBC000C001C002C003900009E07E
:100A81002401FFE433FE900006E0FBA3E0FAA3E0BB
:100A9100F98F828E831207BA245FFFE434FFCF24DB
:100AA1004ECF3403FEE4FCFDD003D002D001D000D0
:100AB100EB2FFFEA3EFEED39FDEC38020B8790008B
:100AC10006E0FBA3E0FAA3E0F9A3E0F58275830059
:100AD1001207BAFF7E00C394A17480948050030270
:100AE1000C28D3EF94A3748094804003020C2890C7
:100AF1000009E02401FFEE33FE8F828E831207BAD4
:100B0100C394A1748094805003020C28900006A322
:100B1100A3A3E0F5827583001207BA245FFFE434D2
:100B2100FFFE7C007D5E120809EE3395E0FDFC902E
:100B31000054120959900054E0F8A3E0F9A3E0FA37
:100B4100A3E0FBC000C001C002C003900009E02483
:100B510001FFE433FE900006E0FBA3E0FAA3E0F915
:100B61008F828E831207BA245FFFE434FFFE339530
:100B7100E0FDFCD003D002D001D000EB2FFFEA3E14
:100B8100FEE93DFDE83CFC900054120959900054E7
:100B9100E0FCA3E0FDA3E0FEA3E0FFE47B20FAF983
:100BA100F812081B900054120959900054A3E0FD5B
:100BB100A3A3E4FFFEE4FC781012094690000AEFBB
:100BC100F0FA900054A3A3E0FEA3E4FFE4FDFC7857
:100BD1000812094690000BEFF0F9900054E0FCA3D5
:100BE100A3E0FEA3E0FF90000CEFF0FBAF02AD012C
:100BF1009000407401F0A37400F0A3740DF0A3748D
:100C010020F01213AA900004E0FFA3E0FD7B017A1B
:100C110000790D121318900004E02410F0900009DF
:100C2100E02402F00209E4900006E0FBA3E0FAA34D
:100C3100E0F9A3E0F5827583001207BAFF7E00C3D5
:100C41009420748094805003020D2DD3EF947E7410
:080C51008094804003020D2D88
:100C5900900006A3A3A3E0F5827583001207BA24C6
:100C6900E0FFEE34FFFE3395E0FDFC9000541209DD
:100C790059900054E0FCA3E0FDA3E0FEA3E0FFE4EB
:100C89007B10FAF9F812081B9000541209599000C8
:100C990054E0FCA3E0FDA3E0FEA3E02480FFEE34D2
:100CA900CFFEED3403FDE43CFC9000541209599049
:100CB9000054A3E0FDA3A3E4FFFEE4FC78101209AD
:100CC9004690000AEFF0FA900054A3A3E0FEA3E4D3
:100CD900FFE4FDFC780812094690000BEFF0F9904B
:100CE9000054E0FCA3A3E0FEA3E0FF90000CEFF0AA
:100CF900FBAF02AD019000407401F0A37400F0A3B2
:100D0900742DF0A37410F01213AA900004E0FFA34D
:100D1900E0FD7B017A00792D121361900004E02433
:020D290008F0D0
:0B0D2B008000900009E004F00209E4E1
:010D3600229A
:1010C900900004EFF0A3EDF0A3EBF0A3EAF0A3E99D
:0110D900F026
:1010DA00E4A3F0900006E0FBA3E0FAA3E0F9A3E0A2
:1010EA00F5827583001207BAFF7E00D394007480DC
:1010FA00948050030211F7EF942074809480500377
:10110A000211EED3EF947E7480948040030211EEB4
:10111A00900006A3A3A3E0F5827583001207BA2400
:10112A00E0FFEE34FFFE3395E0FDFC900054120917
:10113A0059900054E0FCA3E0FDA3E0FEA3E0FFE425
:10114A007B08FAF9F812081B90005412095990000A
:10115A0054E0FCA3E0FDA3E0FEA3E024C0FFEE34CC
:10116A00BFFEED3403FDE43CFC9000541209599093
:10117A000054A3E0FDA3A3E4FFFEE4FC78101209E7
:10118A004690000AEFF0FA900054A3A3E0FEA3E40D
:10119A00FFE4FDFC780812094690000BEFF0F99085
:1011AA000054E0FCA3A3E0FEA3E0FF90000CEFF0E4
:1011BA00FBAF02AD019000407401F0A37400F0A3EC
:1011CA00740DF0A37408F01213AA900004E0FFA3B0
:1011DA00E0FD7B017A00790D121501900004E024EC
:0211EA0006F00D
:0B11EC008000900009E004F00210DD1C
:0111F70022D5
:0A0F1400900045EDF0900044EFF06E
:100F1E0090004AE075F008A42F2408900044F0E4F5
:100F2E00FFFE7DC87C42900046E0F8A3E0F9A3E006
:100F3E00FAA3E0FB12061A1207209000501209596C
:100F4E00900044E024E8FFA3E0FD7BFF7A15797161
:100F5E001209D0E490004BF090004AE0FFA3E0C3EA
:100F6E009F40030210C8E47B0AFAF9F8900050E0A3
:100F7E00FCA3E0FDA3E0FEA3E0FF1208A6AC00ADCB
:100F8E0001AE02AF0390004C120959900050E0FCE4
:100F9E00A3E0FDA3E0FEA3E0FFE47B0AFAF9F8125A
:100FAE0008A6900050120959900044E024F8F090E1
:100FBE00004BE064027007900044E024F8F09000CB
:100FCE004CE0FCA3E0FDA3E0FEA3E0FF12099610A7
:100FDE001D00000000102E00000001103E00000059
:100FEE0002104E00000003105E00000004106E00A0
:100FFE00000005107E00000006108E000000071095
:10100E009E0000000810AE00000009000010BF9006
:10101E000044E0FFA3E0FD7BFF7A1579730210BC5C
:10102E00900044E0FFA3E0FD7BFF7A157975807E8A
:10103E00900044E0FFA3E0FD7BFF7A157977806E88
:10104E00900044E0FFA3E0FD7BFF7A157979805E86
:10105E00900044E0FFA3E0FD7BFF7A15797B804E84
:10106E00900044E0FFA3E0FD7BFF7A15797D803E82
:10107E00900044E0FFA3E0FD7BFF7A15797F802E80
:10108E00900044E0FFA3E0FD7BFF7A157981801E7E
:10109E00900044E0FFA3E0FD7BFF7A157983800E7C
:1010AE00900044E0FFA3E0FD7BFF7A1579851209DD
:0A10BE00D090004BE004F0020F6632
:0110C8002205
:1011F800D294D2927FC87E00121557E4FD7FAE12BA
:1012080014647F021214647F101214647F40121455
:10121800647FB01214647F811214647FCF12146447
:101228007FA11214647FA61214647FA81214647F2D
:101238003F1214647FAD1214647F8B1214647F33E1
:101248001214647FC81214647FD3121464E4FF126A
:1012580014647FD51214647F801214647FD9121429
:10126800647F1F1214647FDA1214647F12121464EC
:101278007FDB1214647F40121464121425E4FD7F8E
:04128800AF02146439
:10061A00EC4D6011E8497017ED33EC3304600DE4DA
:10062A00FCFFFEFD22E933E8330470F802078C125E
:10063A00075758046009E4CC24815006285009025F
:10064A000796284003020793C0E0EB4A7044B9803A
:10065A0006D0E0FB020782EF4E701CBD8008EBFF5C
:10066A00EAFEE9FD80EBE98DF0A4FEE5F00207035E
:10067A00E9CDF9EAFEEBFFEF89F0A4FCE5F0CE89BB
:10068A00F0A42EFFE435F0CD89F0A42DFEE435F078
:10069A008067EF4E7005BD80D780C3EF8BF0A4ACA6
:1006AA00F0EE8BF0A42CFCE435F0F8EF8AF0A42CE1
:1006BA00E5F038FCE433CB8DF0A42CFCE5F03BF8F4
:1006CA00EE8AF0A42CFCE5F038F8E433CF89F0A4E4
:1006DA002CFCE5F038CF3400CE89F0A42FFFE5F0EA
:1006EA003EFEE433C98DF0A42EFEE5F039CD8AF042
:1006FA00A42FFFE5F03EFEE43DFD33D0E0FB5007BA
:10070A000BBB000F020796EC2CFCEF33FFEE33FE17
:06071A00ED33FD02076E45
:10072000EDD2E7CD33EC3392D524814006E4FFFED1
:10073000FDFC22FCE4CFCECDCC24E0501174FF8030
:10074000EDC3CC13CCCD13CDCE13CECF13CF0470CD
:07075000F030D5DE0209388C
:10075700E9D2E7C933E833F892D5EDD2E7CD33ECE8
:0707670033FC5002B2D52261
:10076E00EC30E7100FBF000C0EBE00080DBD0004EC
:10077E000BEB6014A2D5EB13FCED92E7FD2274FF98
:10078E00FCFDFEFF22E480F8A2D574FF13FC7D80F1
:03079E00E480EF05
:0300000002128C5D
:0C128C00787FE4F6D8FD7581070212D3CC
:1007A100BB010689828A83E0225002E722BBFE0256
:0907B100E32289828A83E4932289
:1007BA00BB010CE58229F582E5833AF583E02250F4
:1007CA0006E92582F8E622BBFE06E92582F8E2223E
:0D07DA00E58229F582E5833AF583E4932258
:1007E700F8BB010DE58229F582E5833AF583E8F048
:1007F700225006E92582C8F622BBFE05E92582C8F4
:02080700F222DB
:10080900EF8DF0A4A8F0CF8CF0A428CE8DF0A42E03
:02081900FE22BD
:10081B00E88FF0A4CC8BF0A42CFCE98EF0A42CFC7C
:10082B008AF0EDA42CFCEA8EF0A4CDA8F08BF0A4FA
:10083B002DCC3825F0FDE98FF0A42CCD35F0FCEB59
:10084B008EF0A4FEA9F0EB8FF0A4CFC5F02ECD391E
:0F085B00FEE43CFCEAA42DCE35F0FDE43CFC228B
:10086A0075F008758200EF2FFFEE33FECD33CDCC45
:10087A0033CCC58233C5829BED9AEC99E5829840C8
:10088A000CF582EE9BFEED9AFDEC99FC0FD5F0D6A5
:10089A00E4CEFBE4CDFAE4CCF9A88222B800C1B9CF
:1008AA000059BA002DEC8BF084CFCECDFCE5F0CB0D
:1008BA00F97818EF2FFFEE33FEED33FDEC33FCEB46
:1008CA0033FB10D703994004EB99FB0FD8E5E4F901
:1008DA00FA227818EF2FFFEE33FEED33FDEC33FCEE
:1008EA00C933C910D7059BE99A4007EC9BFCE99AE2
:1008FA00F90FD8E0E4C9FAE4CCFB2275F010EF2F27
:10090A00FFEE33FEED33FDCC33CCC833C810D70726
:10091A009BEC9AE899400AED9BFDEC9AFCE899F861
:0E092A000FD5F0DAE4CDFBE4CCFAE4C8F922F4
:0E093800C3E49FFFE49EFEE49DFDE49CFC22D0
:10094600E8600FECC313FCED13FDEE13FEEF13FF8F
:03095600D8F122B3
:0C095900ECF0A3EDF0A3EEF0A3EFF02211
:10096500A8828583F0D083D08212097C12097C127B
:10097500097C12097CE473E493A3C583C5F0C583A0
:10098500C8C582C8F0A3C583C5F0C583C8C582C8DC
:01099500223F
:10099600D083D082E4937012740193700DA3A39355
:1009A600F8740193F5828883E4737402936C701271
:1009B6007403936D700C7404936E70067405936FD4
:0A09C60060DDA3A3A3A3A3A380CACE
:10129800020D37E493A3F8E493A34003F68001F228
:1012A80008DFF48029E493A3F85407240CC8C33357
:1012B800C4540F4420C8834004F456800146F6DF26
:1012C800E4800B01020408102040809015B1E47EF0
:1012D800019360BCA3FF543F30E509541FFEE4931B
:1012E800A360010ECF54C025E060A840B8E493A3E2
:1012F800FAE493A3F8E493A3C8C582C8CAC583CA0D
:10130800F0A3C8C582C8CAC583CADFE9DEE780BEC4
:0115B8000032
:00000001FF
