:020000040800F2
:10000000580800209D010008B70C0008B30C000838
:10001000B50C00083B0200081D130008000000009A
:1000200000000000000000000000000007120008AF
:100030003D020008000000000512000847120008F9
:10004000B7010008B7010008B7010008B7010008B0
:10005000B7010008B7010008B7010008B7010008A0
:10006000B7010008B7010008B7010008B701000890
:10007000B7010008B7010008B7010008B701000880
:10008000B7010008B7010008B7010008B701000870
:10009000B7010008B7010008B7010008B701000860
:1000A000B7010008B7010008B7010008B701000850
:1000B000B7010008B7010008B7010008B701000840
:1000C000B7010008B7010008B7010008B701000830
:1000D000B7010008B7010008B7010008B701000820
:1000E000B7010008B7010008B7010008B701000810
:1000F000B7010008B7010008B7010008B701000800
:10010000000000000000000000000000B70100082F
:10011000B7010008B7010008B7010008B7010008DF
:10012000B7010008B7010008B7010008B7010008CF
:10013000B7010008B701000800000000000000003F
:10014000B7010008B7010008B7010008000000006F
:10015000000000000000000000000000000000009F
:100160000000000000000000B7010008B70100080F
:10017000B7010008000000000000000000000000BF
:1001800000000000B7010008DFF80CD000F018F8FC
:10019000004800473D1300085808002006488047E3
:1001A00006480047FEE7FEE7FEE7FEE7FEE7FEE75C
:1001B000FEE7FEE7FEE7FEE7B5120008890100084A
:1001C000064C074D06E0E06840F0010394E80700A4
:1001D00098471034AC42F6D3FFF7DAFF2017000837
:1001E0004017000870B58C1810F8015B15F0070374
:1001F00001D110F8013B2A1106D110F8012B03E0C0
:1002000010F8016B01F8016B5B1EF9D12B0705D4C7
:100210000023521E0DD401F8013BFAE710F8013B10
:10022000CB1A921C03E013F8015B01F8015B521E2C
:10023000F9D5A142D8D3002070BDFEE7704770B554
:10024000002425464FF0904600222021304600F041
:10025000F0F86006040E1021304600F0E5F808B111
:10026000641CE4B201222021304600F0E2F86D1C4B
:10027000EDB2082DE8D3204670BD000070B50446ED
:1002800000F0DCF80546601C02D004480078044405
:1002900000F0D4F8401BA042FAD370BD48040020FF
:1002A0002DE9F84FDFF864B100234FF0010C4FF057
:1002B000030A4FF00F090BF1040EA0E00CFA03F64D
:1002C000324072D04C68022C01D0122C0ED1DC08C6
:1002D00000EB8408D8F820405D07EF0E09FA07F517
:1002E000AC430D69BD402543C8F8205007685D0048
:1002F00091F804800AFA05F408F00308A74308FA05
:1003000005F848EA0708C0F800804F68012F05D0BB
:10031000022F03D0112F01D0122F11D18768D1F8ED
:100320000C80A74308FA05F848EA0708C0F80880D7
:100330004768B7430E79C6F300169E403E434660B9
:10034000C668A6438C68AC403443C4604C68E40083
:1003500054D52F4CA56945F00105A561A46923F08A
:10036000030504F0010400942A4C2E19B4689D077B
:100370002F0F09FA07F5AC43B0F1904F04D0264D8A
:10038000A84203D1012512E0002510E0234DA84228
:1003900001D102250BE0224DA84201D1032506E040
:1003A000204DA84202D1042501E027E00525BD40EB
:1003B0002543B560DBF800405D464E689443F60384
:1003C00000D514432C60DEF8004075464E68944317
:1003D000B60300D514432C600C4D08352C684E68CC
:1003E0009443F60200D514432C60084D0C352C685C
:1003F0004E689443B60200D514432C605B1C0A6817
:1004000032FA03F47FF45AAFBDE8F88F00040140DC
:1004100000100240000001400004004800080048AD
:10042000000C0048001000480069084000D001207E
:1004300070470AB1816170478162704701488068E6
:100440007047000048040020024881680278114487
:100450008160704748040020074810B5016841F0EA
:1004600010010160032000F04BF8002000F006F8B6
:1004700000F024F8002010BD0020024070B50D4DA2
:1004800004464FF47A712878B1FBF0F00A49096804
:10049000B1FBF0F000F0F5FB48B9102C07D20022B8
:1004A0002146501E00F00CF800206C6070BD012049
:1004B00070BD000048040020400400207047000088
:1004C000F0B40E4B1B680C46C3F30223C3F10705BF
:1004D000042D00D90425191D072901D2002300E0AD
:1004E000DB1E012606FA05F1491E214099409E4077
:1004F000761E16403143F0BC00F0DEBB0CED00E090
:10050000064900F0070208684FF6FF03184040EA6A
:100510000220034A10430860704700000CED00E021
:100520000000FA052DE9F0470F46050069D04A4E54
:10053000306800F00700B84209D2306820F00700A8
:1005400038433060306800F00700B84259D128784D
:10055000424C800705D56068A96820F0F000084388
:1005600060602878C0073DD06968012001290DD05E
:10057000022923D05FF0020393FAA3F2B2FA82F2C7
:1005800042F02002520904D0226803E04FF4003305
:10059000F2E7626A93FAA3F3B3FA83F303F01F035B
:1005A000984002422DD0606820F00300084360604C
:1005B000FFF744FF804641F288390CE04FF00073AA
:1005C000DAE700BFFFF73AFFA0EB0801494502D97F
:1005D0000320BDE8F0876068696800F00C00B0EBAC
:1005E000810FEFD1306800F00700B8420BD93068B6
:1005F00020F0070038433060306800F00700B84250
:1006000001D00120E5E72878400705D56068E96852
:1006100020F4E060084360602878000706D5606831
:10062000296920F4605040EAC100606000F022F8BF
:100630006168F02292FAA2F201F0F001B2FA82F2BD
:10064000D140074A515CC840064908600020FFF7C6
:1006500015FF0020BDE7000000200240001002400E
:10066000F0160008400400200148006870470000B0
:1006700040040020144B10B55A68144802F00C01D5
:1006800004291DD008291BD14FF4701494FAA4F446
:1006900002F47011B4FA84F4E1400D4CDB6A615C41
:1006A0000F2494FAA4F403F00F03B4FA84F4E340A3
:1006B000074C1034D203E35C03D5B0FBF3F048439E
:1006C00010BD0448484310BD0010024000127A00DB
:1006D0000017000800093D002DE9F84F040071D013
:1006E0002078FB4DC0074FF0010625D068687704DD
:1006F000C0F38100012807D06868C0F38100022898
:100700001BD16868C00318D597FAA7F0B0FA80F03B
:1007100040F02000400901D0286800E0686A97FA9C
:10072000A7F1B1FA81F101F01F0106FA01F10842C7
:1007300065D060680028D2D061E06068B0F5803F85
:100740000BD010B1B0F5A02F17D0286820F480305E
:100750002860286820F4802002E0286840F4803077
:100760002860E86AA16820F00F000843E86260682A
:1007700020B3FFF763FE80460AE0286840F480203B
:100780002860EAE7FFF75AFEA0EB0800642872D859
:1007900097FAA7F0B0FA80F040F02000400901D0AD
:1007A000286800E0686A97FAA7F1B1FA81F101F0D0
:1007B0001F0106FA01F10842E4D020E0FFF73EFEF7
:1007C000804607E0C7E000BFFFF738FEA0EB080057
:1007D0006428DCD897FAA7F0B0FA80F040F0200047
:1007E000400901D0286800E0686A97FAA7F1B1FAD9
:1007F00081F101F01F0106FA01F10842E4D12078ED
:10080000DFF8D08280074FF0000A4FF0020759D579
:1008100068684FF0F80B10F00C0F07D06868C0F351
:10082000810002281BD16868C00318D497FAA7F08A
:10083000B0FA80F040F02000400901D0286800E0C4
:10084000686A97FAA7F1B1FA81F101F01F0106FA7F
:1008500001F108422BD0206901287CD127E02069D2
:1008600088B396FAA6F0B0FA80F048F82060FFF757
:10087000E5FD814606E055E1FFF7E0FDA0EB09004C
:10088000022884D897FAA7F0B0FA80F040F0200050
:10089000400901D0286800E0686A97FAA7F1B1FA28
:1008A00081F101F01F0106FA01F10842E4D0286845
:1008B0009BFAABF26169B2FA82F220F0F800914043
:1008C0000843286025E0FFE796FAA6F1B1FA81F126
:1008D00048F821A0FFF7B2FD814605E0FFF7AEFD25
:1008E000A0EB09000228CCD897FAA7F0B0FA80F064
:1008F00040F02000400901D0286800E0686A97FABB
:10090000A7F1B1FA81F101F01F0106FA01F10842E5
:10091000E4D1207800076AD5A069A0B396FAA6F0C2
:10092000B0FA80F008EB8000C0F88064FFF786FD25
:10093000814605E0FFF782FDA0EB09000228A0D860
:1009400097FAA7F0B0FA80F040F06000B6EB501FC5
:1009500002D128680CE077E197FAA7F0B0FA80F0AE
:1009600040F06000B7EB501F01D1286A00E0686AD0
:1009700097FAA7F1B1FA81F101F01F0106FA01F22D
:100980001042D7D033E0FFE796FAA6F0B0FA80F035
:1009900008EB8000C0F880A4FFF750FD814605E019
:1009A000FFF74CFDA0EB090002289CD897FAA7F0AE
:1009B000B0FA80F040F06000B6EB501F01D128681B
:1009C0000BE097FAA7F0B0FA80F040F06000B7EBC8
:1009D000501F01D1286A00E0686A97FAA7F1B1FABE
:1009E00081F101F01F0106FA01F21042D8D12078FE
:1009F000400774D5E8694FF00009C00009D4E869E0
:100A000040F08050E861E8694FF0010900F0805043
:100A1000009031480168C90512D4016841F4807121
:100A20000160FFF70BFD834606E000BFFFF706FD00
:100A3000A0EB0B00642875D827480068C005F5D5E1
:100A4000E06801280AD008B1052811D0286A20F0F2
:100A500001002862286A20F0040002E0286A40F0C1
:100A600001002862E068C8B3FFF7E8FC83460DE0A8
:100A7000286A40F004002862F0E700BFFFF7DEFCC0
:100A8000A0EB0B0141F2883081424BD897FAA7F0D6
:100A9000B0FA80F040F04000B6EB501F01D128685A
:100AA0000BE097FAA7F0B0FA80F040F04000B7EB07
:100AB000501F01D1286A00E0686A97FAA7F1B1FADD
:100AC00081F101F01F0106FA01F21042D6D035E0A3
:100AD00000100240000042420070004000E034E09C
:100AE000FFF7ACFC834607E0FFF7A8FCA0EB0B0187
:100AF00041F28830814215D897FAA7F0B0FA80F019
:100B000040F04000B6EB501F01D128680CE097FA86
:100B1000A7F0B0FA80F040F04000B7EB501F02D1D0
:100B2000286A01E083E0686A97FAA7F1B1FA81F1D7
:100B300001F01F0106FA01F21042D5D1B9F1000F00
:100B400003D0E86920F08050E861E06980B369680B
:100B5000C1F38101022977D04FF080714F00022844
:100B600009D091FAA1F0B0FA80F048F820A0FFF780
:100B700065FC04465EE050468A4691FAA1F1B1FA5E
:100B800081F1C14648F82100FFF758FC804605E096
:100B9000FFF754FCA0EB0800022848D897FAA7F00A
:100BA000B0FA80F040F02000400902D0286801E04F
:100BB00056E0686A97FAA7F1B1FA81F101F01F01D6
:100BC00006FA01F10842E3D1D4E908100843696844
:100BD00021F47411084368609AFAAAF0B0FA80F020
:100BE00049F82060FFF72AFC044604E0FFF726FCE2
:100BF000001B02281BD897FAA7F0B0FA80F040F04B
:100C00002000400901D0286800E0686A97FAA7F13F
:100C1000B1FA81F101F01F0106FA01F10842E5D0B5
:100C20001EE000BFFFF70AFC001B022802D90320C8
:100C3000BDE8F88F97FAA7F0B0FA80F040F02000F6
:100C4000400902D0286801E00CE0686A97FAA7F131
:100C5000B1FA81F101F01F0106FA01F10842E1D178
:100C60000020E5E70120E3E74FF0E02104280869D0
:100C700003D020F004000861704740F00400FAE758
:100C8000704710B5401EB0F1807F01D3012010BD28
:100C90004FF0E02460610F21601700F00DF8002094
:100CA000A06107202061002010BD10B5FFF7E8FF0C
:100CB00010BDFEE7FEE770470907090E002806DAB7
:100CC00000F00F0000F1E02080F8141D704700F1E3
:100CD000E02080F80014704770B5002404F1B000E3
:100CE000C0B2002100F00CFA0021102000F008FA38
:100CF0000021022000F004FA00250121002000F06C
:100D0000FFF96D1CEDB2802DF7D3641CE4B2082C02
:100D1000E4D370BD30B1012807D100215FF0A700F6
:100D200000F0EEB90021A620FAE7704710B558B1DF
:100D3000012810D10021C02000F0E2F90021A020FC
:100D4000BDE8104000F0DCB90021C82000F0D8F95F
:100D50000021A120F4E710BD70B50646002421460D
:100D6000002000F00DFA00253078012100F0C8F9CC
:100D70006D1CEDB2761C802DF6D3641CE4B2082CF9
:100D8000EDD370BD2DE9F04116460F468046002593
:100D90003946404600F0F4F900243078012100F093
:100DA000AFF9641CE4B2761C102CF6D37F1C6D1CCA
:100DB000EDB2FFB2022DEBD3BDE8F08170B5154660
:100DC00000F0DEF900242878012100F099F9641C74
:100DD000E4B26D1C062CF6D370BD2DE9F041164629
:100DE0000F46804600253946404600F0C9F90024E8
:100DF0003078012100F084F9641CE4B2761C082CE0
:100E0000F6D37F1C6D1CEDB2FFB2022DEBD3BDE813
:100E1000F08100002DE9F0438DB017468946054664
:100E200000244FF020082B4E4EE000BFA0F1B0018F
:100E300047290AD83A195378A12B06D35E2041439B
:100E40003160507801F2AD210CE0A0F1A10102293E
:100E50001FD83A195378A12B1BD35E204143316030
:100E60005078A139084440013060C0F3074CC0F30A
:100E70000721C2B201AB6046CDF8008000F096F9C0
:100E800001AA49462846FFF77DFF1035EDB2A41CA4
:100E900019E020385E2815D80F4909AB01EB001086
:100EA000C0F3074CC0F30721C2B23060102000909D
:100EB000604600F07BF909AA49462846FFF78DFFF6
:100EC0000835EDB2641CE4B2385D0028AED10DB037
:100ED000BDE8F0834404002080CF0300FEB5164631
:100EE0000F46054600241BE020385E2816D80F4A1E
:100EF0000D4902EBC000C0F3074C0860C0F30721A6
:100F0000C2B20820009001AB604600F04FF901AA80
:100F100039462846FFF752FFAD1DEDB2641CE4B21E
:100F2000305D0028E0D1FEBD44040020C0BF0300B6
:100F30002DE9F0476E4886B0416941F400314161C6
:100F4000416901F400310591416941F40021416199
:100F5000416901F400210591416941F48011416129
:100F6000416901F480110591416941F48021416199
:100F700040694FF0904700F4802005900122B02195
:100F80003846FFF756FA0122DFF86881160331462A
:100F90004046FFF74EFADFF86091012204214846EF
:100FA000FFF747FADFF854A10122E0215046FFF78E
:100FB00040FA0124A020CDE9000403256946384603
:100FC000CDE90245FFF76CF91020009001AA00203E
:100FD00082E8310069463846FFF762F9CDE90064DE
:100FE00069464046CDE90245FFF75AF90420CDE9AC
:100FF000000469464846CDE90245FFF751F9E02073
:10100000CDE9000469465046CDE90245FFF748F9AD
:10101000C820FFF733F90021AE2000F071F800215D
:10102000022000F06DF80021102000F069F8002186
:10103000402000F065F80021B02000F061F80021A8
:10104000812000F05DF80021CF2000F059F8002148
:10105000A12000F055F80021A62000F051F8002151
:10106000A82000F04DF800213F2000F049F80021B1
:10107000AD2000F045F800218B2000F041F8002160
:10108000332000F03DF80021C82000F039F800219D
:10109000D32000F035F80021084600F031F8002197
:1010A000D52000F02DF80021802000F029F8002143
:1010B000D92000F025F800211F2000F021F80021A0
:1010C000DA2000F01DF80021122000F019F80021AC
:1010D000DB2000F015F80021402000F011F8FFF7A8
:1010E000FBFD0021AF2000F00BF806B0BDE8F08753
:1010F0000010024000080048000C004800040048AE
:101100002DE9F041DFF87080054609B1012200E0C9
:10111000002204214046FFF78CF9184F00222021BD
:101120003846FFF786F900244FF090460022202130
:101130003046FFF77EF9280601D5012200E00022A3
:1011400080213046FFF775F9012220213046FFF754
:1011500070F96806641C050EE4B2082CE6D301227F
:1011600020213846FFF765F94046BDE8F0410122ED
:101170000421FFF75EB90000000C0048000400489D
:1011800010B5801CC4B2B031C8B20021FFF7B8FF5F
:10119000102040EA14100021FFF7B2FF04F00F0006
:1011A000BDE810400021FFF7ABBF00002DE9F0477C
:1011B000134F9046894604461D460022402138467A
:1011C000089EFFF736F9032000F01EF8204600F0D5
:1011D0001BF8484600F018F8404600F015F80024C7
:1011E00005E000BFFFF72BF82855641CE4B2B442B9
:1011F000F8D33846BDE8F04701224021FFF719B97E
:10120000000400487047704770B5054600244FF051
:101210009046002220213046FFF70BF9280601D521
:10122000012200E0002280213046FFF702F9680623
:10123000050E012220213046FFF7FBF8641CE4B2C2
:10124000082CE6D370BD10B5FFF7FEF8BDE81040DE
:10125000FFF72BBD30B58FB001210804CDE9001098
:101260000024029402250491CDE907504FF4E010C8
:1012700009906846FFF730FA0F20CDE90A056802A9
:10128000CDE90C4002210AA80E94FFF74BF9FFF7B5
:10129000EBF94FF47A71B0FBF1F0FFF7F2FC0420A8
:1012A000FFF7E2FC00221146501EFFF709F90FB0CC
:1012B00030BD00001448016841F47001016013481A
:1012C000016841F0010101604168114A114041602B
:1012D0000168104A11400160016821F48021016019
:1012E000416821F4FE014160C16A21F00F01C16231
:1012F000016B094A11400163002181600249C0036A
:10130000803908607047000088ED00E0001002405E
:101310000CC07FF8FFFFF6FECCFC00FFFEE702E00A
:1013200008C8121F08C1002AFAD170477047002070
:1013300001E001C1121F002AFBD17047FFF78CF8B2
:10134000FFF788FFFFF7F4FD0020FFF7E3FC002024
:10135000FFF7ECFC4FF4FA745B48FFF7FDFC204606
:10136000FEF78CFF002159A20846FFF753FD5CA24F
:1013700002210020FFF74EFD5EA204210020FFF7AE
:1013800049FD61A206210020FFF744FD2046FEF73B
:1013900075FFFFF7A1FC61A200211820FFF73AFDBD
:1013A00061A202210020FFF735FD64A20421002084
:1013B000FFF730FD66A206210020FFF72BFD204637
:1013C000FEF75CFFFFF788FC002166A20846FFF7E6
:1013D00021FD69A202210020FFF71CFD6BA2042160
:1013E0000020FFF717FD6EA206210020FFF712FD77
:1013F0006F4A06216120FFF7C5FC6D4A06212032A5
:101400007120FFF7BFFC2046FEF738FFFFF764FCB2
:10141000002168A20846FFF7FDFC6BA20221002014
:10142000FFF75CFD6EA203210020FFF757FD72A2BB
:1014300004210020FFF752FD75A205210020FFF7CF
:101440004DFD79A206210020FFF748FD7BA2072170
:101450000020FFF743FD2046FEF710FFFFF73CFC9E
:1014600000217BA20846FFF7D5FC7EA202210020C6
:10147000FFF7D0FC80A204210020FFF7CBFC83A261
:1014800006210020FFF7C6FC2046FEF7F7FEFFF717
:1014900023FC002182A20846FFF7BCFC85A20221A2
:1014A0000020FFF7B7FC88A204210020FFF7B2FC60
:1014B0008AA206210020FFF7ADFC2046FEF7DEFEE3
:1014C000FFF70AFC48E70000000000203132383600
:1014D000342CB4F8D6D0CEC4D7D6BFE2000000007A
:1014E0003136583136BCF2CCE5BABAD7D6BFE22C89
:1014F00000000000BBF238583136B5E3D5F3415354
:101500004349492C00000000BBF2355837B5E3D5FC
:10151000F34153434949C2EB00000000D6D0BEB0AE
:10152000D4B0B5E7D7D30000D6F7D2AAC9FAB2FA39
:101530004F4C4544C4A3BFE900000000B9CBBFCD68
:10154000D6C1C9CFD5E6B3CFB7FECEF100000000BB
:10155000B3CFD0C5D3EBD6CAC1BFB5DAD2BBA3A136
:1015600000000000474232333132BCF2CCE5D7D61E
:10157000BFE2BCB000000000D3D0CDBCD0CDB9A636
:10158000C4DCA3ACBFC9D7D400000000B1E0B4F301
:10159000D7D6BBF2CDBCCFF1BBF2C9FA0000000038
:1015A000C6A7D7D6A3ACC0FDC8E7A3BA0000000009
:1015B000000400203C21402324255E262A28295FA0
:1015C0002D2B5D2F000000003C21402324255E26AA
:1015D0002A28295F2D2B5D2F3B2E2C3F5B0000001E
:1015E000585920656C656374726F6E69637320432C
:1015F0006F2E2C20000000004C74642E2065737444
:1016000061626C6973686564206174202000000069
:101610007965617220323031302E466F63757320E8
:101620004F4C4544200000004D6F62696C653A31B3
:1016300033323635353835393735000054656C3A34
:10164000303735352D333239313037313500000000
:10165000B0A1B0A2B0A3B0A4B0A5B0A6B0A7B0A8E6
:1016600000000000B0A9B0AAB0ABB0ACB0ADB0AE55
:10167000B0AFB0B000000000B0B1B0B2B0B3B0B421
:10168000B0B5B0B6B0B7B0B800000000B0B9B0BAED
:10169000B0BBB0BCB0BDB0BEB0BFB0C000000000B9
:1016A000F7DFF7E0F7E1F7E2F7E3F7E4F7E5F7E66E
:1016B00000000000F7E7F7E8F7E9F7EAF7EBF7ECE7
:1016C000F7EDF7EE00000000F7EFF7F0F7F1F7F2B3
:1016D000F7F3F7F4F7F5F7F600000000F7FEF7F878
:1016E000F7FAF7FBF7FCF7FDF7F7F7F90000000052
:1016F00000000000000000000102030406070809C2
:1017000002030405060708090A0B0C0D0E0F101042
:101710000102030405060708090A0B0C0D0E0F1041
:10172000401700080000002054040000E4010008F5
:101730005018000854040020040400002E13000870
:101740001116060AFE0AC612E012F062F84EFE7D7D
:10175000BBC7EF01053EC7BB7DFE300D080CFEFE8A
:101760000C082060FEFE60208F7848FE82BABA0323
:1017700009135EAA0101017E6CFEFF0301CBFFFF8E
:101780000F39BBECC0C0C0271918F92701392975DA
:10179000990B6CFFFF0C01491A0C22E1E1E12701D2
:1017A000396C0F1F1801FB1F0F0F092E2701392558
:1017B000E2928A86167C8282827C12FE258292AA1E
:1017C000C65BC0C01111AD020202FE10190D012B43
:1017D000300A24A42E24E4242EA424000A56F84A15
:1017E0004C48F8484C4AF81CC0201001AB20C00AF5
:1017F00011300A120A07027F02070A121E0B0A0A98
:101800000A7F0402560B980A1F2040404050205F78
:10181000800A11300EFE8242A29E8A82868AB262BD
:1018200002FE1C7F4040031901290921180980800C
:1018300080BFA5A5A53F041ABF0C1178087F2424FA
:101840003F24247F081153127A32017210000000E5
:040000050800018965
:00000001FF
