:020000040800F2
:10000000900B00200D02000839040008310400089C
:1000100035040008BD020008AB0C00080000000019
:10002000000000000000000000000000090A0008B5
:10003000C102000800000000E5090008610B00088B
:1000400027020008270200082702000827020008EC
:1000500027020008270200082702000827020008DC
:1000600027020008270200082702000827020008CC
:1000700027020008270200082702000827020008BC
:1000800027020008270200082702000827020008AC
:10009000270200082702000827020008270200089C
:1000A000270200082702000827020008270200088C
:1000B000270200082702000827020008270200087C
:1000C000270200082702000827020008270200086C
:1000D00027020008C50B00082702000827020008B5
:1000E000270200082702000827020008270200084C
:1000F000270200082702000827020008270200083C
:10010000270200082702000827020008270200082B
:10011000270200082702000827020008270200081B
:10012000270200082702000827020008270200080B
:1001300000F002F800F05AF80AA090E8000C82449F
:100140008344AAF10107DA4501D100F04FF8AFF27C
:10015000090EBAE80F0013F0010F18BFFB1A43F0A5
:1001600001031847A40F0000C40F00000A444FF019
:10017000000C10F8013B13F0070408BF10F8014B06
:100180001D1108BF10F8015B641E05D010F8016B4B
:10019000641E01F8016BF9D113F0080F1EBF10F8AF
:1001A000014BAD1C0C1B09D16D1E58BF01F801CBD2
:1001B000FAD505E014F8016B01F8016B6D1EF9D555
:1001C0009142D6D37047000000230024002500266A
:1001D000103A28BF78C1FBD8520728BF30C148BFAA
:1001E0000B6070471FB51FBD10B510BD00F033F890
:1001F0001146FFF7F7FF00F0A5FD00F051F803B43A
:10020000FFF7F2FF03BC00F052FD000009488047F1
:1002100009480047FEE7FEE7FEE7FEE7FEE7FEE7E8
:10022000FEE7FEE7FEE7FEE704480549054A064B00
:1002300070470000650B00083101000890050020A0
:10024000900B002090070020900700207047704717
:10025000704770477047754600F02CF8AE460500B1
:100260006946534620F00700854618B020B5FFF7D1
:10027000DBFFBDE820404FF000064FF000074FF0D5
:1002800000084FF0000B21F00701AC46ACE8C009B4
:10029000ACE8C009ACE8C009ACE8C0098D467047BD
:1002A00010B50446AFF300802046BDE81040FFF7CC
:1002B000A6BF0000004870472C05002000BFFEE7E5
:1002C00070472DE9F041024600250026002000235A
:1002D0000024002791F803C00CF00F0591F803C02B
:1002E0000CF0100CBCF1000F03D091F802C04CEAE6
:1002F000050591F800C0BCF1000F31D01468002052
:100300002BE04FF0010C0CFA00F3B1F800C00CEA3E
:1003100003069E4220D183004FF00F0C0CFA03F726
:10032000BC4305FA03FC4CEA040491F803C0BCF199
:10033000280F06D14FF0010C0CFA00FCC2F814C0D3
:100340000AE091F803C0BCF1480F05D14FF0010C51
:100350000CFA00FCC2F810C0401C0828D1D314606D
:10036000B1F800C0BCF1FF0F34DD546800202EE06E
:1003700000F1080C4FF0010808FA0CF3B1F800C0C6
:100380000CEA03069E4221D183004FF00F0C0CFAB9
:1003900003F7BC4305FA03FC4CEA040491F803C0DC
:1003A000BCF1280F05D100F1080C08FA0CF8C2F8CE
:1003B000148091F803C0BCF1480F07D100F1080C7C
:1003C0004FF0010808FA0CF8C2F81080401C082809
:1003D000CED35460BDE8F0810246002093680B4004
:1003E0000BB1012000E000207047416170470161BE
:1003F0007047000070B50024002512E020210B4852
:10040000FFF7F3FF6006040E10210848FFF7E4FF32
:1004100008B1601CC4B220210448FFF7E8FF681C43
:10042000C5B2082DEADB204670BD0000000801407F
:1004300000BFFEE700BFFEE7704770B5002419E07B
:1004400004F1B001C8B2002100F04EFA00211020E2
:1004500000F04AFA0021022000F046FA002505E0EB
:100460000121002000F040FA681CC5B2802DF7DBA6
:10047000601CC4B2082CE3DB70BD10B504461CB987
:100480000021A62000F030FA012C03D10021A72082
:1004900000F02AFA10BD10B504463CB90021C8206E
:1004A00000F022FA0021A12000F01EFA012C07D151
:1004B0000021C02000F018FA0021A02000F014FA5A
:1004C00010BD70B50446002510E02946002000F05C
:1004D00047FA002606E02078012100F005FA641CA6
:1004E000701CC6B2802EF6DB681CC5B2082DECDB92
:1004F00070BD2DE9F04180460D461446002712E0FC
:100500002946404600F02CFA002606E0207801211A
:1005100000F0EAF9641C701CC6B2102EF6DB681CF1
:10052000C5B2781CC7B2022FEADBBDE8F0812DE925
:10053000F04106460F4614463946304600F010FAA0
:10054000002506E02078012100F0CEF9641C681C2B
:10055000C5B2062DF6DBBDE8F0812DE9F0418046FD
:100560000D461446002712E02946404600F0F8F9EF
:10057000002606E02078012100F0B6F9641C701C0A
:10058000C6B2082EF6DB681CC5B2781CC7B2022FB3
:10059000EADBBDE8F08100002DE9F0478EB00646A9
:1005A0008A4615460024A6E0285DB02836DB285D83
:1005B000F72833DC601C285CA1282FDB285DB038CD
:1005C0005E2148434F490860601C285C00F2AD2062
:1005D000096808444B490860084600684001086003
:1005E00008460068C0F3074708460088C0F307289C
:1005F000084690F80090202006AB4A4641460090FD
:10060000384600F0C5F906AA51463046FFF771FF9B
:1006100006F11000C6B2A01CC4B26CE0285DA1288F
:1006200035DB285DA32832DC601C285CA1282EDB8A
:10063000285DA1385E21484332490860601C285C6F
:10064000A138096808442F4908600846006840013D
:10065000086008460068C0F3074708460088C0F3F2
:100660000728084690F80090202006AB4A464146ED
:100670000090384600F08CF906AA51463046FFF744
:1006800038FF06F11000C6B2A01CC4B233E0285DEA
:1006900020282EDB285D7E282BDC285D2038194998
:1006A00008600846006800010860084600681649AE
:1006B00008441449086008460068C0F30747084624
:1006C0000088C0F30728084690F80090102002AB7D
:1006D0004A4641460090384600F05AF902AA51466F
:1006E0003046FFF73AFF06F10800C6B2601CC4B2FC
:1006F00001E0601CC4B2285D00283FF755AF0EB082
:10070000BDE8F0870000002080CF03002DE9FE4FF8
:1007100080468A461546002433E0285D20282EDBDB
:10072000285D7E282BDC285D2038184908600846A3
:100730000068C0000860084600681549084413496D
:10074000086008460068C0F3074908460088C0F3FF
:10075000072608460778082001AB3A463146009044
:10076000484600F015F901AA51464046FFF7DFFE62
:1007700008F1060000F0FF08601CC4B201E0601C34
:10078000C4B2285D0028C8DCBDE8FE8F0000002050
:10079000C0BF030008B501213C2000F025F9A020CE
:1007A000ADF8000010208DF8030003208DF8020042
:1007B00069464A48FFF785FDA0214848FFF717FE24
:1007C0006020ADF8000069464548FFF77AFD6021DA
:1007D0004348FFF70CFE0420ADF80000694641488D
:1007E000FFF76FFD04213F48FFF701FE1020ADF831
:1007F000000048208DF8030069463848FFF761FD86
:10080000C82000F079FA0021AE2000F06DF8002138
:10081000022000F069F80021102000F065F80021A6
:10082000402000F061F80021B02000F05DF80021C8
:10083000812000F059F80021CF2000F055F8002168
:10084000A12000F051F80021A62000F04DF8002171
:10085000A82000F049F800213F2000F045F80021D1
:10086000AD2000F041F800218B2000F03DF8002180
:10087000332000F039F80021C82000F035F80021BD
:10088000D32000F031F80021084600F02DF80021B7
:10089000D52000F029F80021802000F025F8002163
:1008A000D92000F021F800211F2000F01DF80021C0
:1008B000DA2000F019F80021122000F015F80021CC
:1008C000DB2000F011F80021402000F00DF8FFF7C8
:1008D000B4FD0021AF2000F007F808BD000801407A
:1008E000000C01400014014070B504460E4626B1CC
:1008F00004211848FFF77BFD03E004211548FFF7AA
:1009000074FD20211448FFF770FD002517E0202119
:100910001248FFF76AFD04F0800020B180210F48E3
:10092000FFF765FD03E080210C48FFF75EFD202105
:100930000A48FFF75CFD6006040E681CC5B2082D6E
:10094000E5DB20210448FFF752FD04210148FFF7B1
:100950004EFD70BD00140140000C01400008014034
:1009600070B504460D46A01CC4B205F1B001C8B272
:100970000021FFF7B9FF102141EA14100021FFF711
:10098000B3FF04F00F000021FFF7AEFF70BD0000C1
:100990002DE9F04780460D4616461F46DDF82090AB
:1009A00040210F48FFF721FD032000F02FF84046BB
:1009B00000F02CF8284600F029F8304600F026F820
:1009C000002404E0FFF716FD3855601CC4B24C4506
:1009D000F8DB40210248FFF70AFDBDE8F087000080
:1009E000000C01407047000029B1064A9269024399
:1009F000044B9A6104E0034A92698243014B9A6175
:100A000070470000001002407047000070B50446B7
:100A1000002517E020210D48FFF7E7FC04F08000D7
:100A200020B180210948FFF7E2FC03E0802107485C
:100A3000FFF7DBFC6006040E20210448FFF7D7FC1B
:100A4000681CC5B2082DE5DB70BD00000008014040
:100A500010B500F001F810BD0CB500200190009019
:100A60003348006840F480303149086000BF3048A6
:100A7000006800F4003000900198401C019000983C
:100A800018B90198B0F5A06FF1D12948006800F4B9
:100A9000003010B10120009001E00020009000988B
:100AA000012843D12348006840F010002149086024
:100AB0000846006820F0030008600846006840F01F
:100AC000020008601A4840681949486008464068B2
:100AD00048600846406840F48060486008464068C6
:100AE00020F47C1048600846406840F4E8104860F4
:100AF0000846006840F08070086000BF0C4800683D
:100B000000F000700028F9D00948406820F0030088
:100B1000074948600846406840F00200486000BF4E
:100B20000348406800F00C000828F9D10CBD000013
:100B30000010024000200240042808D14FF0E021BC
:100B4000096941F004014FF0E022116107E04FF024
:100B5000E021096921F004014FF0E02211617047A2
:100B60007047000010B51348006840F001001149BB
:100B7000086008464068104908400E494860084629
:100B800000680E4908400B4908600846006820F4D8
:100B9000802008600846406820F4FE0048604FF45A
:100BA0001F008860FFF754FF4FF0006004490860A1
:100BB00010BD0000001002400000FFF8FFFFF6FE2D
:100BC00008ED00E010B540F225511D4800F03EF858
:100BD00010B31B4800F064F8C4B21A48008800F44F
:100BE0000040C8B91748008800F4804060B10A2C62
:100BF00003D000201349088020E01248008840F408
:100C000000401049088019E00D2C06D10D480088DD
:100C100040F480400B49088010E00A480088C0F387
:100C20000D0009490C5407480088401C05490880FC
:100C300008460088C72801DD0020088010BD00009C
:100C4000003801400C0000206404002070B502460A
:100C5000002400230025002040F66A16B14200D18E
:100C600000BFC1F3421501F01F03012606FA03F38A
:100C7000012D02D19689334006E0022D02D1168A59
:100C8000334001E0968A33400C12012606FA04F440
:100C90001688344013B10CB1012000E0002070BD73
:100CA00001468888C0F30800704700BFFEE700BF18
:100CB0007047000010B56FF00400FFF73DFF0A48D1
:100CC00000680A49B0FBF1F009490870084600784D
:100CD00000EB4001C1EBC0104FF6FF7101EAC0000C
:100CE0000449088010BD00001000002000127A00A6
:100CF00004000020060000200146114A12884A43E1
:100D00004FF0E0235A6100229A611A46126942F0BC
:100D100001021A6100BF4FF0E022106900F00102E9
:100D20001AB100F48032002AF5D04FF0E0221269A7
:100D300022F001024FF0E0231A6100229A6170470D
:100D40000600002000BFFFF7B5FFFFF723FD0020DE
:100D5000FFF793FB0020FFF79EFBFFF76EFBBBE066
:100D60005E48FFF7AEFB4FF4FA70FFF7C5FF5CA2D9
:100D700000210846FFF710FC5EA202210020FFF7C9
:100D80000BFC61A204210020FFF706FC63A20621F0
:100D90000020FFF701FC4FF4FA70FFF7ADFFFFF7FB
:100DA0004CFB63A200211820FFF7F6FB63A202218F
:100DB0000020FFF7F1FB66A204210020FFF7ECFB07
:100DC00068A206210020FFF7E7FB4FF4FA70FFF757
:100DD00093FFFFF732FB68A200210846FFF7DCFB18
:100DE0006AA202210020FFF7D7FB6DA20421002098
:100DF000FFF7D2FB6FA206210020FFF7CDFB714A5F
:100E000006216120FFF775FB6F4A06217120FFF76D
:100E100070FB4FF4FA70FFF76FFFFFF70EFB6BA24A
:100E200000210846FFF7B8FB6DA202210020FFF762
:100E30006DFC71A203210020FFF768FC74A204215D
:100E40000020FFF763FC78A205210020FFF75EFC7D
:100E50007BA206210020FFF759FC7EA2072100207B
:100E6000FFF754FC4FF4FA70FFF746FFFFF7E5FA7F
:100E70007DA200210846FFF78FFB80A202210020FF
:100E8000FFF78AFB82A204210020FFF785FB85A2E1
:100E900006210020FFF780FB4FF4FA70FFF72CFFCC
:100EA000FFF7CBFA84A200210846FFF775FB87A263
:100EB00002210020FFF770FB89A204210020FFF728
:100EC0006BFB8CA206210020FFF766FB4FF4FA7043
:100ED000FFF712FFFFF7B1FA42E7000024000020FD
:100EE00031323836342CB4F8D6D0CEC4D7D6BFE29F
:100EF000000000003136583136BCF2CCE5BABAD722
:100F0000D6BFE22C00000000BBF238583136B5E302
:100F1000D5F341534349492C00000000BBF235583A
:100F200037B5E3D5F34153434949C2EB0000000014
:100F3000D6D0BEB0D4B0B5E7D7D30000D6F7D2AA8A
:100F4000C9FAB2FA4F4C4544C4A3BFE900000000FF
:100F5000B9CBBFCDD6C1C9CFD5E6B3CFB7FECEF1A1
:100F600000000000B3CFD0C5D3EBD6CAC1BFB5DAFD
:100F7000D2BBA3A100000000474232333132BCF2A1
:100F8000CCE5D7D6BFE2BCB000000000D3D0CDBCCA
:100F9000D0CDB9A6C4DCA3ACBFC9D7D40000000033
:100FA000B1E0B4F3D7D6BBF2CDBCCFF1BBF2C9FAF6
:100FB00000000000C6A7D7D6A3ACC0FDC8E7A3BAFF
:100FC0000000000024040020440400203C214023B1
:100FD00024255E262A28295F2D2B5D2F0000000086
:100FE0003C21402324255E262A28295F2D2B5D2FB6
:100FF0003B2E2C3F5B000000585920656C656374E4
:10100000726F6E69637320436F2E2C200000000006
:101010004C74642E2065737461626C6973686564D6
:101020002061742020000000796561722032303127
:10103000302E466F637573204F4C454420000000EE
:101040004D6F62696C653A31333236353538353932
:101050003735000054656C3A303735352D33323929
:101060003130373135000000B0A1B0A2B0A3B0A438
:10107000B0A5B0A6B0A7B0A800000000B0A9B0AA63
:10108000B0ABB0ACB0ADB0AEB0AFB0B0000000002F
:10109000B0B1B0B2B0B3B0B4B0B5B0B6B0B7B0B82C
:1010A00000000000B0B9B0BAB0BBB0BCB0BDB0BEBB
:1010B000B0BFB0C000000000F7DFF7E0F7E1F7E2F3
:1010C000F7E3F7E4F7E5F7E600000000F7E7F7E8F5
:1010D000F7E9F7EAF7EBF7ECF7EDF7EE00000000C1
:1010E000F7EFF7F0F7F1F7F2F7F3F7F4F7F5F7F6B4
:1010F00000000000F7FEF7F8F7FAF7FBF7FCF7FD42
:10110000F7F7F7F9000000002811000800000020A0
:10111000640400006C0100083C1200086404002014
:101120002C070000C8010008011184A24A0410091C
:10113000010203040607080916060AFE0AC612E0A1
:1011400012F062F84EFE7DBBC7EF01053EC7BB7DC6
:10115000FE300D080CFEFE0C082060FEFE60208FA5
:101160007848FE82BABA0309135EAA0101017E6CB7
:10117000FEFF0301CBFFFF0F39BBECC0C0C0271936
:1011800018F92701392975990B6CFFFF0C01491AD1
:101190000C22E1E1E12701396C0F1F1801FB1F0F41
:1011A0000F092E27013925E2928A86167C828282D7
:1011B0007C12FE258292AAC65BC0C01111AD02024C
:1011C00002FE10190D012B300A24A42E24E4242E33
:1011D000A424000A56F84A4C48F8484C4AF81CC067
:1011E000201001AB20C00A11300A120A07027F0248
:1011F000070A121E0B0A0A0A7F0402560B980A1FDE
:101200002040404050205F800A11300EFE8242A2F2
:101210009E8A82868AB26202FE1C7F4040031901C8
:101220002909211809808080BFA5A5A53F041ABF00
:0C1230000C1178087F24243F24247F0840
:0400000508000131BD
:00000001FF
